:080000001100610B1200000A5F
:080008001100000A11007A0A40
:080010001100000B1100450B6B
:080018001400000A14001D0A87
:080020001400510A1200000B4C
:080028001200340BF60C290054
:0800300049096900250C2A00B2
:080038001D0A1E0AEA021C0A5F
:080040004100F60C2900040C3C
:080048002A00260A270AEA0239
:08005000250A41000000000038
:08005800060C2900130C2A001C
:08006000310A320AEA02300AFB
:0800680041004100F60C2900E3
:08007000470961000D001609AB
:08007800F60C2900FF0C8100C9
:0800800003073E0A060C810093
:080088004307420A0D00480A7B
:08009000490A0B0C2A004C0A7E
:080098004D0AEA024B0A0000C8
:0800A000000000000D006400E7
:0800A80010000009100C2400F7
:0800B0006C001609490C29003F
:0800B800180C240010000409DB
:0800C0001E0C240010000409CD
:0800C800240C240010000409BF
:0800D0002A0C240010000409B1
:0800D800300C240010000409A3
:0800E000360C24001000040995
:0800E800420C24001000040981
:0800F0003C0C2400100004097F
:0800F8003C0C810003077C0AA7
:08010000100C240010022D0078
:080108000C02AD00650C24009F
:08011000000229000F0C6F0131
:08011800060C8F004306920A59
:080120006D06E000E403880A0B
:08012800100C2400490C290011
:08013000AC02480C2400100091
:0801380004094E0C2400100024
:080140000409540C2400100016
:0801480004095A0C2400100008
:080150000409060C81004307BD
:08015800A90ABF0C8C0003078B
:08016000590A1C0C2C001609C1
:08016800E60C2900FF0C8100E8
:080170000307B60A060C81002A
:080178004307BA0AEC02B30AC6
:08018000100002091609E60C4B
:080188002900180C24001000EE
:0801900006091E0C24001000FA
:080198000609240C24001000EC
:0801A00006092A0C24001000DE
:0801A8000609300C24001000D0
:0801B0000609360C24001000C2
:0801B80006093C0C24001000B4
:0801C0000609420C24001000A6
:0801C8000609480C2400100098
:0801D00006094E0C240010008A
:0801D8000609540C240010007C
:0801E00006095A0C240010006E
:0801E8000609FF0C810003076A
:0801F000F50A060C810003076B
:0801F800F90A1609E60C2900C2
:08020000180C2400100008098D
:080208001E0C2400100008097F
:08021000240C24001000080971
:080218002A0C24001000080963
:08022000300C24001000080955
:08022800360C24001000080947
:080230003C0C24001000080939
:08023800420C2400100008092B
:08024000480C2400100008091D
:080248004E0C2400100008090F
:08025000540C24001000080901
:080258005A0C240010000809F3
:08026000060C81004307300B7E
:080268001609E60C2900650CE3
:080270002400F60C2000E40359
:080278003A0BFF0C81000307A3
:080280003D0B060C8100030791
:08028800410B230C2C001609A8
:08029000E60C2900FF0C8100BF
:0802980003074A0B060C81006C
:0802A00043074E0BEC02470B73
:0202A800560AF4
:08040000010CE40100028C0074
:0804080003070D004306110A71
:08041000020CE4010C02800063
:0804180003070D004306500A22
:08042000220A010C84002A00ED
:080428000A022400030CE401A8
:0804300000022D00FE0CE401A6
:0804380000028D004306590A81
:08044000020CE401FD0CE401D3
:0804480000022F00650CEF011A
:08045000040CE40100022B0082
:08045800A4020002E400E4002C
:08046000E400E001E400E40007
:080468000B020306A002E001F3
:0804700000022400650CE40108
:080478000F0284000306480A8C
:0804800004022D000F0224000C
:080488000D022F000F02840099
:080490002D00AD022F0C20002D
:08049800E400ED024B0A0D0027
:0804A000FD0CE4010002240040
:0804A800650CE4012F0C20009B
:0804B0000D000A022400020CF9
:0804B800E40100022F00650CB5
:0804C000EF01FE0CE401000253
:0804C8002400650CE4010F02A1
:0804D00084000307710A040215
:0804D8002B000F0224000B02AF
:0804E0002F0004028F002D0023
:0804E800AD022F0CA402ED028D
:0804F000760A0D00010CE40185
:0804F80000022D00020CE401DA
:0805000000022B000D028B002C
:0805080003060D000D022000A6
:08051000FE0CE4010B022000C7
:08051800FF0CE40100022D00BC
:08052000020CE40100022B00B3
:080528000D022000FE0CE401AD
:060530000B0220000D008B
:08060000010CE401010C84006F
:080608002A00A40200022D00EB
:08061000FE0CE40100028D0064
:080618006F001900E404320038
:080620000306150B6F027202C4
:08062800B2020A022400030CD7
:08063000E40100022D00FE0CA4
:08063800E40100028D004306FD
:080640000D001900E404340070
:0806480010000A092F0243060D
:080650002F0B72027302010C72
:08065800F2010306B3021202D5
:080660002D000A022400050C24
:08066800E4010D022000100C5A
:08067000240013022D000A0210
:080678002400040CE4010D0252
:080680002000FE0CE401600003
:080688000D00750076007700FB
:08069000730015050304720359
:08069800760377031402150735
:0806A000560BB600010C030724
:0806A800B7005A0BF601010C2A
:0806B0000306F7017503730353
:0806B80003074B0B1502320091
:0806C0000D001F0C4300400C6B
:0806C8002500040C050066008A
:0806D000000C0600400C27009D
:0806D8000F0C0700FF0C0800E5
:0806E0006900000C0900C30CC5
:0806E8000200100C2400700058
:0206F0000D00FB
:08080000C70C02006900610051
:08080800100C2400B0021002E4
:080810002F00650C2400DE0935
:080818000C022000A402EC0C0C
:080820002000A4020D022000DB
:08082800A402400CEF01DE09FF
:080830000C022000A402EC0CF4
:080838002000A4020D022000C3
:08084000A402400CEF01DE09E7
:080848000C022000A402EC0CDC
:080850002000A4020D022000AB
:08085800A402400CEF01DE09CF
:080860000C022000A402EC0CC4
:080868002000A4020D02200093
:08087000A40204022C00100C8C
:08087800240010022F000C0205
:080880002400DE090C02200037
:08088800A402140C2000A402DC
:080890000D022000A402400C3F
:08089800EF01DE090C02200053
:0808A000A402140C2000A402C4
:0808A8000D022000A402400C27
:0808B000EF01DE090C0220003B
:0808B800A402140C2000A402AC
:0808C0000D022000A402400C0F
:0808C800EF01DE090C02200023
:0808D000A402140C2000A40294
:0808D8000D022000A4026C00D7
:0808E00010001209AC02080C23
:0808E8008C000307700A000CEC
:0808F0002C00010C2D00180C76
:0808F800240010001409010C9A
:080900002C00020C2D001E0C5E
:08090800240010001409020C88
:080910002C00030C2D00240C47
:08091800240010001409030C77
:080920002C00000C2D002A0C34
:08092800240010001409040C66
:080930002C00050C2D00300C19
:08093800240010001409050C55
:080940002C00060C2D00360C02
:08094800240010001409060C44
:080950002C00070C2D003C0CEB
:08095800240010001409070C33
:080960002C00040C2D00420CD8
:08096800240010001409000C2A
:080970002C00040C2D00480CC2
:08097800240010001409010C19
:080980002C00050C2D004E0CAB
:08098800240010001409020C08
:080990002C00060C2D00540C94
:08099800240010001409030CF7
:0809A0002C00070C2D005A0C7D
:0809A8002400100014094F0C9B
:0809B00081000307D70AC30C04
:0809B80002000D00070C4300D2
:0809C0000F0241002C00400C65
:0809C800AF00070C43000F0211
:0809D00041002D00400CEF0175
:0209D8000D0010
:080A00000C022B000C022F0078
:080A080003046F030F02EB0170
:080A1000650CEB010B02240050
:080A180000022F00A4020002FD
:080A20002A00A40200022D00CF
:080A2800280CED01100C240064
:080A30000F0232000D02350037
:080A38001000100913022F0049
:080A40000A0232000D0235002C
:080A48001000100913022A003E
:080A50000B0224000F0220003C
:080A58004D0CE001A4020A02AA
:080A600020005F0CE0010D0015
:080A680004022A000C022B001D
:080A70000C022F0003046F03C8
:080A78000F02EB01650CEB011C
:080A80000B02240000022C000F
:080A8800A40200022E000A0284
:080A900024000C022000A40266
:080A98000E0220000D022B00EC
:080AA0000D022F0003046F0397
:080AA8000F02EB01650CEB01EC
:080AB0000B02240000022C00DF
:080AB800A40200022E000A0254
:080AC0002400A402A4020C02B0
:080AC8002000A4020E02200030
:020AD0000D0017
:080C00000000020003000500E2
:080C08000600080009000B00C2
:080C10000C000E0010001100A1
:080C1800130014001600170080
:080C200018001A001B001D0062
:080C28001E0020002100220043
:080C3000240025002600270026
:080C380029002A002B002C000A
:080C40002D002E002F003000F2
:080C48003100320033003400DA
:080C50003500360037003800C2
:080C5800380039003A003B00AE
:080C60003B003C003C003D009C
:080C68003D003E003E003E008D
:080C70003F003F003F0040007F
:080C7800400040004000400074
:080C800040004000400040006C
:080C8800400040003F003F0066
:080C90003F003E003E003E0063
:080C98003D003D003C003C0062
:080CA0003B003B003A00390063
:080CA800380038003700360067
:080CB00035003400330032006E
:080CB800310030002F002E0076
:080CC0002D002C002B002A007E
:080CC800290027002600250089
:080CD000240022002100200095
:080CD8001E001D001B001A00A4
:080CE0001800170016001400B3
:080CE8001300110010000E00C2
:080CF0000C000B0009000800D4
:080CF8000600050003000200E4
:080D00000000FE00FD00FB00F5
:080D0800FA00F800F700F50005
:080D1000F400F200F000EF0016
:080D1800ED00EC00EA00E90027
:080D2000E800E600E500E30035
:080D2800E200E000DF00DE0044
:080D3000DC00DB00DA00D90051
:080D3800D700D600D500D4005D
:080D4000D300D200D100D00065
:080D4800CF00CE00CD00CC006D
:080D5000CB00CA00C900C80075
:080D5800C800C700C600C50079
:080D6000C500C400C400C3007B
:080D6800C300C200C200C2007A
:080D7000C100C100C100C00078
:080D7800C000C000C000C00073
:080D8000C000C000C000C0006B
:080D8800C000C000C100C10061
:080D9000C100C200C200C20054
:080D9800C300C300C400C40045
:080DA000C500C500C600C70034
:080DA800C800C800C900CA0020
:080DB000CB00CC00CD00CE0009
:080DB800CF00D000D100D200F1
:080DC000D300D400D500D600D9
:080DC800D700D900DA00DB00BE
:080DD000DC00DE00DF00E000A2
:080DD800E200E300E500E60083
:080DE000E800E900EA00EC0064
:080DE800ED00EF00F000F20045
:080DF000F400F500F700F80023
:080DF800FA00FB00FD00FE0003
:080E00000000000001000100E8
:080E08000200020003000300D8
:080E10000400040005000500C8
:080E18000600060007000700B8
:080E20000800080009000900A8
:080E280009000A000A000B009A
:080E30000B000C000C000C008B
:080E38000D000D000D000E007D
:080E40000E000E000F000F0070
:080E48000F0010001000100063
:080E5000110011001100110056
:080E580012001200120012004A
:080E600012001300130013003F
:080E6800130013001300140035
:080E700014001400140014002A
:080E7800140014001400140022
:080E800014001400140014001A
:080E8800140014001400140012
:080E900014001400130013000C
:080E9800130013001300130006
:080EA000120012001200120002
:080EA8001200110011001100FD
:080EB0001100100010001000F9
:080EB8000F000F000F000E00F7
:080EC0000E000E000D000D00F4
:080EC8000D000C000C000C00F1
:080ED0000B000B000A000A00F0
:080ED8000900090009000800EF
:080EE0000800070007000600EE
:080EE8000600050005000400EE
:080EF0000400030003000200EE
:080EF8000200010001000000EE
:080F000000000000FF00FF00EB
:080F0800FE00FE00FD00FD00EB
:080F1000FC00FC00FB00FB00EB
:080F1800FA00FA00F900F900EB
:080F2000F800F800F700F700EB
:080F2800F700F600F600F500E9
:080F3000F500F400F400F400E8
:080F3800F300F300F300F200E6
:080F4000F200F200F100F100E3
:080F4800F100F000F000F000E0
:080F5000EF00EF00EF00EF00DD
:080F5800EE00EE00EE00EE00D9
:080F6000EE00ED00ED00ED00D4
:080F6800ED00ED00ED00EC00CE
:080F7000EC00EC00EC00EC00C9
:080F7800EC00EC00EC00EC00C1
:080F8000EC00EC00EC00EC00B9
:080F8800EC00EC00EC00EC00B1
:080F9000EC00EC00ED00ED00A7
:080F9800ED00ED00ED00ED009D
:080FA000EE00EE00EE00EE0091
:080FA800EE00EF00EF00EF0086
:080FB000EF00F000F000F0007A
:080FB800F100F100F100F2006C
:080FC000F200F200F300F3005F
:080FC800F300F400F400F40052
:080FD000F500F500F600F60043
:080FD800F700F700F700F80034
:080FE000F800F900F900FA0025
:080FE800FA00FB00FB00FC0015
:080FF000FC00FD00FD00FE0005
:080FF800FE00FF00FF000000F5
:08100000000D030543060D007D
:08100800170910091009100975
:08101000100910091009100974
:081018001009730343040D00ED
:08102000730372030307170AB2
:08102800B20003050D00B20047
:0810300003060D00F2010304A8
:081038000D0012020304730015
:081040001406320A3406360AD8
:0810480054063A0A74063E0A40
:081050009406420AB406460AA8
:08105800D4064A0AF4064E0A10
:0810600072000D00320333039E
:081068003406F20132033303E8
:081070005406F20132033303C0
:081078007406F2013203330398
:081080009406F2013203330370
:08108800B406F2013203330348
:08109000D406F2013203330320
:08109800F406F20132033303F8
:0810A0000D004B0C3400F206B8
:0810A800590A1D091502000997
:0810B0000D007202B2021D09DD
:0810B80015020009F3007302A8
:0210C0000D0021
:021600003905AA
:021FFE00530A84
:08200000F60FFB0FF60FFA0FBB
:08200800F20FFD0FF30FF30FBF
:08201000F60FF40FF20FFD0FB3
:08201800F30FF00FF30FF10FBD
:10202000AA0FCD0FFFFF04ABC40400B4FFFF0000F4
:00000001FF
