:080000001100370A11001F0B6B
:0800080012008D0A11003C0BEF
:080010001200000A1200720A3E
:080018001100000A1100910B18
:080020001100CA0B1100DA0BFC
:080028001100670B1100790BB8
:0800300014001E0A11000B0B65
:08003800F60C29000B0C2A0054
:08004000210A220AEA02200A4B
:0800480041004100F00C290009
:08005000250C2A002B0A2C0AE2
:08005800EA022A0A4100F60C3D
:080060002900040C2A00340AF7
:08006800350AEA02330A4100E7
:0800700000000000060C29004D
:08007800130C2A003F0A400AA4
:08008000EA023E0A41004100C2
:08008800F60C29000C0C2A0003
:08009000490A4A0AEA02480A83
:0800980041000D001C09F60CEB
:0800A00029002A0C2A00180CAB
:0800A8002B00EB02550AEA02ED
:0800B000530A000000000D00DE
:0800B800060C2A005F0A600A31
:0800C000EA025E0A4100410062
:0800C80000000D000D001900FD
:0800D00010000C0910001809D2
:0800D80015023200160233008C
:0800E000080C3100040C300093
:0800E8001C090E0C430012027A
:0800F000410034004E0C2A000F
:0800F8007D0A7E0AEA027C0A7F
:08010000410041000000170C52
:08010800D101F407F60C2900F7
:080110005C09370CD101D40792
:08011800F60C29005C09570CEC
:08012000D101B407F60C29001F
:080128005C09770CD10194077A
:08013000F60C29005C09970C94
:08013800D1017407F60C290047
:080140005C09B70CD101540762
:08014800F60C29005C09D70C3C
:08015000D1013407F60C29006F
:080158005C09E70CD10114075A
:08016000F60C29005C09000007
:080168000000F60C29000E0C4A
:080170004300130241003400BA
:08017800670C2A00BF0AC00A4F
:08018000EA02BE0A0000E70CD0
:08018800D101F407F60C290077
:080190005C09D70CD101D40772
:08019800F60C29005C09B70C0C
:0801A000D101B407F60C29009F
:0801A8005C09970CD1019407DA
:0801B000F60C29005C09770C34
:0801B800D1017407F60C2900C7
:0801C0005C09570CD101540742
:0801C800F60C29005C09370C5C
:0801D000D1013407F60C2900EF
:0801D8005C09170CD1011407AA
:0801E000F60C29005C09000087
:0801E8000000F60C2900010CD7
:0801F00090004307030B6B0CA8
:0801F8002A00FE0AFF0AEA02D8
:08020000FD0A00000B0B6B0C62
:080208002A00060B070BEA02B5
:08021000050B41004100F00262
:08021800740AB202B302F10204
:08022000720A00000000000C4E
:0802280030001C091C0C2A0027
:08023000190B1A0BEA02180B6E
:080238001702900003062B0BD6
:08024000010C2A00230B240B22
:08024800EA02220B0000F60C93
:08025000360BF60C360B170209
:0802580033001C0CF30110023D
:0802600093000307290B410084
:080268000000CF0C2900090C75
:080270002A003A0B3B0BEA02E5
:08027800390B410041000000B8
:080280001D02900003065C0B57
:08028800010C2A00470B480B92
:08029000EA02460B0000F60C27
:080298002900210C2A00180CBA
:0802A0002B00EB02510BEA02F6
:0802A8004F0B080C2A00580B53
:0802B000590BEA02570BB80BD1
:0802B8001D023300100CF301DC
:0802C0001002930003074B0B31
:0802C800F60C2900000C3400C3
:0802D000100233001D02B3000F
:0802D8001302F4010304730397
:0802E00073031302F4011C0278
:0802E80031004100410000005B
:0802F0000000F102750B050C82
:0802F80031000F0C4300140259
:0803000041003300420032000D
:08030800070CF201120272075A
:08031000F60C29006609B30395
:0803180013020F0E3200070C66
:08032000F20112027207F60C53
:0803280029006609B30313026A
:080330000F0E3200070CF20170
:0803380012027207F60C290005
:08034000B402F1027D0B660915
:080348006609F60C2900DC0C2B
:0803500031001C02B100410064
:08035800410000000000F10269
:08036000AB0B010C2A00B40BE9
:08036800B50BEA02B30B000023
:08037000180290000306C70B00
:08037800010C2A00BF0BC00BB1
:08038000EA02BE0B0000F60CBE
:08038800D20BF60CD20B180297
:0803900033001C0CF301100204
:0803980093000307C50B4100AF
:0803A0000000CF0C29000E0C37
:0803A8002A00D60BD70BEA0274
:0803B000D50B00000000000065
:0803B800F60C2900170C2A00C5
:0803C000E10BE20BEA02E00B85
:0803C80041004100B0025F0C8E
:0803D000D0010307150B00002A
:0803D80000001C0C30004E096E
:0803E000F002EF0B1000000910
:0803E800260C30004E09F00262
:0603F000F60B10006C0A80
:0804000011001F0C4300400C29
:080408002500040C0500400C66
:0804100027000F0C0700FF0C90
:080418000800000C2900090096
:08042000C70C02001900000CDA
:080428003B00600C3500000CE4
:080430003600320C37003800E1
:080438003C003D001B00860C96
:080440003200000C3300000C37
:080448003C003B00260C3D00C6
:08045000040C3000030C310024
:08045800000C3400010C360019
:08046000190010000409190045
:08046800000C2E000D00F00C49
:0804700029001100000C21001D
:080478001900100002091B002D
:0804800014022A001900000C0F
:080488008A0043074A0A100034
:080490000E09DF0A010C8A00CD
:080498004307510A100010098E
:0804A000DF0A030C8A00430788
:0804A800580A10001209DF0AD6
:0804B000020C8A0043065F0AFA
:0804B80010000A09DF0A100020
:0804C0001409100016091B00CD
:0804C80010022A0011021900C4
:0804D00031000A0230001002A5
:0804D800FC011102FD01FA0C08
:0804E000DC010307800AD70CC0
:0804E8009C000306910AFB0CC5
:0804F000DD010307CE0A8B0CAD
:0804F8009D000306D10ADF0A92
:080500001D0230000F0CF00198
:080508001702B000F006A20A80
:08051000170230001C0CF00181
:080518001D02B000F006A20A6A
:08052000C10A1D0230000F0C9E
:08052800F0011802B000F0061A
:08053000B20A180230001C0C95
:08053800F0011D02B000F00605
:08054000B20AC10A1B00080CFD
:08054800F301010C3400320C38
:080550003500580C930043072D
:08055800C10A030C3400000C81
:080560003200C10A1B00080C67
:08056800F201010C3400320C19
:080570003500580C920043070E
:08057800C10A030C3400000C61
:0805800033001B007002B00201
:080588001900020C2C00400CCC
:080590002D000A0CED01100022
:080598000609770A020C3D0080
:0805A000D30A8D0C3D001B0085
:0805A8007102B1021900020CFE
:0805B0002C00400C2D000A0C88
:0805B800ED011000060910001E
:0805C00008091B0012022A00C9
:0805C80013022B0019000A02C6
:0805D00095000307F00A150273
:0805D8008A000307F20AF30A8E
:0805E000B502F30AF5000B025D
:0805E80096000307FC0A16024D
:0805F0008B000307FE0AFF0A5D
:0805F800B602FF0AF60019002B
:080600004F0C81000307000B01
:08060800080C2A00070B080B87
:08061000EA02060B0D001900BF
:080618006F0C9C0003071E0B90
:0806200018023000080CF00183
:0806280010029D0003071B0BEB
:08063000020CF8011E0B020C84
:08063800B8001E0B0D002504A3
:080640004100410005054100E5
:080648004100050441004100DE
:080650002505100C2A007903B6
:080658007A034507310B190577
:08066000320B190441004100B6
:080668000505410041000504F5
:080670000000EA022B0B0D0053
:080678000B0C2A0065044C077D
:08068000430B8505440B8504C2
:08068800410041004100410066
:08069000650541004100410035
:0806980041006D036C03EA024E
:0806A0003E0B6504010C2A0069
:0806A800550B560BEA02540B3E
:0806B000410000000000A50557
:0806B800010C2A005F0B600B2E
:0806C000EA025E0B410000009C
:0806C8000000A5040D00190655
:0806D000700BFE0CD7010307BB
:0806D800780B020CB700780B4F
:0806E0003906780B840C970029
:0806E8000306780B020CF70178
:0806F0000D001B00010C960037
:0806F80043060B0B19001A0662
:08070000880BFE0CD801030771
:08070800900B020CB800900BED
:080710003A06900B840C9800DE
:080718000306900B020CF8012E
:080720000D001906990B1B00E6
:08072800860C3200010C3600C2
:0807300019003906A10B1B00A2
:080738008E0C3200020C3600A9
:0807400019009906B90B1A001B
:080748000D0C3000000C310023
:0807500010000A091B00010C56
:080758003400320C3500080CDE
:080760003200330019003500DE
:0807680036006E0C3C00320C5F
:080770003D001B00090C9C0078
:080778000306C10B010CFD0199
:08078000C80B130C9C000306DA
:08078800C60BC80B010CBD00FB
:0807900019000D00100014090E
:08079800100016096E0C3C0074
:0807A000320C3D001B00F502C4
:0807A800D80B020C3400D80B41
:0807B00019000D001900990663
:0807B800EC0B1A000D0C3000DF
:0807C000080C310010000A09C9
:0807C8001B00000C34001900B5
:0807D0006E0C3C00320C3D00F0
:0407D80019000D00F7
:080800001A00FB02700A090C4A
:080808003B00F302240A100278
:08081000430012024100340014
:0808180042003300B302FE0CA4
:0808200094004306640AB202D1
:08082800FF0C94004306240AB2
:08083000000C94004306240AA9
:08083800020C2C00000C2D0045
:080840001402ED01100006098D
:08084800F602440A100243000D
:080850001502410037004200CF
:080858003600B602FE0C970009
:0808600043061200640AB50210
:08086800FF0C97004306440A4F
:08087000000C97004306440A46
:08087800020C2C00400C2D00C5
:080880001702ED01100006094A
:08088800FA02700A100243009D
:0808900018024100390042008A
:080898003A00BA02FE0C9900BF
:0808A0004306640AB802FF0CD4
:0808A80099004306700A000CE0
:0808B00099004306700A020CD6
:0808B8002C00800C2D00190238
:0808C000ED0110000609700AA9
:0808C80010024300030CF101D2
:0808D000110241003100420059
:0808D8004200300010000A0983
:0808E00019000D001A001002BE
:0808E80043001102410032003F
:0808F000B102100243001102E5
:0808F80041003500B1021002BD
:08090000430011024100380020
:08090800020CB100010C3300E8
:0809100036003A003B0019001B
:080918000D00000C2C00E00CA6
:080920002D0010000609010C76
:080928002C00100C2D00100042
:080930000609010C2C00580C13
:080938002D0010000609010C5E
:080940002C00900C2D001000AA
:0809480006091A000D0C300035
:08095000080C310010000A0937
:040958001E000D0070
:0810000010001C09DA0C2900A4
:081008002A0C2A00180C2B0031
:08101000EB02080AEA02060ADD
:08101800000000000D001000B3
:081020001C09FF0C29002A0C39
:081028002A00180C2B00EB025A
:08103000170AEA02150A00008C
:0810380000000D00AE02270CC0
:081040008E004307250A000C95
:081048002E0014000F091B002B
:08105000000C37001B023A00FE
:0810580019000B0C3100000C23
:081060003200000C2D000E020D
:081068002C000C02F20103064A
:08107000B1026C036D036C0377
:081078006D036C036D030C0213
:08108000F2010306B1020D02AA
:08108800F1017D0C30001000A5
:081090001C09DA0C2900320CE6
:081098002A004E0A4F0AEA0289
:0810A0004D0A090C2B0011029E
:0810A800430012024100330075
:0810B00042003400010CF201C2
:0810B8000306B1020C0C9100CB
:0810C00043076B0A5F0C92006C
:0810C80043076C0A0B0C310018
:0810D000000C32006E0A410021
:0810D800410000000C0C2A008D
:0810E000F60C1307DA0C2900DD
:0810E80034033303EA02700A2D
:0810F000EB02530ADA0C29009F
:0810F800140C2A007F0A800A93
:08110000EA027E0A41004100F1
:081108000000FF0C2900010C9E
:081110002A008A0A8B0AEA0298
:08111800890A4100F60C2900D0
:081120000C0C90000307110BF9
:081128008F0CD0010306120B2D
:081130001B0017022C0019003E
:08113800000C8C004306A50A1F
:08114000090C8C004306BD0AF6
:08114800CC0A1B00B7021900DC
:081150000A0C4300000C1B0017
:08115800DA01BA02190041009E
:081160001B00390042003800B9
:081168001900CD0C2A00B80AA1
:08117000B90AEA02B70A4100C6
:081178001B0B1B00000C3700EB
:081180001900CE0C2A00C40A7C
:08118800C50AEA02C30A410096
:081190000000000000001B0B31
:08119800F60C29001B001802EF
:0811A0002C0019022D001900BA
:0811A800130C2A00D70AD80A33
:0811B000EA02D60A000000006B
:0811B8000C0C34001B001D02A9
:0811C0006C07F60C29006D0319
:0811C8006C03080C2A00E80A80
:0811D000E90AEA02E70A410006
:0811D80041000000F60C2900A3
:0811E000020C2A00F30AF40AD4
:0811E800EA02F20A41000000D6
:0811F0001900F402DE0AF60CFE
:0811F8002900060C2A00000B7F
:08120000010BEA02FF0A0000E5
:0812080000001B00B7021900F1
:081210001A0C2A000B0B0C0B59
:08121800EA020A0B410000008C
:081220001B0B4100D00C2A0059
:08122800150B160BEA02140B72
:08123000410000000000F00283
:081238001400470A14000F091D
:0812400015023200080C310018
:08124800080C300010001C0925
:08125000C60C29000E0C43003E
:08125800120241003400B10C48
:081260002A00320B330BEA02F5
:08126800310B4100170CD1010C
:08127000F407C60C2900100070
:081278005C09370CD101D40719
:08128000C60C290010005C09F6
:08128800570CD101B407C60C9C
:08129000290010005C09770C35
:08129800D1019407C60C2900E6
:0812A00010005C09970CD1015C
:0812A8007407C60C29001000B8
:0812B0005C09B70CD1015407E1
:0812B800C60C290010005C09BE
:0812C000D70CD1013407C60C64
:0812C800290010005C09E70C8D
:0812D000D1011407C60C29002E
:0812D80010005C090000000099
:0812E000C60C29007B0C2A005A
:0812E800750B760BEA02740B92
:0812F000010C90004307870B7D
:0812F800340C2A007F0B800B6F
:08130000EA027E0B410000002F
:08130800000000008E0B350C03
:081310002A008A0B8B0BEA0294
:08131800890B4100F002260BD5
:08132000B202B302F102240B3A
:081328000000000014000F0991
:081330001C0C300010004E09F6
:08133800F0029A0B10000009FD
:08134000250C300010004E09DD
:08134800F002A20B10001C09C9
:08135000290C2A00180C2B00E7
:08135800EB02AC0BEA02AA0B48
:08136000050C2A00B30BB40BCD
:08136800EA02B20B4100000093
:0813700000001B00BC021C0C74
:081378009C000307C90B000CE7
:081380003C000A0CFB01460CC5
:081388009B004307C90B000C98
:081390003B00000C9400430631
:061398001E0A19000D0001
:081400000E070E070C03980112
:08140800F000F00098010C0354
:081410000E070E07F800FC03B3
:081418000207000700073E0770
:081420003A0702070403F8017A
:08142800F801FC0304040004B8
:081430000002F80104000204AF
:081438000603FC0300000000A4
:0814400000000000FE03FC07A0
:0814480000000000000000009C
:0814500006060E070E079606C2
:0814580096066606660606060C
:0814600006060606FE07000661
:0814680000060006FE07000665
:0814700000060006FE07FE075E
:0814780000000000000000006C
:08148000000000000000000064
:0814880000000000000000005C
:08149000000000000000000054
:0814980000000000000000004C
:081600000000F00F0F000000D4
:081608000000000000000000DA
:08161000000000000F007C0047
:081618000000000000000000CA
:0816200000000000000E0100B3
:08162800F001000000000000C9
:0816300000000000000080032F
:08163800C003E0030000000004
:081640000000000000000000A2
:08164800C000FC01C007000016
:08165000000000000000000092
:0816580000007000F801C0075A
:08166000000000000000000082
:08166800000000001800F80169
:08167000C007000000000000AB
:081678000000000000000C005E
:08168000F800C00700000000A3
:0816880000000000000000005A
:081690000600F800C003000E83
:081698000F008007C0030000F1
:0816A000E00F0600F800E00372
:0816A800800F3F00F007F0077E
:0816B0000000FC0F03007C00A8
:0816B800F001E0017E00FC03DB
:0416C000FC07000023
:0816C60003007C00F800700035
:0816CE007C00E603E303000CBD
:0816D600070F01007C007C00FD
:0816DE003800F808E10BE003FD
:0816E600000E010F01003E009F
:0816EE000F003C00F808F005B4
:0816F600F0030007800F010062
:0816FE00FE0F01001E00F800C0
:08170600F003F0018007800FE1
:08170E0001003E0000001E0076
:08171600F800F001F001C0032E
:08171E00800701001F0000001C
:081726000F00F800F800F801C3
:08172E00C001C00703001F0009
:0817360000000F00F800F800AC
:08173E00F800E001C0070700FC
:081746001F0000080F007800ED
:08174E007800F800F001C0036F
:081756001F080F0000080F003E
:08175E007C007C00FC00F0009F
:08176600E0033E080F0000083B
:08176E000F003C007C007C0030
:08177600F000E0033C080F0045
:08177E0000080F001E007C00B2
:081786007C08F800F003000CE0
:08178E00070000081F000E0017
:081796003C007E0CF800FC0190
:08179E00000C070000081F0009
:0817A60007003E003E07F801B8
:0817AE00F601000E0700000027
:0817B6003F0C03003E00FE039E
:0817BE00F80FF301800F030096
:0817C6000000FE0F00003E00D0
:0817CE00FE00F80FF001F80F16
:0817D600FF030000F801000010
:0817DE001F003C00F003F001C4
:0817E6000000000000000000FB
:0817EE00000000000000C00132
:0817F600F001000000000000FA
:0817FE000000000000000000E3
:081806007000F0010000000079
:08180E000000000000000000D2
:0818160000001C00F0010000BD
:08181E000000000000000000C2
:08182600000000000F00F000BB
:08182E000000000000000000B2
:0818360000000000000807009B
:08183E00F800000000000000AA
:08184600000000000000000C8E
:08184E000300F8000000000097
:0818560000000000000000008A
:08185E00000C03007C000000F7
:0818660000000000000000007A
:08186E000000000C03007E00E5
:0818760000000000000000006A
:08187E0000000000000C07004F
:081886003F000000000000001B
:08188E0000000000000000084A
:081896000F0C0F000000000020
:08189E00000000000000000042
:0218A600000040
:0818AA0007000000000000002F
:0818B20000000000000000002E
:0418BA00F80F000023
:081A00001E0D300D350D040D23
:081A08000C0D300D350D000D31
:081A10003C0D450D4E0D080DC3
:081A18000C0118000C0218007B
:081A20000C0218000C02180072
:081A28000C0218000C0218006A
:081A30000C0218000C02180062
:081A38000C00FE000701130081
:081A4000070213000702130066
:081A480007021300070213005E
:081A5000070213000702130056
:081A5800070213000700FE0065
:081A60002B0C29012B0F0000E3
:081A6800FE001F032103220E02
:081A7000210222011F03FE0008
:081A7800110318031A03150302
:081A80001603110316031803FD
:081A8800FE0018031F03150303
:081A90001003110318031103F8
:081A98001303FE0015031C03FB
:081AA000110319031A031503D9
:061AA8001A031003FE000A
:081C00000000240000001800A0
:081C0800180000003C0042003E
:081C10003C0042008500890040
:081C18009100A10042003C0014
:081C200008001800280008006C
:081C28000800080008007E001E
:081C30003C00420046000C00DC
:081C38001800300060007E007E
:081C40003C00420001001E00FF
:081C48000100810042003C0094
:081C50000800180028004800FC
:081C5800FF000800080008006D
:081C60007E00400040007C0002
:081C68004200020042003C00B2
:081C70001C00220040005C0092
:081C78006200420042003C0042
:081C80007E00020002001E00BC
:081C880002000200020002004C
:081C90003C004200420042004A
:081C98003C00420042003C0048
:081CA0003C004200420042003A
:081CA8003E00020002000200F0
:081CB0000000240000001800F0
:081CB8001800810042003C000D
:081CC00000000000000000001C
:081CC800000000000000000014
:081CD0008000C000600030003C
:081CD8003000180018000C0098
:081CE0000C00060006000300E1
:081CE80003000100010080006F
:081CF000C0006000300030006C
:081CF800180018000C000C009C
:081D00000600060003000300C9
:081D0800010001002600650046
:081D1000250025002600240037
:081D1800240074006600950030
:081D20009500150016003400C7
:041D2800C400F400FF
:081E00000000010032020001A4
:081E0800000000004501540533
:081E1000320400000200760616
:081E18006506430400021600F8
:081E2000770766074404200364
:081E2800470088077608440515
:081E3000310356018807760812
:081E380044053203560288073D
:081E4000760844053203460355
:081E480077066607440432032B
:081E5000450266066506430425
:081E5800230344015504440575
:081E6000330433033400440491
:081E680044043303330223009C
:081E7000440443043203420361
:081E78000300330333032303CD
:081E80003003010033023203BC
:081E88003403100300002200E6
:061E9000230232030000F2
:021FFE00670A70
:08200000F60FFB0FF60FFA0FBB
:08200800F20FFD0FF70FF00FBE
:08201000F60FFE0FF60FF70FAB
:08201800F20FFD0FF30FF00FB2
:10202000AA0FFF0FFFFF04ABC40400B4FFFF0000C2
:00000001FF
