:080000001100760A1100D20A7A
:080008001200200A1200310A67
:080010001200120A1100460A59
:080018001100000A12003F0A6A
:080020001200000AF60C290091
:0800280045096900250C2A00BE
:08003000190A1A0AEA02180A73
:080038004100F60C2900040C44
:080040002A00220A230AEA0249
:08004800210A41000000000044
:08005000060C2900130C2A0024
:080058002D0A2E0AEA022C0A0F
:0800600041004100F60C2900EB
:08006800430961000D001209BB
:08007000F60C2900FF0C8100D1
:0800780003073A0A060C81009F
:0800800043073E0A0D00440A8B
:08008800450A0B0C2A00480A8E
:08009000490AEA02470A0000D8
:08009800000000000D006400EF
:0800A000100000096C001209B8
:0800A800EA0C2900100C2400F1
:0800B0001D023300B10C340005
:0800B800080C3600C00C3500F5
:0800C000FF0C370010000C09D1
:0800C800100C24001E0233009D
:0800D00010000C09100C2400C3
:0800D8001C023500100C36007B
:0800E00011023300120234008A
:0800E800F300F400F60C3700F0
:0800F00010000A09100C2400A5
:0800F800B302B30210000A0973
:08010000100C2400F300F400D0
:0801080010000A09100C24008C
:08011000B402B40210000A0958
:08011800100C2400F4002E0C71
:08012000370010000A09200C51
:08012800240030024306B00A76
:0801300011022A0012022B004B
:080138000B0C430090030F0EB5
:0801400041002D00AD02410059
:08014800190037000A02330020
:080150000B0234000D02350022
:08015800080C360010000C0930
:08016000200C240033024306C9
:08016800CD0A14022A00150261
:080170002B000B0C430093036C
:080178000F0E41002D00AD0245
:080180004100190037000A02DA
:0801880033000B0234000D02EC
:080190003500080C36001000D8
:080198000C09200C24003602C2
:0801A0004306EA0A17022A00D7
:0801A80018022B000B0C4300B0
:0801B00096030F0E41002D0023
:0801B800AD02410019003700FF
:0801C0000A0233000B023400B7
:0801C8000D023500080C3600A1
:0801D00010000C092C0C810049
:0801D8000307EA0A640C24008D
:0801E00000022900EA0C2000D6
:0801E800010C2A00F70AF80AD5
:0801F000EA02F60AE403F00A3A
:0801F800EA0C2900AC02300CF6
:08020000240000022A00A40200
:0802080000022B00A402040215
:080210002F001900680C3700F3
:08021800DA0C35000A02330084
:080220000B02340010000C0970
:080228000F022400400C8400C9
:080230000307010BEA0C290091
:08023800060C810043071C0BBA
:08024000B80C8C000307530AFF
:08024800100C24001209FF0C48
:080250002900FF0C81000307E7
:08025800290B060C810043078D
:080260002D0B050C2C00120906
:0802680019022E000C02AE0089
:08027000E60C2D002D0C4E06DA
:08027800A90C2900AE024100AF
:0802800041000000ED023A0B01
:08028800060C81004307440B42
:08029000EC02330B1209FF0C14
:080298002900FF0C810003079F
:0802A0004D0B060C8100430721
:0802A800510B1C0C2C00120983
:0802B0000A0C2900FF0C81007B
:0802B80003075A0B060C81003C
:0802C00043075E0BEC02570B33
:0802C80010000209260C2C00B5
:0802D0001209EA0C2900FF0CE1
:0802D800810003076B0B060C0B
:0802E000810043076F0BEC02E3
:0402E800680B520A43
:08040000600CD30103060D009E
:0804080014028C0003070D0033
:080410002A0016028A0003060F
:080418000D00970C930003078F
:080420004F0A0A0C43000A0216
:08042800D5014100000D43065F
:080430000D002E0017022D0043
:08043800600CD30124000D0249
:08044000EE062000E4030206B1
:080448000D00CE062000E403C4
:0804500002070D00AE062000BA
:08045800E40302060D008E060C
:080460002000E40302070D0077
:080468006E062000E403020609
:080470000D004E062000E4031C
:0804780002070D002E06200012
:08048000E40302060D000E0664
:0804880020000D0014028C009D
:0804900003070D002A0016020B
:080498008A0003060D000A0CA6
:0804A00043000A02D5014100EE
:0804A800000D43060D002E00BB
:0804B00017022D00600CD301BE
:0804B80024000D02EE062000F5
:0804C000A402CE062000A402F4
:0804C800AE062000A4028E061E
:0804D0002000A4026E062000CA
:0804D800A4024E062000A4025C
:0804E0002E062000A4020E0606
:0804E80020000D0011001F0CA3
:0804F0004300400C2500040C40
:0804F80005006600000C06007F
:08050000400C27000F0C07005E
:08050800FF0C08006900000C63
:080510000900C70C0200100CE9
:080518002400E504100C310081
:080520007200000C3C00020C0B
:0805280038007A007B007D0C15
:080530003D00FA0C3E00AA0C8C
:080538003F001A00100C300016
:08054000230C3100AC0C320069
:08054800100C3300640C3400B8
:080550009F0C3500200C360061
:08055800C80C3700920C3800BA
:080560001B001E0C3000960C7C
:080568003100260C3200960C54
:080570003300460C3400960C28
:080578003500360C3600960C2C
:0805800037003E0C3800780C36
:080588003900460C3A00780C22
:080590003B00500C3C00780C0C
:080598003D00560C3E00AA0CC8
:0805A0003F000D00C70C020032
:0805A80069006100100C240041
:0805B000B00210000E09180250
:0805B800F901A90C92000307F0
:0805C000230B1006F10A4C06A2
:0805C800EA0AF50CD10103075A
:0805D000EA0AF1006C06F10AD1
:0805D8003C0C91000306F10A3E
:0805E000B1028C06FC0A1802AE
:0805E8003B0003043B03030484
:0805F0003B037B02020CBB007F
:0805F80011023800030438036E
:0806000003043803030438036E
:08060800B80203043803B80234
:0806100003043803030438035E
:08061800B802BA0218022A0020
:0806200003042A03030C2E0061
:080628000A02AE000E029A0066
:080630000307230B7A00100CF4
:08063800FC01C00C9C0043070B
:08064000230B000C3C001B021F
:08064800F201A90C9200030667
:08065000380B8C06320BFB078E
:08065800320B1002070E000D29
:080660004306FB001002030E2B
:08066800000D4306BB023B0B31
:08067000A90C32007B00180206
:08067800BD000306410BFA0C62
:080680003D001802BE00030654
:08068800470BFA0C3E001802BA
:080690002A001A0030024306A3
:080698005A0B0A02B10003062F
:0806A0005A0B100010093F0E77
:0806A8003100C00CF10110004B
:0806B000100932003302430679
:0806B8006A0B0A02B4000306FC
:0806C0006A0B100010093F0E47
:0806C8003400C00CF401100025
:0806D000100935003602430653
:0806D8007A0B0A02B7000306C9
:0806E0007A0B100010093F0E17
:0806E8003700C00CF7011000FF
:0806F00010093800080C2F006E
:0806F800300C24000A02A000EE
:080700000306840BC80C200065
:08070800020CE401EF027E0B7C
:080710004F0C81000307880B68
:08071800040C2A008F0B900B6A
:08072000EA028E0BC30C02007B
:020728000D00C2
:0808000004022F00100C24007B
:080808005F035F039F06010F6F
:08081000BF06010F7F06010F76
:080818002E003F000F02240036
:080820000E020D00100C2A006D
:0808280087040000A705EC079E
:08083000A7046D036C038705AA
:080838000000EA02140A0D00A1
:080840001F0C4300000C08002E
:080848000E022800E70412096A
:08085000870400000000C7044A
:0808580000006D036C03C705ED
:080860000D001F0C4300FF0C0A
:080868000800E70512098704EE
:080870000000C7046D036C03D6
:0808780008022E000D0025040A
:080880004100410005054100A3
:0808880041000504410041009C
:080890002505100C2A006C0381
:080898006D034507510A0C0530
:0808A000520A0C044100410062
:0808A8000505410041000504B3
:0808B0000000EA024B0A0D00F2
:0814000000000C000C000C00C0
:081408001800380038003C0018
:081410003800180038003C0010
:081418003C0018001000300038
:0814200008000C000C0008009C
:0814280038003C003C003C00D0
:0814300038003C003C003C00C8
:0814380038003800600060007C
:0814400000000C000C001C0070
:081448003C003C003C001800D0
:081450001C003C003C003C00C4
:081458007C006C004C00400018
:0814600008000C000C0038002C
:081468003C003C0038001800B4
:081470003C003C003C003C0084
:081478007C00CC00CC00000058
:0814800000000C000C001C0030
:0814880038003C001C001800B4
:0814900018003C007C00F40090
:08149800C4000600060000007C
:0814A00008000C000C0008001C
:0814A80018003800380038007C
:0814B0003800380078007C00D0
:0814B8007C00080008000C0094
:0814C00000000C000C000C0000
:0814C8001800380038001C0078
:0814D0001800180038003C0070
:0814D80038001800180018008C
:0814E00008000C000C000C00D8
:0814E800380038003C003C0014
:0814F00038001C001C001C0068
:0814F800180030003000300044
:0815000008000C000C001C00A7
:081508003C003C003C003800EF
:081510001C003C003C003C0003
:081518006C00E800C000400077
:0815200000000C000C001C008F
:081528003C003C003C003800CF
:0815300018003C003C003400EF
:08153800F400C600C60000002B
:0815400000000C000C001C006F
:0815480038003C003C001800D3
:0815500018005C00FC00F4002F
:08155800340004000600060047
:0815600008000C000C0008005B
:081568001800380038003C00B7
:081570003800380078007C000F
:081578001C000C000C000C002B
:081580001000100038003800D3
:081588007C007C00FE00FE0067
:081590002F0B000038006C0075
:08159800440044006C0038001F
:0815A0000000690B4400EE009D
:0815A800FE00FE007C007C0047
:0815B00038001000FF00C90023
:0815B800A5009300C900A50085
:0415C0009300FF0095
:061600000000C80AD10A37
:021FFE004F0A88
:08200000F60FFB0FF60FFA0FBB
:08200800F20FFD0FF70FF00FBE
:08201000F70FF20FF70FF40FB8
:08201800F20FFD0FF30FF00FB2
:10202000AA0FCD0FFFFF04ABC40400B4FFFF0000F4
:00000001FF
