:080004001700210A1D00000C89
:08000C003200010C3300780002
:0800140079001C007200780065
:08001C00790002091A00E40456
:08002400000C2900000C09008A
:08002C00050C3200ED0C35005B
:080034001C00760077007C003F
:08003C00400C3D007E00400C69
:080044003F001A005C0C3800BB
:08004C00C40C0200F60C2900AF
:0800540041004100010C3300E2
:08005C00130C3400F402100043
:08006400300AF30210002E0A1D
:08006C00010C3300410000000B
:08007400F3021000380AF00C41
:08007C0029004100030C3300D0
:08008400130C3400F40210001B
:08008C00440AF3021000420ACD
:08009400070C330041000000DD
:08009C00F30210004C0AF60CFF
:0800A4002900410000000000EA
:0800AC00040C330041000000C8
:0800B400F3021000580A1202C9
:0800BC00290041004100010C84
:0800C4003300130C3400F402B8
:0800CC001000650AF3021000A8
:0800D400630A090C330041002E
:0800DC000000F30210006D0AA0
:0800E400F60C290041000000A8
:0800EC000000010C3300130CAD
:0800F4003400F40210007B0A45
:0800FC00F3021000790A020C66
:08010400330041000000F3028A
:08010C001000830A6100F60CEB
:0801140029001A005C0018022A
:08011C0041001C0030001A0034
:08012400050C3300130C34003C
:08012C00F4021000960AF30230
:080134001000940A1C001602E1
:08013C003A0017023B00A00C81
:0801440031001A029801080EB7
:08014C003300F00C7307500CA6
:080154000000100129001D024A
:08015C00FB010306BA021C02BC
:08016400FA01F102A30AF60CF6
:08016C0029001F02F90103063E
:08017400B8021E02F801030CA1
:08017C00FF010306BE02010CA5
:08018400FD010306BC02FF0CA3
:08018C003A00B00C3B001B021D
:08019400F7010306B6021A028E
:08019C00F6011A00830C81003A
:0801A4000307D00A41004100ED
:0801AC00F802280A5C0C38007F
:0801B400F60C29004100410096
:0801BC00010C3300130C3400A8
:0801C400F4021000E20AF3024C
:0801CC001000E00A010C3300F1
:0801D40041000000F3021000DD
:0801DC00EA0AF00C29004100C1
:0801E400030C3300130C34007E
:0801EC00F4021000F60AF30210
:0801F4001000F40A070C3300AF
:0801FC0041000000F3021000B5
:08020400FE0AF60C290041007E
:08020C0000000000040C3300A7
:0802140041000000F30210009C
:08021C000A0B12022900410047
:080224004100010C3300130C32
:08022C003400F4021000170B6E
:08023400F3021000150B090C88
:08023C00330041000000F30251
:0802440010001F0BF60C29004D
:08024C00410000000000010C5C
:080254003300130C3400F40226
:08025C0010002D0BF30210004D
:080264002B0B020C33004100DA
:08026C000000F3021000350B45
:080274006100F60C29001A00DC
:08027C005C005C0C300018026C
:08028400B000100241001C0053
:08028C0030001A0041000000DF
:080294000000040C3300130C00
:08029C003400F40210004F0BC6
:0802A400F30210004D0B090CE0
:0802AC00330041000000F302E1
:0802B4001000570B1C0016029C
:0802BC003A0017023B00A00C00
:0802C40031001A029801080E36
:0802CC003300F00C7307500C25
:0802D4000000100129001D02C9
:0802DC00FB010306BA021C023B
:0802E400FA01F102630BF60CB4
:0802EC0029001F02F9010306BD
:0802F400B8021E02F801FF0C24
:0802FC00FE01FD0CFF010306E9
:08030400BE02FF0CFC01FF0C1E
:08030C00FD010306BC02000C18
:080314003A00500C3B001B02F3
:08031C00F7010306B6021A0204
:08032400F6011A00830C8100B0
:08032C000307940B410041009E
:08033400F802DA0A1100000AC8
:0804000011001A001C002A0C77
:0804080035001A00F60C290072
:0804100041004100010C330022
:08041800130C3400F402110082
:080420000E0AF30211000C0AA0
:08042800010C3300410000004B
:08043000F3021100160AF00CA2
:0804380029004100030C330010
:08044000130C3400F40211005A
:08044800220AF3021100200A50
:08045000070C3300410000001D
:08045800F30211002A0AF60C60
:0804600029004100000000002A
:08046800040C33004100000008
:08047000F3021100360A12022A
:08047800290041004100010CC4
:080480003300130C3400F402F8
:080488001100430AF302110008
:08049000410A090C3300410090
:080498000000F30211004B0A01
:0804A000F60C290041000000E8
:0804A8000000010C3300130CED
:0804B0003400F4021100590AA6
:0804B800F3021100570A020CC7
:0804C000330041000000F302CB
:0804C8001100610A1C001E0C6A
:0804D00095000306F90A0E0C69
:0804D800950003070F0BF60C61
:0804E0002900080C34005B0048
:0804E800120241003000150270
:0804F0003300160CB300F30702
:0804F8007302070C7301B80C3C
:08050000F3011A004100410063
:0805080000000F0C3300130C7E
:080510003400F4021100890A15
:08051800F3021100870A070C31
:08052000330041000000F3026A
:080528001100910A1C001302EE
:0805300030030307F60C29005B
:080538004100410041004100B7
:08054000410041004100A40A42
:08054800F402970AF60C2900E9
:08055000080C34005B00B2024C
:08055800120241003000130201
:0805600030030307F60C29002B
:08056800410041004100410087
:08057000410041004100BC0AFA
:08057800F402AF0AF60C2900A1
:08058000F60C2900080C340000
:080588005B00B2021202410007
:080590003000130230030307E1
:08059800F60C290041004100AE
:0805A00041004100410041004F
:0805A8004100D60AF402C90A61
:0805B00000000000F60C290018
:0605B800020CB200150266
:0805C000010EF201F201F2014B
:0805C8001A00410000000F0CB5
:0805D0003300130C3400F402A7
:0805D8001100EB0AF30211000F
:0805E000E90A090C3300410097
:0805E8000000F3021100F30A08
:0805F000280B1A00F60C29008B
:0805F8000000290C3300130C74
:080600003400F4021100010BAB
:08060800F3021100FF0A090CC6
:08061000330041000000F30279
:080618001100090B280B1A0068
:08062000F60C29004100000066
:0806280000000000290C330062
:08063000130C3400F402110068
:080638001A0BF3021100180B6C
:08064000080C3300410000002A
:08064800F3021100220B280B44
:080650001C00F502050AF00C84
:080658002900C70C020061003B
:080660001D001302F200F2027A
:080668004A0B1A00B203F20173
:080670000F0C72010D0C920049
:080678004306430B000C920045
:080680004306430B470B1D006C
:080688007302B3021A00B20371
:08069000060C32011200000A01
:0808000012001D00300CF9018B
:080808000306B80218021C00EF
:0808100038001D0019021C0054
:0808180039001A00B902110AAF
:080820001C001C0072001A000C
:08082800E4044F0C81000307FA
:08083000150A200C3800F60C3B
:08083800290041004100010C00
:080840003300130C3400F40234
:080848001200230AF302120062
:08085000210A010C33004100F4
:080858000000F30212002B0A5C
:08086000F00C29004100030C1B
:080868003300130C3400F4020C
:080870001200370AF302120026
:08087800350A070C33004100B2
:080880000000F30212003F0A20
:08088800F60C290041000000FC
:080890000000040C33004100DC
:080898000000F30212004B0AFC
:0808A000120229004100410091
:0808A800010C3300130C3400B5
:0808B000F4021200580AF302E1
:0808B8001200560A090C33007E
:0808C00041000000F3021200E8
:0808C800600AF60C2900410052
:0808D00000000000010C3300E0
:0808D800130C3400F4021200BD
:0808E0006E0AF30212006C0A1B
:0808E800020C33004100000086
:0808F000F3021200760AF60C77
:0808F8002900000000002A0C99
:080900003300130C3400F40273
:080908001200830AF302120041
:08091000810AF8021B0A100025
:020918001A0AB9
:08100000000302060104720066
:081008007200720D720E7200FD
:08101000E20072007200C20050
:0810180072007200B2007200C8
:081020007200C200B200920050
:081028009200920D920E92005D
:08103000420D920E9200E20055
:0810380092009200D200920028
:081040009200E200D200C200A0
:08104800C200C20DC20EC2007D
:08105000720DC20EC200520D28
:08105800C20EC200420DC20EDF
:08106000C200520D4200720EA5
:081068007200720D720E72009D
:08107000E20072007200C200F0
:0810780072007200B200720068
:081080007200C200B200420040
:081088004200420D420E42003D
:08109000B20042004200920090
:08109800420042008200420008
:0810A000420092008200C20030
:0810A800C200C20DC20EC2001D
:0810B000720DC20EC200520DC8
:0810B800C20EC200420DC20E7F
:0810C000C200520D4200720E45
:0810C8007200720D720E72003D
:0810D000E20072007200C20090
:0810D80072007200B200720008
:0810E0007200C200B200E20040
:0810E800E200E20DE20EE2005D
:0810F000920DE20EE200720D08
:0810F800E20EE200620DE20EBF
:08110000E200720D6200420ED4
:081108004200420D420E4200BC
:08111000B2004200420092000F
:08111800420042008200420087
:08112000420092008200C200AF
:08112800C200C20DC20EC2009C
:08113000720DC20EC200520D47
:08113800C20EC200420DC20EFE
:08114000C200520D4200720EC4
:081148007200720D720E7200BC
:08115000E20072007200C2000F
:0811580072007200B200720087
:081160007200C200B200E200BF
:08116800E200E20DE20EE200DC
:08117000920DE20EE200720D87
:08117800E20EE200620DE20E3E
:08118000E200720D6200720E24
:081188007200720D720E72007C
:08119000E20072007200C200CF
:0811980072007200B200720047
:0811A0007200C200B2009200CF
:0811A8009200920D920E9200DC
:0811B000420D920E9200E200D4
:0811B80092009200D2009200A7
:0811C0009200E200D200C2001F
:0811C800C200C20DC20EC200FC
:0811D000720DC20EC200520DA7
:0811D800C20EC200420DC20E5E
:0811E000C200520D4200720E24
:0811E8007200720D720E72001C
:0811F000E20072007200C2006F
:0811F80072007200B2007200E7
:081200007200C200B20072008E
:081208007200720D720E7200FB
:08121000E20072007200C2004E
:0812180072007200B2007200C6
:081220007200C200B20092004E
:081228009200920D920E92005B
:08123000420D920E9200E20053
:0812380092009200D200920026
:081240009200E200D200C2009E
:08124800C200C20DC20EC2007B
:08125000720DC20EC200520D26
:08125800C20EC200420DC20EDD
:08126000C200520D4200720EA3
:081268007200720D720E72009B
:08127000E20072007200C200EE
:0812780072007200B200720066
:081280007200C200B20072000E
:081288007200720D720E72007B
:08129000E20072007200C200CE
:0812980072007200B200720046
:0812A0007200C200B2009200CE
:0812A8009200920D920E9200DB
:0812B000420D920E9200E200D3
:0812B80092009200D2009200A6
:0812C0009200E200D200C2001E
:0812C800C200C20DC20EC200FB
:0812D000720DC20EC200520DA6
:0812D800C20EC200420DC20E5D
:0812E000C200520D4200720E23
:0812E8007200720D720E72001B
:0812F000E20072007200C2006E
:0812F80072007200B2007200E6
:081300007200C200B20072008D
:081308007200720D720E7200FA
:08131000E20072007200C2004D
:0813180072007200B2007200C5
:081320007200C200B20092004D
:081328009200920D920E92005A
:08133000420D920E9200E20052
:0813380092009200D200920025
:081340009200E200D200C2009D
:08134800C200C20DC20EC2007A
:08135000720DC20EC200520D25
:08135800C20EC200420DC20EDC
:08136000C200520D4200720EA2
:081368007200720D720E72009A
:08137000E20072007200C200ED
:0813780072007200B200720065
:081380007200C200B200000C73
:08138800000300060204B00D91
:081390001C009200B2009C0059
:0813980040001400C0001C001D
:0813A000B200C200BC007C0099
:0813A800E80E980DB40070007E
:0813B000100044009800B40095
:0813B800E00E1000E400B80D86
:0813C0007400EC0EB40DC40032
:0813C800900020009800B40021
:0813D0007000100044009800B9
:0813D800B400E00E1000E40077
:0813E000B80D7400EC0EB40D11
:0813E800C400E0002000B00089
:0813F0001C009200B2009C00F9
:0813F80040001400C0001C00BD
:08140000B200C200BC00700044
:081408001400B0001C0092006A
:08141000B2009C004000140032
:08141800C0001C00B200C2007C
:08142000BC007C00E80EB20DD7
:081428007200E20EB200B20DE9
:081430007200E20EB200B20DE1
:081438007200B200C200B20014
:081440007200E20EB200B20DD1
:0814480092004200D20EB20D29
:0814500092004200D20EB20D21
:081458009200B200C200B200D4
:0814600072004200D20EC20D21
:0814680072004200C20EC20D29
:0814700072004200C20EC20D21
:081478007200C200E200C20094
:0814800072004200C20E720D61
:08148800E20EC200B200720D79
:08149000E20EC200B200720D71
:08149800E20E720D92007200D9
:0814A000E20EC200B200B20D21
:0814A8007200E20EB200B20D69
:0814B0007200E20EB200B20D61
:0814B8007200B200C200B20094
:0814C0007200E20EB200B20D51
:0814C80092004200D20EB20DA9
:0814D00092004200D20EB20DA1
:0814D8009200B200C200B20054
:0814E00072004200D20EC20DA1
:0814E80072004200C20EC20DA9
:0814F00072004200C20EC20DA1
:0814F8007200C200E200C20014
:0815000072004200C20E720DE0
:08150800E20EC200B200720DF8
:08151000E20EC200B200720DF0
:08151800E20E720D9200720058
:08152000E20EC200B200000C53
:02152800000CB5
:0816000063001C003C006300C4
:081608003E007E003600630085
:0816100003001C0003001E0092
:081618003E007B003C0077005E
:081620006300600063003E005E
:081628003F0063001C001E00DE
:081800000700070007000700C4
:081808000700070007000800BB
:081810000800080008000800B0
:081818000800090009000900A5
:0818200009000900090009009C
:0818280009000A000A000A0091
:081830000A000A000A000A0088
:081838000A000A000B000B007E
:081840000B000B000B000B0074
:081848000B000B000B000B006C
:081850000C000C000C000C0060
:081858000C000C000C000C0058
:081860000C000C000D000D004E
:081868000D000D000D000D0044
:081870000D000D000D000D003C
:081878000D000D000E000E0032
:081880000E000E000E000E0028
:081888000E000E000E000E0020
:081890000E000E000E000F0017
:081898000F000F000F000F000C
:0818A0000F000F000F000F0004
:0818A8000F000F000F000F00FC
:0818B0000F000F000F000F00F4
:0218B8000F001F
:081C00000B0C300065045207D3
:081C0800070A8505080A85049E
:081C10004100410041004100C8
:081C1800650541004100410097
:081C2000410073037203F0029E
:081C2800020A650441004100BD
:081C300041004100A50541003F
:081C3800410041004100A50438
:081C40000D00400C2500040C0E
:081C480005001B00E405000C7F
:081C50003000000C3100080C0B
:081C5800F10172007300040C9D
:081C60003400010C3500C30C37
:081C68003600010C3700080CE6
:081C7000F70178007900040C73
:081C78003A00010C3B000D00D5
:081C80001B00E405000C3F000D
:081C8800F402B70A040C340059
:081C9000F502B70A110243003E
:081C9800100241003C00420073
:081CA0003D00010CF0010306F8
:081CA800B1020F0C7D0143079E
:081CB0005A0A670A0D0C9D00A1
:081CB8004307610A0C0CF20164
:081CC000670A0E0C9D004307AA
:081CC800800A0C0CB2001F059C
:081CD0001C020F0E3500430752
:081CD800760A1102430010021C
:081CE00041003500010CF00188
:081CE8000306B102F00C7301C8
:081CF0003C033C033C033C03F0
:081CF8001C020F0E3301B70AB4
:081D0000030C9D0043078C0A4F
:081D080003045C033C00DC0154
:081D10003200D201F2014A0A7F
:081D1800040C9D0043079D0A25
:081D20000F0C73011C02070EF9
:081D28003E007E037E037E03F2
:081D30007E031E02F00E3301D8
:081D38004A0A080C9D00430754
:081D4000A40A0C0CF2014A0A8E
:081D4800090C9D004307AB0AE2
:081D50000C0CB2004A0A0C0C55
:081D58009D004307B60A030CCD
:081D60003000000C3100080CFA
:081D6800F1014A0A4A0AFA00DF
:081D700043072C0B040C3A00A0
:081D7800FB0043072C0B1702CE
:081D80004300160241003C0083
:081D880042003D00010CF601D0
:081D90000306B7020F0C7D01F0
:081D98004307CF0ADC0A0D0C21
:081DA0009D004307D60A0C0C5C
:081DA800F801DC0A0E0C9D009D
:081DB0004307F50A0C0CB80012
:081DB8009F051C020F0E3B0009
:081DC0004307EB0A1702430080
:081DC800160241003B00010C72
:081DD000F6010306B702F00C56
:081DD80079013C033C033C03CC
:081DE0003C031C020F0E390147
:081DE8002C0B030C9D004307C6
:081DF000010B03045C033C003D
:081DF800DC013800D801F801FC
:081E0000BF0A040C9D0043071A
:081E0800120B0F0C79011C0202
:081E1000070E3E007E037E0375
:081E18007E037E031E02F00EA2
:081E20003901BF0A080C9D0006
:081E28004307190B0C0CF80133
:081E3000BF0A090C9D004307E5
:081E3800200B0C0CB800BF0ADE
:081E40000C0C9D0043072B0B65
:081E4800C60C3600010C370046
:081E5000080CF701BF0ABF0AEC
:081E5800C00C1A003300000C5D
:081E6000320000091B001F07FE
:081E6800430B13023E003E0390
:081E70003E033E033E031E0287
:081E7800070E100D1A003300E3
:081E8000010C320000091B00F7
:081E88009F07540B19023E00F4
:081E90003E033E033E033E0346
:081E98001E02070E400D1A00A6
:081EA0003300010C32000009BF
:081EA8001B001F075F0B130272
:081EB0000F0ED2011A003300ED
:081EB800020C320000091B00BE
:081EC0009F076B0B19020F0EC6
:081EC800D801400D1A0033009F
:081ED000020C320000090D00B4
:021FFE00040AD3
:08200000F60FFD0FF60FF90FBA
:08200800F60FF30FF70FF00FC4
:08201000F60FFC0FF60FF10FB3
:08201800F60FFE0FF60FF50FA5
:10202000AA0FFF0FFFFF04ABC40400B4FFFF0000C2
:00000001FF
