:080004001700210A1700590A38
:08000C001D00000C3200010C84
:0800140033001C007200020918
:08001C001A00E404000C2900A5
:08002400000C0900050C32007C
:08002C00ED0C3500C00C38009A
:08003400C40C0200F60C2900C7
:08003C0041004100010C3300FA
:08004400130C3400F40210005B
:08004C00240AF3021000220A4D
:08005400010C33004100000023
:08005C00F30210002C0AF00C65
:0800640029004100030C3300E8
:08006C00130C3400F402100033
:08007400380AF3021000360AFD
:08007C00070C330041000000F5
:08008400F3021000400AF60C23
:08008C00290041000000000002
:08009400040C330041000000E0
:08009C00F30210004C0A050CF0
:0800A400290041004100010C9C
:0800AC003300130C3400F402D0
:0800B4001000590AF3021000CC
:0800BC00570A090C3300410052
:0800C4000000F3021000610AC4
:0800CC00F60C290041000000C0
:0800D4000000010C3300130CC5
:0800DC003400F40210006F0A69
:0800E400F30210006D0A020C8A
:0800EC00330041000000F302A3
:0800F4001000770A61001C00F6
:0800FC00F60C2900640C310030
:08010400560C240000028404E3
:08010C0020008405A4025A0C36
:0801140084000307840A1A00AD
:08011C00060C3300130C340043
:08012400F4021000920AF3023C
:08012C001000900A050C3300DD
:0801340041000000F30210007D
:08013C009A0A1C00010C3400BA
:08014400200C35001D02F7013B
:08014C001C020306D401DA01D4
:08015400F6011F02F9011E0271
:08015C000306D501DB01F801E7
:0801640016021F0E18015C00D9
:08016C00410029000000F1022E
:08017400A40AF60C29001D008D
:08017C00010C3000200C3400DE
:080184001D02F7011C02030635
:08018C00D001DA01F6011F02A7
:08019400F9011E020306D4016B
:08019C00DB01F8011A00830CDD
:0801A40081000307D10A4100AC
:0801AC004100F8021C0A1100D9
:0201B400000A3F
:0804000011001C00220C350064
:080408001A00F60C2900410066
:080410004100010C3300130C44
:080418003400F40211000D0A8A
:08042000F30211000B0A010CAC
:08042800330041000000F30263
:080430001100150AF00C29006F
:080438004100030C3300130C1A
:080440003400F4021100210A4E
:08044800F30211001F0A070C6A
:08045000330041000000F3023B
:080458001100290AF60C29002D
:08046000410000000000040C43
:08046800330041000000F30223
:080470001100350A12022900F7
:0804780041004100010C3300BA
:08048000130C3400F40211001A
:08048800420AF3021100400AD0
:08049000090C330041000000DB
:08049800F30211004A0AF60C00
:0804A0002900410000000000EA
:0804A800010C3300130C3400B9
:0804B000F4021100580AF302E6
:0804B8001100560A020C33008A
:0804C00041000000F3021100ED
:0804C800600A1C001E0C9500E7
:0804D0000306F80A0E0C95006A
:0804D80003070E0BF60C2900CE
:0804E000080C34005B0012025D
:0804E800410030001502330051
:0804F000160CB300F3077302C0
:0804F800070C7301B80CF301BD
:080500001A0041004100000057
:080508000F0C3300130C34004A
:08051000F4021100880AF30255
:080518001100860A070C3300F4
:0805200041000000F30211008C
:08052800900A1C0013023003CD
:080530000307F60C290041004D
:080538004100410041004100B7
:0805400041004100A30AF4028E
:08054800960AF60C2900080CCC
:0805500034005B00B20212024C
:080558004100300013023003E2
:080560000307F60C290041001D
:08056800410041004100410087
:0805700041004100BB0AF40246
:08057800AE0AF60C2900F60C96
:080580002900080C34005B00A7
:08058800B20212024100300032
:08059000130230030307F60C0F
:0805980029004100410041006F
:0805A00041004100410041004F
:0805A800D50AF402C80A0000A4
:0805B0000000F60C2900020C0A
:0405B800B200150276
:0805BE00010EF201F201F2014D
:0805C6001A00410000000F0CB7
:0805CE003300130C3400F402A9
:0805D6001100EA0AF302110012
:0805DE00E80A090C330041009A
:0805E6000000F3021100F20A0B
:0805EE00270B1A00F60C29008E
:0805F6000000290C3300130C76
:0805FE003400F4021100000BAF
:08060600F3021100FE0A090CC9
:08060E00330041000000F3027B
:080616001100080B270B1A006C
:08061E00F60C29004100000068
:0806260000000000290C330064
:08062E00130C3400F40211006A
:08063600190BF3021100170B70
:08063E00080C3300410000002C
:08064600F3021100210B270B48
:08064E001C00F502040AF00C87
:080656002900C70C020061003D
:08065E001D001302F200F2027C
:08066600490B1A00B203F20176
:08066E000F0C72010D0C92004B
:080676004306420B000C920048
:08067E004306420B460B1D0070
:080686007302B3021A00B20373
:08068E00060C32011200000A03
:0808000012001D0015021C008E
:0808080034005D001402410000
:080810003F007E00400CF401E2
:080818005D00140241003D00E7
:080820007C001C021D003E00DB
:080828001C001D021D003F0031
:080830001C001E021D003C002B
:080838001C001F021D003D0021
:080840007C02BC027D02010CE8
:08084800FD010306BC021502CC
:080850003000570010024100C6
:080858003600580010024100B7
:080860003700590010024100AD
:0808680038005A0010024100A3
:080870003900FF0C3A00FD07FE
:080878007A00E00C3B00FF07D1
:080880007B001C00FF0C3A0094
:08088800FD077A00E00C3B00C3
:08089000FF077B0072001A0053
:08089800B9021902010E1D0056
:0808A000F501000C9500430670
:0808A8005A0A800C950043067A
:0808B0005A0A5B0AB5021000B0
:0808B80004091A00E4044F0CCE
:0808C000810003075F0A200C10
:0808C8003800F60C2900410084
:0808D0004100010C3300130C80
:0808D8003400F40212006D0A65
:0808E000F30212006B0A010C87
:0808E800330041000000F3029F
:0808F0001200750AF00C29004A
:0808F8004100030C3300130C56
:080900003400F4021200810A28
:08090800F30212007F0A070C44
:08091000330041000000F30276
:080918001200890AF60C290007
:08092000410000000000040C7E
:08092800330041000000F3025E
:080930001200950A050C2900D4
:0809380041004100010C3300F5
:08094000130C3400F402120054
:08094800A20AF3021200A00A4A
:08095000090C33004100000016
:08095800F3021200AA0AF60CDA
:08096000290041000000000025
:08096800010C3300130C3400F4
:08097000F4021200B80AF302C0
:080978001200B60A020C330064
:0809800041000000F302120027
:08098800C00AF60C2900000072
:0809900000002A0C3300130CD7
:080998003400F4021200CD0A44
:0809A000F3021200CB0AF80279
:0609A800650A1000180AA8
:080C0000000300041806E400E3
:080C0800340D54007400E40EE9
:080C1000C400A4009400700070
:080C18001800F4007400020A48
:080C20007400E400E400C400CC
:080C2800A400940074005400C4
:080C300074009400A400C4004C
:080C3800EC00C4000F0B340DA9
:080C4000C40EE400340D540061
:080C48007400E40EC400A400D6
:080C500074009400A400C80028
:080C5800A400C400E800340D03
:080C6000E40EE400C400A4004E
:080C680094007800A200920044
:080C70007400C800A400C400D8
:080C7800E400340D5400740087
:080C8000E40EC400A40094007E
:080C880070001800F400000CDC
:080C90000003010418065400E2
:080C98009400A400A4009800E0
:080CA0006800F400E80E340DB9
:080CA800EC0E0008F4007400DA
:080CB000A400A40094007400EC
:080CB800E40E740D5400F40079
:080CC000E40E740D9400AC0079
:080CC80074007400A400A400F4
:080CD00094007400E40E740DA1
:080CD8005400F400E40E740D59
:080CE0009400AC00F400700068
:080CE8001000C800980078001C
:080CF000940074005800580044
:080CF80058007400540098003C
:080D00006800E80E720D5200BC
:080D080034009800740094000F
:080D100054009400A400A400AB
:080D180098006800F400E80EE9
:080D2000340DEC0E0008000C7C
:080D2800000300040006A40012
:080D3000C400E400340D680E5C
:080D3800E8007800E8007C00EF
:080D4000F400020A7000180023
:080D4800F80070001800F8002B
:080D5000070BC800E800500D7C
:080D58001000E00E1000F8008D
:080D600074009400A0001000D3
:080D68006800E8007800380083
:080D70009200720054007400AF
:080D78009400A400C400E40093
:080D8000340D680EE80070005C
:060D88001800F400000C4D
:080E00000C000C000D000E00B7
:080E08000F00100011001200A0
:080E1000130014001500160088
:080E1800180018001A001B006D
:080E20001C001D001E001F0054
:080E28000000020003000400B9
:080E30000500060007000800A0
:080E380009000A000B000D0087
:080E40000E000F00100011006C
:080E4800120013001400150054
:080E500016001700180019003C
:080E58001A001B001B001C0026
:080E60001D001E001F00000030
:080E680001000200020003007A
:080E7000030004000500060068
:080E7800060007000700080056
:080E80000900090009000A0045
:080E88000A000B000B000B0037
:080E90000C000C000C000D0029
:080E98000D000D000D000D001E
:080EA0000D000D000E000E0014
:080EA8000E000D000D000D000D
:080EB0000D000D000D000D0006
:080EB8000D000C000C000C0001
:080EC0000C000B000B000A00FE
:080EC8000A000A0009000900FC
:080ED0000800070007000600FE
:080ED800060005000400030000
:080EE000030002000100000004
:080EE80000001F001E001D00A8
:080EF0001D001C001B001A008C
:080EF800190018001700160094
:080F000014001400130012009C
:080F0800110010000F000E00A3
:080F10000C000C000A000A00AD
:080F18000800070006000500B7
:080F20000400030002000100BF
:080F280000001E001D001C006A
:080F30001B001A001900180053
:080F380017001500140013005E
:080F40001200110010000F0067
:080F48000E000D000C000B006F
:080F50000A0009000800070077
:080F580006000500040003007F
:080F6000030002000100000083
:080F68001F001E001E001D0009
:080F70001D001C001B001A000B
:080F78001A001900190018000D
:080F800018001700170016000D
:080F880016001500150014000D
:080F900014001400140013000A
:080F9800130013001300130005
:080FA000120012001200120001
:080FA8001200120012001200F9
:080FB0001300130013001300ED
:080FB8001300140014001400E2
:080FC0001400150015001600D5
:080FC8001600160017001700C7
:080FD0001800180019001A00B6
:080FD8001A001B001B001C00A5
:080FE0001D001E001E001F0091
:080FE8000000010002000200FC
:080FF0000300040005000600E7
:080FF8000700080009000A00CF
:081000005A005A007A003A0080
:081008005A007A006C008C0014
:08101000DE009E00F000B000BC
:081018000200F400460038005C
:081020008A007C00CE00C00034
:08102800B200360028001A0096
:081030009E009000B400A60030
:08103800CA00EE00E000040014
:0810400028004C007000340090
:0810480058007C004000640028
:0810500028007E0042000600AA
:081058005C002000E400DA0056
:081060009E00940058004E00B0
:08106800120008006C00620098
:08107000C600BC00520016008E
:08107800AC004200A6003C00A0
:0810800000003600CC00300036
:08108800C6005C006000F600E8
:081090002C009000C6002A00AC
:08109800600064009A009E0054
:0810A000D400D8000E0012007C
:0810A8001600EC00F000F4005A
:0810B000CA00CE0072007600B8
:0810B8001A00BE00C200660030
:0810C0000A00AE005200C4005A
:0810C80068000C007E0022000C
:0810D0009400D8004A00BC00A6
:0810D80000007200E400F600C4
:0810E00068007A00EC00FE003C
:0810E80070008200C200D40078
:0810F000140026000600780040
:0810F800580038007800580090
:08110000780078005800980007
:08110800780058006600460063
:08111000F4003400E2002200AB
:08111800D000DE008C009A00FB
:08112000480056000400120013
:0811280020009C00AA00B800A1
:08113000340042001E002C00F7
:081138000800E400F200CE0003
:08114000AA00860062009E0077
:081148007A00560092006E00CF
:08115000AA0054009000CC003D
:081158007600B200EE00F80081
:0811600034003E007A00840017
:08116800C000CA00660070001F
:081170000C0016008000BC0019
:08117800260090002C009600F7
:0811800032009C000600A200F1
:081188000C0076007200DC008F
:08119000A60042000C00A800BB
:0811980072006E003800340003
:0811A000FE00FA00C400C000CB
:0811A800BC00E600E200DE00DD
:0811B0000800040060005C006F
:0811B800B800140010006C00E7
:0811C000C800240080000E00AD
:0811C8006A00C6005400B000EB
:0811D0003E00FA008800160041
:0811D800D2006000EE00DC0013
:0811E0006A005800E600D4008B
:0811E800620050001000FE003F
:0811F000BE00AC00CC005A0067
:0811F8007A009A005A007A0007
:081200006000400040002000E6
:08120800200000000000E000DE
:08121000E000E000C000C00096
:08121800C000C000C000A000EE
:08122000A000A000A000A00046
:08122800A000A000A000A0003E
:08123000A000A000C000C000F6
:08123800C000E000E000E0004E
:08124000000000000000200086
:081248002000400040004000BE
:0812500060008000A000A00076
:08125800C000E000E00000000E
:08126000200040006000800046
:081268008000A000C000E000BE
:081270000000200040006000B6
:081278008000A000C00000008E
:08128000000020006000800066
:08128800A000C000E00000001E
:08129000400060008000A00096
:08129800C0000000200040002E
:0812A0006000A000C000E000A6
:0812A80000004000600080001E
:0812B000A000E0000000200096
:0812B80040008000A000C0000E
:0812C000E000000020004000E6
:0812C8008000A000C000E0005E
:0812D000000020004000600056
:0812D8008000C000C000E0002E
:0812E000000020004000600046
:0812E8008000A000C000E0003E
:0812F000E000000020004000B6
:0812F80040006000800080004E
:08130000A000A000C000C00025
:08130800E000E000000000001D
:08131000000020002000200075
:081318002000400040004000ED
:08132000400040006000600085
:0813280040006000400040009D
:081330004000400040004000B5
:0813380020002000200000004D
:0813400000000000E000E000E5
:08134800E000C000A000A000BD
:081350008000800060006000D5
:08135800400020000000E0004D
:08136000C000C000A0008000E5
:0813680060006000400020005D
:081370000000E000A000A00055
:081378006000400020000000AD
:08138000E000C000A0008000A5
:08138800600040000000E000DD
:08139000C000A0006000400055
:0813980020000000E000A000AD
:0813A000800060004000200005
:0813A800E000C000A00060009D
:0813B000400020000000E000F5
:0813B800A0008000600040006D
:0813C0002000E000C000A000C5
:0813C8008000600040000000FD
:0813D000E000C000A000800055
:0813D80060004000200000004D
:0813E000E000C000C000A00005
:0813E8008000600040002000BD
:0813F0000000E000E000C00075
:0813F800A000A00080006000CD
:081400000000FC006600D000B2
:081408003A00A4006E00D800B8
:08141000A2000C00D600A000B0
:081418009C0066003000FA00A0
:08142000F600C0008A008600FE
:08142800B0007A00D600A0001C
:08143000FC00C60022007E0052
:08143800A80004006000BC00E4
:0814400018007400D0002C001C
:0814480088004400A000FC0034
:08145000EA00460034009000A0
:081458007E003A00C800B60056
:08146000A400320020000E0080
:08146800FC008A007800660018
:08147000860074009400820064
:08147800A200C200E200020024
:081480009000E20002002200CE
:0814880042006200B400D40030
:08149000260046009800EA0066
:08149800DC002E008000D200F0
:0814A000C400160068005A00A8
:0814A800DE0030005400A60034
:0814B000CA001C0040006400AA
:0814B800E8000C0030005400B4
:0814C00078009C00C000E4006C
:0814C80008005E008200A6008E
:0814D0009C00C000B600DA0028
:0814D800D0002600EA00E0004C
:0814E000D6009A00900086007E
:0814E8007C00400036002C00DE
:0814F000C200B8004E004400E8
:0814F800DA00700006009C0000
:08150000000096002C00C2005F
:081508005800EE002400BA00B7
:08151000F0008600BC00F200AF
:08151800F6002C0062009800AF
:081520009C00D20008000C0041
:08152800E2001800BC00F20013
:081530009600CC0070001400CD
:08153800EA008E003200D6002B
:081540007A001E00C2006600E3
:081548000A004E00F2009600BB
:08155000A8004C005E0002003F
:0815580014005800CA00DC0079
:08156000EE006000720084003F
:08156800960008001A002C0097
:081570000C001E00FE0010003B
:08157800F000D000B00090006B
:08158000D000B00090007000E3
:0815880050003000DE00BE003F
:081590006C004C00FA00A800F9
:08159800B60064001200C0005F
:0815A000CE007C002A00380097
:0815A800B40062003E00EC00FB
:0815B000C800760052002E0075
:0815B800AA00860062003E005B
:0815C0001A00F600D200AE0093
:0815C8008A0034001000EC0061
:0815D000F600D200DC00B800B7
:0815D800C2006C00A800B20083
:0815E000BC00F80002000C0041
:0815E800160052005C006600D1
:0815F000D000DA0044004E00B7
:0815F800B80022008C00F6008F
:0816000063001C003C006300C4
:081608003E007E003600630085
:0816100003001C0003001E0092
:081618003E007B003C0077005E
:081620006300600063003E005E
:081628003F0063001C001E00DE
:081800007A00F600F600F60084
:081808007A00F600F6007A00F8
:081810007A007A00F600F600F0
:08181800F6007A007A007A0064
:08182000F600F600F6008A0054
:08182800F600F600F6008A004C
:08183000F6008A008A008A001C
:081838008A00F600F600F6003C
:081840007B00F600F600F60043
:081848007B00F6007B00F600B6
:08185000F600F6007B00F60033
:081858007B00F600F600F6002B
:081860007B00F600F6008B008E
:081868008B00F6008B008B00E1
:08187000F6008B00F600F60003
:08187800F600F600F600F60090
:08188000F6007C00F6007C007C
:08188800F600F6007C00F600FA
:08189000F600F600F600F60078
:081898007C00F600F600F600EA
:0818A000F600F600F6008C00D2
:0818A800F6008C00F6008C0034
:0818B000F6008C00F600F600C2
:0818B800F600F600F600F60050
:0818C000F600F6007D00F600C1
:0818C800F600F6007D00F600B9
:0818D0007D007D007D00F600A3
:0818D800F6007D007D007D009B
:0818E000F600F600F6008D0091
:0818E800F6008D00F6008D00F2
:0818F000F6008D008D008D0053
:0818F800F600F600F600F60010
:08190000F6007C00F6007C00FB
:08190800F600F6007C00F60079
:08191000F600F6007C00F60071
:08191800F600F600F600F600EF
:081920007C00F600F6008C00CB
:08192800F600F600F6008C0049
:08193000F6008C00F600F60041
:08193800F600F600F600F600CF
:081940007B00F600F600F60042
:081948007B00F6007B00F600B5
:08195000F600F6007B00F60032
:081958007B00F600F600F6002A
:081960007B00F600F6008B008D
:08196800F600F600F6008B000A
:08197000F6008B00F600F60002
:08197800F600F600F600F6008F
:081980007A00F600F600F60003
:081988007A00F600F6007A0077
:081990007A007A00F600F6006F
:08199800F6007A007A007A00E3
:0819A000F600F600F6008A00D3
:0819A800F600F600F6008A00CB
:0819B000F6008A008A008A009B
:0819B8008A00F600F600F600BB
:0819C000F600F600F600F60047
:0819C800F600F600F600F6003F
:0819D000F600F600F600F60037
:0819D800F600F600F600F6002F
:0819E000F600F600F600F60027
:0819E800F600F600F600F6001F
:0819F000F600F600F600F60017
:0819F800F600F600F600F6000F
:081A00000000020005000800CF
:081A08000B000E001100140098
:081A100017001A001D00200060
:081A18002200250028002B002C
:081A20002D00300033003500F9
:081A280038003B003D004000C6
:081A3000420045004700490097
:081A38004C004E00500052006A
:081A40005400560058005A0042
:081A48005C005E00600062001A
:081A50006300650066006800F8
:081A580069006B006C006D00D9
:081A60006E006F0070007100C0
:081A68007200730074007500A8
:081A7000750076007600770096
:081A780077007700770077008A
:081A8000780077007700770081
:081A880077007700760076007C
:081A900075007500740073007D
:081A98007200710070006F0084
:081AA0006E006D006C006B008C
:081AA80069006800660065009A
:081AB0006300620060005E00AB
:081AB8005C005A0058005600C2
:081AC0005400520050004E00DA
:081AC8004C00490047004500F5
:081AD000420040003D003B0014
:081AD800380035003300300036
:081AE0002D002B002800250059
:081AE800220020001D001A007D
:081AF0001700140011000E00A4
:081AF8000B00080005000200CC
:081B00000000FD00FA00F700EF
:081B0800F400F100EE00EB0017
:081B1000E800E500E200DF003F
:081B1800DD00DA00D700D40063
:081B2000D200CF00CC00CA0086
:081B2800C700C400C200BF00A9
:081B3000BD00BA00B800B600C8
:081B3800B300B100AF00AD00E5
:081B4000AB00A900A700A500FD
:081B4800A300A1009F009D0015
:081B50009C009A009900970027
:081B5800960094009300920036
:081B6000910090008F008E003F
:081B68008D008C008B008A0047
:081B70008A0089008900880049
:081B7800880088008800880045
:081B800088008800880088003D
:081B8800880088008900890033
:081B90008A008A008B008C0022
:081B98008D008E008F0090000B
:081BA0009100920093009400F3
:081BA8009600970099009A00D5
:081BB0009C009D009F00A100B4
:081BB800A300A500A700A9008D
:081BC000AB00AD00AF00B10065
:081BC800B300B600B800BA003A
:081BD000BD00BF00C200C4000B
:081BD800C700CA00CC00CF00D9
:081BE000D200D400D700DA00A6
:081BE800DD00DF00E200E50072
:081BF000E800EB00EE00F1003B
:081BF800F400F700FA00FD0003
:081C00000B0C300065045207D3
:081C0800070A8505080A85049E
:081C10004100410041004100C8
:081C1800650541004100410097
:081C2000410073037203F0029E
:081C2800020A650441004100BD
:081C300041004100A50541003F
:081C3800410041004100A50438
:081C40000D00400C2500040C0E
:081C480005001A00E405000C80
:081C50003400000C3500060C05
:081C5800F5017600700C370065
:081C6000040C3800010C3900EE
:081C68007B007F00100CE40179
:081C7000480C3400000C3500A3
:081C7800060CF5017600700C6A
:081C80003700040C3800010CD0
:081C880039007B007F00100C05
:081C9000E401940C3400000C87
:081C98003500060CF501760091
:081CA000700C3700040C380041
:081CA800010C39007B007F00F4
:081CB0000D001A00E4057000AC
:081CB800040C31000E0C320097
:081CC000000C3300F802F90AE0
:081CC80011023800F902F90ACB
:081CD00015024300140241005B
:081CD8003C0042003D00010C3C
:081CE000F4010306B5020F0C2C
:081CE8007D014307780A850A1B
:081CF0000D0C9D0043077F0A63
:081CF8000C0CF601850A0E0C2C
:081D00009D004307A80A0C0C2A
:081D0800B6001F053F041C0298
:081D10003E00F00C7E01F00C16
:081D18009E004307900A3F05FD
:081D20001C020F0E39004307FD
:081D28009E0A1502430014029B
:081D300041003900010CF4012F
:081D38000306B502F00C77016F
:081D40003C033C033C033C039F
:081D48001C020F0E3701F90A1D
:081D5000030C9D004307B40AD7
:081D580003045C033C00DC0104
:081D60003600D601F601680A05
:081D6800040C9D004307C50AAD
:081D70000F0C77011C02070EA5
:081D78003E007E037E037E03A2
:081D80007E031E02F00E370184
:081D8800680A060C9D004307E8
:081D9000CC0A1C023B00680AAA
:081D9800080C9D004307D30A6B
:081DA0000C0CF601680A090CA5
:081DA8009D004307DA0A0C0C50
:081DB000B600680A0A0C9D0050
:081DB8004307E10A1C023A0096
:081DC000680A0B0C9D004307AB
:081DC800ED0AFA004306EC0AE3
:081DD0001C02B4000307F5003A
:081DD800680A0C0C9D00430792
:081DE000F80A1202340013029C
:081DE8003500060CF501680A44
:081DF000680AB002030C900028
:081DF8004306180B020C9000D9
:081E000043060D0B100CE40178
:081E0800010C3000040C310054
:081E1000560C3200000C3300F7
:081E1800620A100CE401020C47
:081E20003000040C3100A00C9D
:081E28003200000C3300620AD5
:081E3000000C3F07200DC40463
:081E3800A40584053F07400DDD
:081E400084043F07800D33000C
:081E4800000C320000091F0725
:081E5000360B17023E003E03B1
:081E58003E033E033E031E029F
:081E6000070E1B013300010C09
:081E68003200000984051F0788
:081E7000480B17023E003E037F
:081E78003E033E033E031E027F
:081E8000070E400D1B01840454
:081E88003300010C32000009D7
:081E9000200CE4011F075C0BAC
:081E980017023E003E033E0369
:081EA0003E033E031E02070E83
:081EA800800D1B01C404A40518
:081EB0003300010C32000009AF
:081EB8001F07650B17020F0E56
:081EC000D6013300020C3200D0
:081EC800000984051F07710BDE
:081ED00017020F0ED601840475
:081ED800400D3300020C320042
:081EE0000009A404C4051F075A
:081EE8007E0B17020F0ED6015C
:081EF0001A00800D3300020C02
:061EF800320000090D009C
:021FFE00060AD1
:08200000F60FFD0FF60FF90FBA
:08200800F60FF30FF70FF20FC2
:08201000F70FFA0FF60FFF0FA6
:08201800F60FFF0FF60FFD0F9C
:10202000AA0FFF0FFFFF04ABC40400B4FFFF0000C2
:00000001FF
