:080004001700210A1700590A38
:08000C001C00000C3000010C87
:0800140031001B00000C350057
:08001C00000C3600000C3E0050
:0800240002091A00E404000CBB
:08002C002900000C0900050C7D
:080034003200ED0C3500C00C98
:08003C003800F60C2900410018
:080044004100010C3300130C14
:08004C003400F4021000270A41
:08005400F3021000250A010C63
:08005C00330041000000F30233
:0800640010002F0AF00C290026
:08006C004100030C3300130CEA
:080074003400F40210003B0A05
:08007C00F3021000390A070C21
:08008400330041000000F3020B
:08008C001000430AF60C2900E4
:08009400410000000000040C13
:08009C00330041000000F302F3
:0800A40010004F0A12022900AE
:0800AC0041004100010C33008A
:0800B400130C3400F4021000EB
:0800BC005C0AF30210005A0A6D
:0800C400090C330041000000AB
:0800CC00F3021000640AF60CB7
:0800D4002900410000000000BA
:0800DC00010C3300130C340089
:0800E400F4021000720AF3029D
:0800EC001000700A020C330041
:0800F40041000000F3021000BE
:0800FC007A0A1B00F60C290032
:08010400640C3D0011023700FC
:08010C00120238001A00000085
:080114000000040C3300130C81
:08011C003400F40210008F0A08
:08012400F30210008D0A090C22
:08012C00330041000000F30262
:080134001000970A1B005D009A
:08013C0019023300070E340024
:08014400030433030304330339
:08014C00030433031302410018
:080154003300D3013300D30195
:08015C003300D3015C00D40163
:0801640041003000080C3300DB
:08016C00EE0C30030307F60C52
:0801740029004100BD0AF3025D
:08017C00B60AF60C29001A0076
:08018400040C330041000000EF
:08018C00F3021000C40A1B007D
:08019400000000000000FE0C59
:08019C00F801B7025A00170236
:0801A400410030001802410087
:0801AC00F00115024100D00131
:0801B4008A0D2900FD02CD0AAD
:0801BC00F60C2900F5001A0001
:0801C400410041000000030CA2
:0801CC00330041000000F302C2
:0801D4001000E70A1B005D00AA
:0801DC001A023300070E340083
:0801E400030433030304330399
:0801EC00030433031302410078
:0801F4003300D3013300D301F5
:0801FC003300D3015C00D401C3
:0802040041003000080C33003A
:08020C002E0C30030307F60C71
:08021400290041000D0BF3026B
:08021C00060BF60C2900B902E3
:08022400BA021A004100040CAB
:08022C003300130C3400F4024E
:080234001000190BF302100089
:08023C00170B090C330041000F
:080244000000F3021000210B81
:08024C00F8021F0A1100000A6C
:0804000011001B00220C380062
:080408001A00F60C2900410066
:080410004100010C3300130C44
:080418003400F40211000D0A8A
:08042000F30211000B0A010CAC
:08042800330041000000F30263
:080430001100150AF00C29006F
:080438004100030C3300130C1A
:080440003400F4021100210A4E
:08044800F30211001F0A070C6A
:08045000330041000000F3023B
:080458001100290AF60C29002D
:08046000410000000000040C43
:08046800330041000000F30223
:080470001100350A12022900F7
:0804780041004100010C3300BA
:08048000130C3400F40211001A
:08048800420AF3021100400AD0
:08049000090C330041000000DB
:08049800F30211004A0AF60C00
:0804A0002900410000000000EA
:0804A800010C3300130C3400B9
:0804B000F4021100580AF302E6
:0804B8001100560A020C33008A
:0804C00041000000F3021100ED
:0804C800600A1B001E0C9800E5
:0804D0000306F90A0E0C980066
:0804D8000307100BF60C2900CC
:0804E000080C37005B001E024E
:0804E80041003000180233004E
:0804F000160CB300F3077302C0
:0804F800070C7301B80CF301BD
:080500001A0041004100000057
:080508000F0C3300130C34004A
:08051000F4021100880AF30255
:080518001100860A070C3300F4
:0805200041000000F30211008C
:08052800900A1B0013023003CE
:080530000307F60C290041004D
:080538004100410041004100B7
:0805400041004100A30AF7028B
:08054800960AF60C2900080CCC
:0805500037005B00BE021E0231
:080558004100300013023003E2
:080560000307F60C290041001D
:08056800410041004100410087
:0805700041004100BB0AF70243
:08057800AE0AF60C2900F60C96
:080580002900080C37005B00A4
:08058800BE021E02410030001A
:08059000130230030307F60C0F
:0805980029004100410041006F
:0805A00041004100410041004F
:0805A800D50AF702C80A0000A1
:0805B0000000F60C2900020C0A
:0405B800BE00180267
:0805BE00010EFE01FE01FE0129
:0805C6004100000000000000EC
:0805CE000F0C3300130C340084
:0805D600F4021100EB0AF3022C
:0805DE001100E90A090C3300C9
:0805E60041000000F3021100C6
:0805EE00F30A270BF60C2900AB
:0805F600000000000000290CC8
:0805FE003300130C3400F40279
:080606001100020BF3021100C8
:08060E00000B090C3300410050
:080616000000F30211000A0BC1
:08061E00270BF60C2900410036
:0806260041000000290C330023
:08062E00130C3400F40211006A
:08063600190BF3021100170B70
:08063E00080C3300410000002C
:08064600F3021100210B270B48
:08064E00F802040AF00C290077
:08065600C70C0200000C21009A
:08065E001C001102F000F00283
:08066600490B1A00B203F20176
:08066E000F0C72010D0C92004B
:080676004306420B000C920048
:08067E004306420B460B1C0071
:080686007102B1021A00B20377
:08068E00060C32011B00FE0CFA
:08069600F101B202020CF601B1
:08069E0016023500000C3E00BD
:0806A600BB02FC001B0239003D
:0806AE001C023A001A001000C2
:0806B60004091A00E4044F0CD2
:0806BE00810003075E0B200C14
:0806C6003800F60C2900410088
:0806CE004100010C3300130C84
:0806D6003400F40211006C0B6A
:0806DE00F30211006A0B010C8C
:0806E600330041000000F302A3
:0806EE001100740BF00C29004F
:0806F6004100030C3300130C5A
:0806FE003400F4021100800B2E
:08070600F30211007E0B070C49
:08070E00330041000000F3027A
:080716001100880BF60C29000C
:08071E00410000000000040C82
:08072600330041000000F30262
:08072E001100940B12022900D6
:0807360041004100010C3300F9
:08073E00130C3400F402110059
:08074600A10BF30211009F0B4F
:08074E00090C3300410000001A
:08075600F3021100A90BF60CDF
:08075E00290041000000000029
:08076600010C3300130C3400F8
:08076E00F4021100B70BF302C5
:080776001100B50B020C330069
:08077E0041000000F30211002C
:08078600BF0BF60C2900000076
:08078E0000002A0C3300130CDB
:080796003400F4021100CC0B49
:08079E00F3021100CA0BF8027E
:0607A600640B10001D0AA7
:0810000000040103180674004E
:08100800E400740D9400740E65
:08101000E400A40D9400740E2D
:08101800E400A40DC400740EF5
:08102000E400A40D9400540E3D
:08102800C400740D9400540E85
:08103000C400A40DC400540E1D
:08103800C400A40DC400540E15
:08104000C400E40DC400000926
:081048007400E400E40DC40093
:08105000740EE400A40D9400ED
:08105800740EE400A40D9400E5
:08106000740EE400A40D9400DD
:08106800540EC400740D940045
:08107000540EC400A40DC400DD
:08107800540EC400C40DA400D5
:08108000540EC400940D54004D
:081088000009000C0104020341
:081090001806020A7400740046
:08109800740D740E7400540D78
:0810A000740E740D00090A0B27
:0810A80054005400940D540E95
:0810B0005400A40D540EC40D00
:0810B800540E5400C40D540E47
:0810C0005400A40D540EC40DF0
:0810C8000009000C0204000302
:0810D0001006020A7800780006
:0810D800F40058007400060B3F
:0810E000020A58005800F40058
:0810E80038005400060B000C57
:081400001F0A1F0A1F0A1F0A40
:081408001F0A1E0A1E0A1E0A3B
:081410001E0A1D0A1D0A1D0A37
:081418001C0A1C0A1B0A1B0A36
:081420001A0A1A0A190A190A36
:08142800180A170A170A160A38
:08143000150A140A140A130A3C
:08143800120A120A110A100A3F
:081440000F0A0E0A0E0A0D0A44
:081448000C0A0B0A0B0A0A0A48
:08145000090A080A080A070A4C
:08145800060A060A050A050A4E
:08146000040A040A030A030A4E
:08146800020A020A010A010A4E
:08147000010A000A000A000A4B
:08147800000A000A000A000A44
:08148000000A000A000A000A3C
:08148800000A000A000A000A34
:08149000010A010A010A020A27
:08149800020A030A030A040A18
:0814A000040A050A050A060A08
:0814A800060A070A080A080AF7
:0814B000090A0A0A0B0A0B0AE3
:0814B8000C0A0D0A0E0A0E0ACF
:0814C0000F0A100A110A120ABA
:0814C800120A130A140A140AA7
:0814D000150A160A170A170A93
:0814D800180A190A190A1A0A80
:0814E0001A0A1B0A1B0A1C0A70
:0814E8001C0A1D0A1D0A1D0A61
:0814F0001E0A1E0A1E0A1E0A54
:0814F8001F0A1F0A1F0A1F0A48
:081500001F0A1F0A1F0A1F0A3F
:081508001F0A1E0A1E0A1E0A3A
:081510001E0A1D0A1D0A1D0A36
:081518001C0A1C0A1B0A1B0A35
:081520001A0A1A0A190A190A35
:08152800180A170A170A160A37
:08153000150A140A140A130A3B
:08153800120A120A110A100A3E
:081540000F0A0E0A0E0A0D0A43
:081548000C0A0B0A0B0A0A0A47
:08155000090A080A080A070A4B
:08155800060A060A050A050A4D
:08156000040A040A030A030A4D
:08156800020A020A010A010A4D
:08157000010A000A000A000A4A
:08157800000A000A000A000A43
:08158000000A000A000A000A3B
:08158800000A000A000A000A33
:08159000010A010A010A020A26
:08159800020A030A030A040A17
:0815A000040A050A050A060A07
:0815A800060A070A080A080AF6
:0815B000090A0A0A0B0A0B0AE2
:0815B8000C0A0D0A0E0A0E0ACE
:0815C0000F0A100A110A120AB9
:0815C800120A130A140A140AA6
:0815D000150A160A170A170A92
:0815D800180A190A190A1A0A7F
:0815E0001A0A1B0A1B0A1C0A6F
:0815E8001C0A1D0A1D0A1D0A60
:0815F0001E0A1E0A1E0A1E0A53
:0815F8001F0A1F0A1F0A1F0A47
:0816000063001C003C006300C4
:081608003E007E003600630085
:0816100003001C0003001E0092
:081618003E007B003C0077005E
:081620006300600063003E005E
:081628003F0063001C001E00DE
:081800000000000000000000E0
:081808000000000000000000D8
:0818100000001C002200220070
:081818003E0022002200220024
:0818200000001E00220022005E
:081828001E00220022001E0038
:0818300000001C002200020070
:081838000200020022001C0066
:0818400000001E00220022003E
:081848002200220022001E0014
:0818500000003E00020002004E
:081858001E00020002003E0028
:0818600000003E00020002003E
:081868001E0002000200020054
:0818700000001C002200020030
:081878003A00220022001C00CE
:081880000000220022002200FA
:081888003E00220022002200B4
:0818900000001C000800080024
:081898000800080008001C0014
:0818A0000000380010001000E8
:0818A8001000100012000C00FA
:0818B0000000220012000A00F2
:0818B80006000A0012002200E4
:0818C00000000200020002001A
:0818C8000200020002003E00D4
:0818D0000000220036002A008E
:0818D8002A0022002200220078
:0818E0000000220026002E008A
:0818E8003A0032002200220048
:0818F00000001C002200220090
:0818F8002200220022001C0066
:0819000000001E00220022007D
:081908001E00020002000200B3
:0819100000001C00220022006F
:0819180022002A0012002C003D
:0819200000001E00220022005D
:081928001E000A00120022005B
:0819300000001C00220002006F
:081938001C00200022001C002D
:0819400000003E000800080051
:08194800080008000800080077
:08195000000022002200220029
:081958002200220022001C0005
:08196000000022002200220019
:08196800220022001400080017
:08197000000022002200220009
:0819780022002A002A001400DD
:08198000000022002200140007
:081988000800140022002200F7
:081990000000220022002200E9
:0819980014000800080008001B
:0819A00000003E0020001000D1
:0819A8000800040002003E00EB
:0819B00000000000000000002F
:0819B8001C000000000000000B
:0819C000000000000C001E00F5
:0819C8001E000C0000000000ED
:0819D00000000000000000000F
:0819D800000000000000000007
:0819E0000000000000000000FF
:0819E8000000000000000000F7
:0819F0000000000000000000EF
:0819F8000000000000000000E7
:081A00000E00140013000300A6
:081A0800000010000C000100B9
:081A100013000D0001000000AD
:081A180006000F00120000009F
:081A200014000800050000009D
:081A28001800070013001B0069
:081A30000D000500000000009C
:081A38001C000000000000008A
:081C00000B0C300065045207D3
:081C0800070A8505080A85049E
:081C10004100410041004100C8
:081C1800650541004100410097
:081C2000410073037203F0029E
:081C2800020A650441004100BD
:081C300041004100A50541003F
:081C3800410041004100A50438
:081C40000D00400C2500040C0E
:081C480005001A00E405000C80
:081C50003400000C3500080C03
:081C5800F5017600700C370065
:081C6000030C3800010C3900EF
:081C68007B007F00100CE40179
:081C7000460C3400000C3500A5
:081C7800080CF5017600700C68
:081C80003700030C3800010CD1
:081C880039007B007F00100C05
:081C9000E401660C3400000CB5
:081C98003500080CF50176008F
:081CA000700C3700030C380042
:081CA800010C39007B007F00F4
:081CB0000D001A00E4057000AC
:081CB800030C3100030C3200A3
:081CC000000C3300F802F90AE0
:081CC80011023800F902F90ACB
:081CD00015024300140241005B
:081CD8003C0042003D00010C3C
:081CE000F4010306B5020F0C2C
:081CE8007D014307780A850A1B
:081CF0000D0C9D0043077F0A63
:081CF8000C0CF601850A0E0C2C
:081D00009D004307A80A0C0C2A
:081D0800B6001F053F041C0298
:081D10003E00F00C7E01F00C16
:081D18009E004307900A3F05FD
:081D20001C020F0E39004307FD
:081D28009E0A1502430014029B
:081D300041003900010CF4012F
:081D38000306B502F00C77016F
:081D40003C033C033C033C039F
:081D48001C020F0E3701F90A1D
:081D5000030C9D004307B40AD7
:081D580003045C033C00DC0104
:081D60003600D601F601680A05
:081D6800040C9D004307C50AAD
:081D70000F0C77011C02070EA5
:081D78003E007E037E037E03A2
:081D80007E031E02F00E370184
:081D8800680A060C9D004307E8
:081D9000CC0A1C023B00680AAA
:081D9800080C9D004307D30A6B
:081DA0000C0CF601680A090CA5
:081DA8009D004307DA0A0C0C50
:081DB000B600680A0A0C9D0050
:081DB8004307E10A1C023A0096
:081DC000680A0B0C9D004307AB
:081DC800ED0AFA004306EC0AE3
:081DD0001C02B4000307F5003A
:081DD800680A0C0C9D00430792
:081DE000F80A1202340013029C
:081DE8003500080CF501680A42
:081DF000680AB002030C900028
:081DF8004306180B020C9000D9
:081E000043060D0B100CE40178
:081E0800010C3000030C310055
:081E1000490C3200000C330004
:081E1800620A100CE401020C47
:081E20003000030C3100690CD5
:081E28003200000C3300620AD5
:081E3000000C3F07200DC40463
:081E3800A40584053F07400DDD
:081E400084043F07800D33000C
:081E4800000C320000091F0725
:081E5000360B17023E003E03B1
:081E58003E033E033E031E029F
:081E6000070E1B013300010C09
:081E68003200000984051F0788
:081E7000480B17023E003E037F
:081E78003E033E033E031E027F
:081E8000070E400D1B01840454
:081E88003300010C32000009D7
:081E9000200CE4011F075C0BAC
:081E980017023E003E033E0369
:081EA0003E033E031E02070E83
:081EA800800D1B01C404A40518
:081EB0003300010C32000009AF
:081EB8001F07650B17020F0E56
:081EC000D6013300020C3200D0
:081EC800000984051F07710BDE
:081ED00017020F0ED601840475
:081ED800400D3300020C320042
:081EE0000009A404C4051F075A
:081EE8007E0B17020F0ED6015C
:081EF0001A00800D3300020C02
:061EF800320000090D009C
:021FFE00060AD1
:08200000F60FFD0FF60FF90FBA
:08200800F60FF30FF70FF00FC4
:08201000F60FFC0FF70FF30FB0
:08201800F60FFD0FF60FF10FAA
:10202000AA0FFF0FFFFF04ABC40400B4FFFF0000C2
:00000001FF
