:080004001700210A1700590A38
:08000C001D00000C3200010C84
:0800140033000A0C30000A0C55
:08001C003500100C34001C003B
:080024007200010C3900020911
:08002C001A00E404000C290095
:08003400000C0900050C32006C
:08003C00ED0C35001C00000C66
:080044003B001A00240C3800F7
:08004C00F60C290041004100FF
:08005400010C3300130C340011
:08005C00F40210002E0AF30269
:0800640010002C0A010C33000E
:08006C0041000000F302100046
:08007400360AF00C29004100DE
:08007C00030C3300130C3400E7
:08008400F4021000420AF3022D
:08008C001000400A070C3300CC
:0800940041000000F30210001E
:08009C004A0AF60C290041009C
:0800A40000000000040C330011
:0800AC0041000000F302100006
:0800B400560A050C2900410069
:0800BC004100010C3300130C9C
:0800C4003400F4021000630A8D
:0800CC00F3021000610A090CA7
:0800D400330041000000F302BB
:0800DC0010006B0AF60C29006C
:0800E400410000000000010CC6
:0800EC003300130C3400F40290
:0800F4001000790AF30210006C
:0800FC00770A020C33004100F9
:080104000000F3021000810A63
:08010C00A80C2900000000000E
:080114002A0C3300130C340027
:08011C00F40210008E0AF30248
:0801240010008C0AF802260A03
:08012C00780C3800C40C02003D
:08013400F60C29004100410016
:08013C00010C3300130C340028
:08014400F4021000A20AF3020C
:08014C001000A00A010C3300B1
:0801540041000000F30210005D
:08015C00AA0AF00C2900410081
:08016400030C3300130C3400FE
:08016C00F4021000B60AF302D0
:080174001000B40A070C33006F
:08017C0041000000F302100035
:08018400BE0AF60C290041003F
:08018C0000000000040C330028
:0801940041000000F30210001D
:08019C00CA0A050C290041000C
:0801A4004100010C3300130CB3
:0801AC003400F4021000D70A30
:0801B400F3021000D50A090C4A
:0801BC00330041000000F302D2
:0801C4001000DF0AF60C29000F
:0801CC00410000000000010CDD
:0801D4003300130C3400F402A7
:0801DC001000ED0AF30210000F
:0801E400EB0A020C330041009C
:0801EC000000F3021000F50A07
:0801F4006100A80C2900010CB8
:0801FC00300057001802D90180
:080204004100D0011C00340090
:08020C004100410041004100E6
:08021400F402060B1D001002AC
:08021C001C00330071007700A3
:08022400060C3D003E0C300009
:08022C001B023A00F80C7A01F4
:0802340003047A031A00000024
:08023C000000040C3300130C58
:080244003400F4021000230B4A
:08024C00F3021000210B070C66
:08025400330041000000F30239
:08025C0010002B0B1C00100C1C
:08026400F3011F02D1013E006D
:08026C005A001A024100FF0EC6
:080274004307410B3D0B3E0B5B
:08027C0013022900470B3400B6
:0802840057001E024100D401E5
:08028C00290058001E02410088
:08029400F7010306B1020307A4
:08029C000000B1020306FD029F
:0802A4005D0B060C3D00BA02DF
:0802AC00FD02630B060C3D008E
:0802B400BA02F002310B000058
:0802BC00FD02640B060C3D007D
:0802C400BA020000F002310B48
:0802CC00A80C2900BB021D0073
:0802D4001402F0010A0C900075
:0802DC004306750BFA0C9000BB
:0802E4004306750B770B740251
:0802EC00B4021A00830C81002A
:0802F4000307780B41004100F3
:0802FC00F8029A0A1100000A41
:0804000011001A00220C380063
:08040800F60C2900410041003F
:08041000010C3300130C340051
:08041800F40211000C0AF302CA
:0804200011000A0A010C33006F
:0804280041000000F302110085
:08043000140AF00C2900410040
:08043800030C3300130C340027
:08044000F4021100200AF3028E
:0804480011001E0A070C33002D
:0804500041000000F30211005D
:08045800280AF60C29004100FE
:0804600000000000040C330051
:0804680041000000F302110045
:08047000340A050C29004100CB
:080478004100010C3300130CDC
:080480003400F4021100410AEE
:08048800F30211003F0A090C08
:08049000330041000000F302FB
:080498001100490AF60C2900CD
:0804A000410000000000010C06
:0804A8003300130C3400F402D0
:0804B0001100570AF3021100CC
:0804B800550A020C330041005B
:0804C0000000F30211005F0AC5
:0804C800A80C2900000000004F
:0804D0002A0C3300130C340068
:0804D800F40211006C0AF302AA
:0804E00011006A0AF802040A87
:0804E8001C00240C35001A0071
:0804F000F60C29004100410057
:0804F800010C3300130C340069
:08050000F4021100800AF3026D
:0805080011007E0A010C330012
:0805100041000000F30211009C
:08051800880AF00C29004100E3
:08052000030C3300130C34003E
:08052800F4021100940AF30231
:080530001100920A070C3300D0
:0805380041000000F302110074
:080540009C0AF60C29004100A1
:0805480000000000040C330068
:0805500041000000F30211005C
:08055800A80A1202290041006B
:080560004100010C3300130CF3
:080568003400F4021100B50A91
:08057000F3021100B30A090CAB
:08057800330041000000F30212
:080580001100BD0AF60C290070
:08058800410000000000010C1D
:080590003300130C3400F402E7
:080598001100CB0AF30211006F
:0805A000C90A020C33004100FE
:0805A8000000F3021100D30A68
:0805B0001C001E0C950003065F
:0805B8006B0B0E0C950003070C
:0805C000810BF60C2900080C68
:0805C800340059001202410049
:0805D000300015023300160C87
:0805D800B300F3077302070CE6
:0805E0007301B80CF3011A00CD
:0805E8004100410000000F0C6E
:0805F0003300130C3400F40287
:0805F8001100FB0AF3021100DF
:08060000F90A070C3300410068
:080608000000F3021100030BD6
:080610001C0013023003030774
:08061800F60C2900410041002D
:080620004100410041004100CE
:080628004100160BF402090B5E
:08063000F60C2900080C34004F
:080638005900B2021202410058
:08064000300013023003030730
:08064800F60C290041004100FD
:0806500041004100410041009E
:0806580041002E0BF402210BFE
:08066000F60C2900F60C29003C
:08066800080C34005900B20235
:080670001202410030001302E8
:0806780030030307F60C290012
:0806800041004100410041006E
:08068800410041004100480B54
:08069000F4023B0B0000000026
:08069800F60C2900020CB2006F
:0206A000150241
:0806A400010EF201F201F20166
:0806AC001A00410000000F0CD0
:0806B4003300130C3400F402C2
:0806BC0011005D0BF3021100B7
:0806C4005B0B090C330041003F
:0806CC000000F3021100650BB0
:0806D4009A0B1A00F60C290034
:0806DC000000290C3300130C8F
:0806E4003400F4021100730B55
:0806EC00F3021100710B090C6F
:0806F400330041000000F30295
:0806FC0011007B0B9A0B1A00A0
:08070400F60C29004100000081
:08070C0000000000290C33007D
:08071400130C3400F402110083
:08071C008C0BF30211008A0BA3
:08072400080C33004100000045
:08072C00F3021100940B9A0B7B
:080734001C00F502770AF00C2D
:08073C002900C70C0200610056
:080744001D001302F200F20295
:08074C00BC0B1A00B203F2011C
:080754000F0C72010D0C920064
:08075C004306B50B000C9200EE
:080764004306B50BB90B1D00A3
:08076C007302B3021A00B2038C
:08077400060C32011200000A1C
:0808000012001A00B902070AF8
:080808001C00010C79011C0029
:08081000BF0272001D0014027A
:08081800F501150230000A0C85
:0808200090004306180AFA0CCF
:0808280090004306180A1A0AA9
:080830007402B4021000040977
:080838001A00E4044F0C8100DA
:0808400003071E0A200C38001A
:08084800F60C290041004100FB
:08085000010C3300130C34000D
:08085800F40212002C0AF30265
:0808600012002A0A010C33000A
:0808680041000000F302120040
:08087000340AF00C29004100DC
:08087800030C3300130C3400E3
:08088000F4021200400AF30229
:0808880012003E0A070C3300C8
:0808900041000000F302120018
:08089800480AF60C290041009A
:0808A00000000000040C33000D
:0808A80041000000F302120000
:0808B000540A050C2900410067
:0808B8004100010C3300130C98
:0808C0003400F4021200610A89
:0808C800F30212005F0A090CA3
:0808D000330041000000F302B7
:0808D8001200690AF60C290068
:0808E000410000000000010CC2
:0808E8003300130C3400F4028C
:0808F0001200770AF302120066
:0808F800750A020C33004100F7
:080900000000F30212007F0A5F
:08090800F60C290000000000BC
:080910002A0C3300130C340023
:08091800F40212008C0AF30244
:0809200012008A0AF802240A01
:040928001000200A91
:080E00000400040004000400DA
:080E08000400040005000500D0
:080E10000500050005000600C5
:080E18000600060006000600BA
:080E20000600060007000700B0
:080E28000700070007000700A6
:080E300007000700070007009E
:080E3800070007000700070096
:080E400008000700070007008D
:080E4800070007000700070086
:080E500007000700070007007E
:080E5800070007000700060077
:080E6000060006000600060072
:080E680006000600050005006C
:080E7000050005000500040067
:080E7800040004000400040062
:080E800004000300030003005D
:080E8800030003000200020058
:080E9000020002000200010053
:080E980001000100010001004E
:080EA000010001000000000048
:080EA800000000000000000042
:080EB00000000000000000003A
:080EB800000000000000000032
:080EC00000000000000000002A
:080EC800000000000000000022
:080ED00000000000000000001A
:080ED800000000000000010011
:080EE000010001000100010006
:080EE8000100010002000200FC
:080EF0000200020002000300F1
:080EF8000300030003000300E6
:080F00000300040004000400DA
:080F08000400040005000500CF
:080F10000500050005000600C4
:080F18000600060006000600B9
:080F20000600060007000700AF
:080F28000700070007000700A5
:080F300007000700070007009D
:080F3800070007000700070095
:080F400008000700070007008C
:080F4800070007000700070085
:080F500007000700070007007D
:080F5800070007000700060076
:080F6000060006000600060071
:080F680006000600050005006B
:080F7000050005000500040066
:080F7800040004000400040061
:080F800004000300030003005C
:080F8800030003000200020057
:080F9000020002000200010052
:080F980001000100010001004D
:080FA000010001000000000047
:080FA800000000000000000041
:080FB000000000000000000039
:080FB800000000000000000031
:080FC000000000000000000029
:080FC800000000000000000021
:080FD000000000000000000019
:080FD800000000000000010010
:080FE000010001000100010005
:080FE8000100010002000200FB
:080FF0000200020002000300F0
:080FF8000300030003000300E5
:08100000FF00FE00FD00FC00F2
:08100800FA00F700F400F0000B
:08101000EB00E600E000DA004D
:08101800D400CC00C500BC00AF
:08102000B400AB00A100970031
:081028008D00830078006D00CB
:08103000610055004A003D007B
:081038003100250018000C0036
:0810400000000D00190026005C
:0810480032003E004B0056008F
:0810500062006E0079008400CB
:081058008E009800A200AC001C
:08106000B500BD00C600CD0083
:08106800D500DB00E100E70008
:08107000EC00F100F500F800AE
:08107800FB00FD00FE00FF007B
:08108000FF00FF00FE00FD006F
:08108800FB00F800F500F10087
:08109000EC00E700E100DB00C9
:08109800D500CD00C600BD002B
:0810A000B500AC00A2009800AD
:0810A8008E00840079006E0047
:0810B000620056004B003E00F7
:0810B8003200260019000D00B2
:0810C00001000C0018002500DE
:0810C80031003D004A00550013
:0810D00061006D00780083004F
:0810D8008D009700A100AB00A0
:0810E000B400BC00C500CC0007
:0810E800D400DA00E000E6008C
:0810F000EB00F000F400F70032
:0810F800FA00FC00FD00FE00FF
:08110000FF00FE00FD00FC00F1
:08110800FA00F700F400F0000A
:08111000EB00E600E000DA004C
:08111800D400CC00C500BC00AE
:08112000B400AB00A100970030
:081128008D00830078006D00CA
:08113000610055004A003D007A
:081138003100250018000C0035
:0811400000000D00190026005B
:0811480032003E004B0056008E
:0811500062006E0079008400CA
:081158008E009800A200AC001B
:08116000B500BD00C600CD0082
:08116800D500DB00E100E70007
:08117000EC00F100F500F800AD
:08117800FB00FD00FE00FF007A
:08118000FF00FF00FE00FD006E
:08118800FB00F800F500F10086
:08119000EC00E700E100DB00C8
:08119800D500CD00C600BD002A
:0811A000B500AC00A2009800AC
:0811A8008E00840079006E0046
:0811B000620056004B003E00F6
:0811B8003200260019000D00B1
:0811C00001000C0018002500DD
:0811C80031003D004A00550012
:0811D00061006D00780083004E
:0811D8008D009700A100AB009F
:0811E000B400BC00C500CC0006
:0811E800D400DA00E000E6008B
:0811F000EB00F000F400F70031
:0811F800FA00FC00FD00FE00FE
:0812000063001C003C006300C8
:081208003E007E003600630089
:0812100003001C0003001E0096
:081218003E007B003C00770062
:081220006300600063003E0062
:081228003F0063001C001E00E2
:081400000000000000000000E4
:081408000000000000000000DC
:081410000000000000000000D4
:081418000000000000000000CC
:081420000000000000000000C4
:081428000000000000000000BC
:081430000000000000000000B4
:081438000000000000000000AC
:081440000000000000000000A4
:0814480000000000000000009C
:08145000000000000000000094
:0814580000000000000000008C
:081460000000000000008600FE
:0814680000000000000000007C
:08147000000000000000000074
:0814780000000000000000006C
:081480000000000000008600DE
:08148800860086000000000050
:08149000000000000000000054
:0814980000000000000000004C
:0814A000000037000000860087
:0814A800370086003700370011
:0814B0003700000000000000FD
:0814B800370037003700000087
:0814C000000037000000860067
:0814C8003700860037008600A2
:0814D0008600860000003700D1
:0814D80000000000000000000C
:0814E000000000003700370096
:0814E800860086003700860033
:0814F00037003700860086007A
:0814F80037003700000000007E
:081500000000370086008600A0
:08150800370086003700860061
:0815100086003700860086000A
:08151800860086003700000088
:08152000000037008600860080
:08152800370086003700370090
:08153000370037008600370088
:081538003700370086000000B7
:08154000000000008600860097
:08154800860086008600860083
:08155000860086008600000001
:0815580000000000000000008B
:08156000000000008600860077
:081568008600000000000000F5
:08157000000000000000000073
:0815780000000000000000006B
:08158000000000000000000063
:0815880000000000000000005B
:08159000000000000000000053
:0815980000000000000000004B
:0815A000000000000000000043
:0815A80000000000000000003B
:0815B000000000000000000033
:0815B80000000000000000002B
:0815C000000000000000000023
:0815C80000000000000000001B
:0815D000000000000000000013
:0815D80000000000000000000B
:0815E000000000000000000003
:0815E8000000000000000000FB
:0815F0000000000000000000F3
:0815F8000000000000000000EB
:08160000000318060104840038
:08160800C400340D840034001D
:08161000C40E8400C400740044
:08161800A400340D740034003D
:08162000A40E7400A4005400A4
:081628008400C400540DC40E3F
:08163000840054008400340022
:081638007400A400340DA40E9F
:08164000740034007400020A7A
:08164800D40E540D8400D400FF
:0816500084005400D40E540D77
:08165800C40E340D8400C4002F
:0816600084003400C4003400D2
:08166800110B8400C400340DD5
:0816700084003400C40E840064
:08167800C4007400A400340D4D
:0816800074003400A40E740094
:08168800A40054008400C4001A
:08169000540DC40E8400540047
:08169800840034007400A4007A
:0816A000340DA40E74003400A7
:0816A8007400D40E540D8400FF
:0816B000D40084005400D40EA4
:0816B800540DC40E340D840032
:0816C000C40084003400C400E2
:0816C8003400A40ED400540DFF
:0816D000A4005400D40EA40094
:0816D800D400340D7400A400DD
:0816E000340DA40E7400340067
:0816E8007400C40E340D8400EF
:0816F000C400D40E540D840067
:0816F800D400C40E340D84007F
:08170000C40084003400C40E93
:08170800340D000C0103010483
:081710001806C0001000A8003B
:081718008800300D1000A00E46
:081720001000500D10007800CC
:08172800880072005200020467
:08173000300010000104380034
:08173800010434005000100010
:081740003800D80E320DD20E64
:08174800C0001C00C0001000ED
:08175000A8008800A0002000A1
:08175800C0001000A800880089
:08176000300D1000A00E100076
:08176800500D1000780088000C
:081770007200520030001C0061
:08177800500010003800D80EEB
:08178000320DD20EC0001C0066
:08178800D0001800340DD40E4E
:08179000C800A80088007800E1
:0817980080004000000C020477
:0817A00018060003020A840090
:0817A8008400F4003400050B7D
:0817B000020A74007400F40049
:0817B8007400050B54005400FD
:0817C000F400C40054005400C1
:0817C800F40054003400340069
:0817D000F400A4003400340011
:0817D800F40084000009020A7C
:0817E000D400D400F4008400E1
:0817E800050B020AC400C40055
:0817F000F400C400050B020A1D
:0817F800640D6400F400D40E3E
:08180000050B020A340D34004F
:08180800F400A40E050B00081A
:08181000020A84008400F400C8
:081818003400050B020A740004
:081820007400F4007400050BD4
:0818280054005400F400C40058
:0818300054005400F4005400C0
:0818380034003400F400A400A8
:0818400034003400F4008400C0
:081848000009020AD400D400DB
:08185000F4008400050B020AFC
:08185800C400C400F400C40048
:08186000050B020A640D64008F
:08186800F400D40E050B020A86
:08187000340D3400F400A40E55
:08187800050B020A8400840044
:08188000F4008400050B020ACC
:0818880084008400F400340028
:04189000050B000C38
:081C00000B0C300065045207D3
:081C0800070A8505080A85049E
:081C10004100410041004100C8
:081C1800650541004100410097
:081C2000410073037203F0029E
:081C2800020A650441004100BD
:081C300041004100A50541003F
:081C3800410041004100A50438
:081C40000D00400C2500040C0E
:081C480005001A00E405000C80
:081C50003400000C35000B0C00
:081C5800F5017600700C370065
:081C6000030C3800010C3900EF
:081C68007B007F00100CE40179
:081C7000860C3400000C350065
:081C78000B0CF5017600700C65
:081C80003700030C3800010CD1
:081C880039007B007F00100C05
:081C9000E401CF0C3400000C4C
:081C980035000B0CF50176008C
:081CA000700C3700030C380042
:081CA800010C39007B007F00F4
:081CB0000D001A00E4057000AC
:081CB800030C3100030C3200A3
:081CC000000C3300F802F90AE0
:081CC80011023800F902F90ACB
:081CD00015024300140241005B
:081CD8003C0042003D00010C3C
:081CE000F4010306B5020F0C2C
:081CE8007D014307780A850A1B
:081CF0000D0C9D0043077F0A63
:081CF8000C0CF601850A0E0C2C
:081D00009D004307A80A0C0C2A
:081D0800B6001F053F041C0298
:081D10003E00F00C7E01F00C16
:081D18009E004307900A3F05FD
:081D20001C020F0E39004307FD
:081D28009E0A1502430014029B
:081D300041003900010CF4012F
:081D38000306B502F00C77016F
:081D40003C033C033C033C039F
:081D48001C020F0E3701F90A1D
:081D5000030C9D004307B40AD7
:081D580003045C033C00DC0104
:081D60003600D601F601680A05
:081D6800040C9D004307C50AAD
:081D70000F0C77011C02070EA5
:081D78003E007E037E037E03A2
:081D80007E031E02F00E370184
:081D8800680A060C9D004307E8
:081D9000CC0A1C023B00680AAA
:081D9800080C9D004307D30A6B
:081DA0000C0CF601680A090CA5
:081DA8009D004307DA0A0C0C50
:081DB000B600680A0A0C9D0050
:081DB8004307E10A1C023A0096
:081DC000680A0B0C9D004307AB
:081DC800ED0AFA004306EC0AE3
:081DD0001C02B4000307F5003A
:081DD800680A0C0C9D00430792
:081DE000F80A1202340013029C
:081DE80035000B0CF501680A3F
:081DF000680AB002030C900028
:081DF8004306180B020C9000D9
:081E000043060D0B100CE40178
:081E0800010C3000030C310055
:081E1000890C3200000C3300C4
:081E1800620A100CE401020C47
:081E20003000030C3100D10C6D
:081E28003200000C3300620AD5
:081E3000000C3F07200DC40463
:081E3800A40584053F07400DDD
:081E400084043F07800D33000C
:081E4800000C320000091F0725
:081E5000360B17023E003E03B1
:081E58003E033E033E031E029F
:081E6000070E1B013300010C09
:081E68003200000984051F0788
:081E7000480B17023E003E037F
:081E78003E033E033E031E027F
:081E8000070E400D1B01840454
:081E88003300010C32000009D7
:081E9000200CE4011F075C0BAC
:081E980017023E003E033E0369
:081EA0003E033E031E02070E83
:081EA800800D1B01C404A40518
:081EB0003300010C32000009AF
:081EB8001F07650B17020F0E56
:081EC000D6013300020C3200D0
:081EC800000984051F07710BDE
:081ED00017020F0ED601840475
:081ED800400D3300020C320042
:081EE0000009A404C4051F075A
:081EE8007E0B17020F0ED6015C
:081EF0001A00800D3300020C02
:061EF800320000090D009C
:021FFE00060AD1
:08200000F60FFD0FF60FF90FBA
:08200800F60FF30FF60FF60FBF
:08201000F60FFC0FF60FF10FB3
:08201800F60FF70FF70FF30FAD
:10202000AA0FFF0FFFFF04ABC40400B4FFFF0000C2
:00000001FF
