:08000400000C2500030C2A008A
:08000C0041000000EA021000AF
:08001400060AA505030C2A00F1
:08001C0041000000EA0210009F
:080024000E0AA5040B0C2C00D0
:08002C0065044F071B0A85055E
:080034001C0A8504030C2A00DC
:08003C0041000000EA0210007F
:080044001E0A6505030C2A00E9
:08004C0041000000EA0210006F
:08005400260A6E036F03EC02A3
:08005C00160A0D00F60C290044
:0800640041004100010C2A00DB
:08006C00130C2B00EB02100045
:08007400380AEA021000360A06
:08007C00010C2A004100000004
:08008400EA021000400AF00C32
:08008C0029004100030C2A00C9
:08009400130C2B00EB0210001D
:08009C004C0AEA0210004A0AB6
:0800A400070C2A0041000000D6
:0800AC00EA021000540AF60CF0
:0800B4002900410000000000DA
:0800BC00040C2A0041000000C1
:0800C400EA021000600A050CBD
:0800CC00290041004100010C74
:0800D4002A00130C2B00EB02C3
:0800DC0010006D0AEA02100099
:0800E4006B0A090C2A0041001F
:0800EC000000EA021000750A91
:0800F400F60C290000000000D9
:0800FC000000010C2A00130CA6
:080104002B00EB021000830A3E
:08010C00EA021000810A020C56
:080114002A0041000000EA028C
:08011C0010008B0A0D00400CDD
:080124002400080CF001580C46
:08012C0090000307B50A080C5E
:080134003000080CF101580C29
:08013C0091000307B50A080C4D
:080144003100080CF201580C17
:08014C0092000307B50A080C3C
:080154003200080CF301580C05
:08015C0093000307B50A080C2B
:080164003300080CF401EA026B
:08016C00930A0D00400C240071
:08017400080C300031003200DC
:08017C003300340035003600A9
:08018400370038003900300C8F
:08018C002400700076007900E8
:080194007C00C80C31003700AB
:08019C003A003D00900C240024
:0801A400260C2A006000A402F1
:0801AC00EA02D40A200C240031
:0801B4007D007E0073000A0CBF
:0801BC003200090C3600AC0C06
:0801C4003000000C2900000CC2
:0801CC000900ED0C35001500DF
:0801D4009F09F60C3500200C18
:0801DC00240074006E006F00A6
:0801E4000E0C2C007700410015
:0801EC004100250C2A00130C50
:0801F4002B00EB021000FB0AD6
:0801FC00EA021000F90A020CEE
:080204002A0041000000EA029B
:08020C001000030B150229008C
:080214000C0243000F0241003F
:08021C002D00AF0242002A0090
:080224000A07190B0D0224006A
:08022C0000022D001C0B000074
:0802340000001C0B600C24000B
:08023C00140C2B000C0243001E
:080244000F024100CE01410050
:08024C002000A4020D022000B5
:08025400A402AF02EB02200B33
:08025C0010003009200C240001
:08026400150229001200000A36
:08026C00200C240019022E00F1
:080274001A022F001B022B00EF
:08027C001C022C00600C2400A0
:08028400040C2A00130C2B00EE
:08028C00EB021000460BEA0230
:080294001000440B140C2B00B8
:08029C00A40200022D00E400A1
:0802A400F60CE0060D02290032
:0802AC0060034100590B5A0BDD
:0802B400F60CE0060D02290022
:0802BC0060034100610B620BBD
:0802C400F60CE0060D02290012
:0802CC0060034100690B6A0B9D
:0802D400F60CE0060D02290002
:0802DC0060034100710B720B7D
:0802E400F60CE0060D022900F2
:0802EC0060034100790B7A0B5D
:0802F400F60CE0060D022900E2
:0802FC0060034100810B820B3D
:08030400F60CE0060D022900D1
:08030C0060034100890B8A0B1C
:08031400F60CE0060D022900C1
:08031C006003020CE401EB0296
:080324004E0B200C2400150211
:08032C002900040C2A00130C47
:080334002B00EB0210009B0BF3
:08033C00EA021000990B150CF8
:08034400AF00AE02080C8E00B0
:08034C000307B70B6E00150C4E
:08035400EF01B702FC0C8F0061
:08035C004307B40B6F000F0C06
:080364002C00BB0B000000009F
:08036C00BB0B41004100000041
:08037400BB0B41004100BE0B70
:08037C00B402C00C9400030759
:08038400080B0000000041001D
:08038C00040C2A00130C2B00E5
:08039400EB021000CA0BEA02A3
:08039C001000C80B060C2A003A
:0803A40041000000EA02100014
:0803AC00D20B1600800B190CA6
:0803B4002C00100030091502B5
:0803BC00290041004100290C59
:0803C4002A00130C2B00EB02D0
:0803CC001000E50BEA0210002D
:0803D400E30B090C2A004100B3
:0803DC000000EA021000ED0B25
:0803E400EC02DB0BF00C290018
:0803EC00C70C0200000C210007
:0403F40011003F0AAB
:08040000200C24000C023C005A
:080408000D023B000E0C2E005A
:08041000600C8B000307100AC9
:08041800600CAB000F0C2E007C
:080420002B032B032B031F0C1F
:080428006B010B0203046B03DE
:080430006B03CB016B036B03AE
:08043800EB012A032A032A0349
:080440001F0C6A01AB026D0004
:08044800AA020E0243000B02A0
:0804500041002C00880C8C0017
:080458004306320A900C8C00EF
:080460004307330AAD02AB02B1
:08046800EA02250A0D022B0037
:080470000C022A001C022C0002
:080478001B022D000D00110014
:080480001F0C4300000C2500D5
:08048800FC0C05000502070E43
:0804900025002504000005050C
:08049800000005040000250529
:0804A000100C2A006F036E032B
:0804A8004507580A0F05590A27
:0804B0000F0400000505000027
:0804B80005040000EA02520AEB
:0804C0000502070E25001D02D4
:0804C800E2016A0ABA0ACB0A3C
:0804D000770B870B8F06B30ABE
:0804D800400C2400080C300068
:0804E00031003200330034004A
:0804E800200C2400AC0C3000D4
:0804F000050C3E00900C2400F5
:0804F800260C2A00FF0C200075
:08050000A402EA027F0A400C8C
:0805080024007A00300C2400ED
:080510004C0C3000A00C31007E
:08051800B80C32004C0C360057
:08052000600C37005B0C380091
:08052800480C3900680C3A0090
:08053000AC0C3B00500C3C0038
:08053800680C3D00EB0C3E00D5
:08054000C80C3F00200C240050
:08054800010C3D00F60C360029
:080550007800500C2400030C9C
:080558003400350037003900C2
:080560003B007C00D50B200CD0
:080568002400F60CB807090C91
:080570003600D50B200C24001D
:080578003C0C98000307D50BB1
:08058000020C3D00400C2400B8
:0805880010022A00200C2400DF
:080590000A023800D50B500CE3
:0805980024000F06D10A040C37
:0805A00034002F06D50A020CFD
:0805A80034004F06D90A030CD0
:0805B00034006F06DD0A010CA6
:0805B80034001400C70A300CE6
:0805C0002400100233001102B7
:0805C8003400500C2400140261
:0805D000310015023200730036
:0805D8001400160911023400A1
:0805E00012023500300C24006A
:0805E800130230002A00140286
:0805F00031002B00040CEA01AC
:0805F800040CEB010B022C00C6
:0806000011000009880C8A00BA
:0806080043060A0B900C8A0066
:0806100043074F0B2C032C03E0
:080618003E0C6C01880CEC01A2
:08062000090C8B000307170B06
:08062800AC02080CAB000C024F
:08063000240003056C002C03FB
:08063800EB021B0B00024C0158
:0806400043064F0B6C020C0293
:0806480060010A022B00010C05
:080650002A00880C8B00430610
:080658003F0B500C24001A0CAA
:080660003C00B702030C770116
:08066800B702B902030C79018D
:08067000B902BB02030C7B017F
:08067800BB02050C2A00100072
:0806800091091500BE09BA0240
:08068800840C9A0003074F0BDC
:08069000200C240010023100CF
:08069800030C3D007800150081
:0806A000CD09200C2400180212
:0806A800070E4307D50B500CAF
:0806B0002400000C9C0043062D
:0806B800D50BFC004306D50B35
:0806C0001C022A00300C24008A
:0806C800EA0C38003B003E0083
:0806D000F50CCA010306D50B6D
:0806D8000A07D50B300C2400C9
:0806E0005B0C3800AC0C3B0080
:0806E800EB0C3E00D50B200CC9
:0806F0002400AC0C3000B80737
:0806F8007F0B660C3000B40C0E
:0807000098000307D50B300C33
:08070800D10130007A0A200C37
:08071000240018022A00C80CA5
:080718008A004307C60BFF0C29
:08072000DE010306860A000C4D
:080728003D00400C2400140206
:0807300099000307BB0B19023D
:0807380094000307D50B130226
:0807400098000307BB0B18022F
:0807480093000307D50B120218
:0807500097000307BB0B170221
:0807580092000307D50B11020A
:0807600096000307BB0B160213
:0807680091000307D50B1502F7
:0807700090000307D50B1002F5
:080778003500110236001202E7
:080780003700130238001402D7
:080788003900D50B300C2400F0
:080790003C0C8A000307CE0BAC
:08079800E80C3200C80C3F0020
:0807A0004A06D40BD00C3F0007
:0807A800D50B200C2400B8025F
:0807B0004F0C81000307D80B78
:0807B800210C2C001000300997
:0807C00015022900EC00000CF9
:0807C8008C0043061100FD0B3B
:0807D00041000000290C2A0081
:0807D800130C2B00EB021100D1
:0807E000EE0BEA021100EC0B24
:0807E800090C2A004100000089
:0807F000EA021100F60B1100F2
:0607F800DE0B1000ED0A0B
:080800000E0239000F023A005C
:080808000B023B000C023C0056
:0808100017022A0003046A0329
:080818000A02E2011200800A4D
:080820001300D30B1200800A43
:080828001200800A1200950A7B
:0808300012000C0B12005E0B1C
:080838001200B90B1300070ABE
:080840001300340A13003D0A05
:0808480013008A0A1300AC0A38
:080850001300E30A13001A0B68
:080858001300810A13003C0BA0
:080860001200030B1200530B00
:0808680012004A0B1300650B9E
:080870001200800A1200800A48
:080878001600BF0B200C240048
:0808800014022E00300C2400CC
:080888001002330011023400DC
:080890000C0C2B0012022C00DD
:0808980015000009200C2400EA
:0808A00014022E00300C2400AC
:0808A8001602330017023400B0
:0808B00018022B001F022C00AE
:0808B80015000009200C2400CA
:0808C00014022E00300C24008C
:0808C800190233001A0234008A
:0808D0001B022B001F022C008B
:0808D80015000009200C2400AA
:0808E00014022E00300C24006C
:0808E8001C0233001D02340064
:0808F0001E022B001F022C0068
:0808F800150000091000360B89
:0809000000000000010C2A00B8
:08090800130C2B00EB0212009E
:08091000860AEA021200840AC3
:08091800020C2A00410000005E
:08092000EA0212008E0A120027
:080928003E0A900C24000002BD
:080930002A00A40200022D00C0
:080938004100630C2400F60CE1
:08094000EA06FF0C2000650C23
:080948002400F60CCA06FF0CA6
:080950002000670C2400F60CE6
:08095800AA06FF0C2000690C47
:080960002400F60C8A06FF0CCE
:0809680020006D0C2400F60CC8
:080970006A06FF0C20006F0C69
:080978002400F60C4A06FF0CF6
:080980002000710C2400F60CAC
:080988002A06FF0C2000730C8D
:080990002400F60C0A06FF0C1E
:080998002000750C2400F60C90
:0809A000ED06FF0C2000770CAE
:0809A8002400F60CCD06FF0C43
:0809B0002000790C2400F60C74
:0809B800AD06FF0C20007B0CD2
:0809C0002400F60C8D06FF0C6B
:0809C80020007F0C2400F60C56
:0809D0006D06FF0C2000810CF4
:0809D8002400F60C4D06FF0C93
:0809E0002000830C2400F60C3A
:0809E8002D06FF0C2000850C18
:0809F0002400F60C0D06FF0CBB
:0809F800200041004100410014
:080A0000010B12003E0AAA0CD2
:080A0800240000022A00A402F0
:080A100000022D0012009D0AF6
:080A1800920C240000022A00E8
:080A2000A40200022D004100B8
:080A2800200C24009807EA04E9
:080A300098074A04630C24003E
:080A3800F60CEA06FF0C200099
:080A4000690C2400F60CCA0643
:080A4800FF0C20006D0C2400DE
:080A5000F60CAA06FF0C2000C1
:080A58007B0C2400F60C8A0659
:080A6000FF0C20007F0C2400B4
:080A6800F60C6A06FF0C2000E9
:080A7000850C2400F60C4A0677
:080A7800FF0C200041004100C9
:080A80000000060C2A004100F1
:080A88000000EA021200430B1A
:080A900012003E0AAE0C240026
:080A980000022A00A402000282
:080AA0002D001200140BAC0C38
:080AA800240000022A00A40250
:080AB00000022D005B0B5C0B42
:080AB80012001A0B940C24003B
:080AC00000022A00A40200025A
:080AC8002D00630C2400F60C64
:080AD000EA06FF0C2000650C92
:080AD8002400F60CCA06FF0C15
:080AE0002000670C2400F60C55
:080AE800AA06FF0C2000690CB6
:080AF0002400F60C8A06FF0C3D
:080AF80020006B0C2400F60C39
:080B00006A06FF0C20006D0CD9
:080B08002400F60C4A06FF0C64
:080B100020007B0C2400F60C10
:080B18002A06FF0C20007D0CF1
:080B20002400F60C0A06FF0C8C
:080B280020007F0C2400F60CF4
:080B3000ED06FF0C2000810C12
:080B38002400F60CCD06FF0CB1
:080B40002000830C2400F60CD8
:080B4800AD06FF0C2000850C36
:080B50002400F60C8D06FF0CD9
:080B5800200000000000000075
:080B6000040C2A004100000012
:080B6800EA021200B20B1200B8
:080B70003E0A960C240000026D
:080B78002A00A40200022D0076
:080B8000670C2400F60CEA06E4
:080B8800FF0C20006D0C24009D
:080B9000F60CCA06FF0C200060
:080B98006F0C2400F60CAA0604
:080BA000FF0C2000710C240081
:080BA800F60C8A06FF0C200088
:080BB000730C2400F60C6A0628
:080BB800FF0C2000750C240065
:080BC000F60C4A06FF0C2000B0
:080BC800770C2400F60C2A064C
:080BD000FF0C2000790C240049
:080BD800F60C0A06FF0C2000D8
:080BE0007B0C2400F60CED066D
:080BE800FF0C2000810C240029
:080BF000F60CCD06FF0C2000FD
:080BF80041000000050C2A0079
:080C000041000000EA021300AC
:080C0800000A12003E0A980CDC
:080C1000240000022A00A402E6
:080C180000022D004100670CF1
:080C20002400F60CEA06FF0CAB
:080C280020006F0C2400F60C03
:080C3000CA06FF0C2000790C3C
:080C38002400F60CAA06FF0CD3
:080C40002000810C2400F60CD9
:080C48008A06FF0C20004100A8
:080C5000000000000000080C88
:080C58002A0041000000EA023D
:080C600013002D0A12003E0AE8
:080C68009A0C240000022A008E
:080C7000A40200022D00130094
:080C78000F0A9C0C240000028D
:080C80002A00A40200022D006D
:080C88004100670C2400F60C8A
:080C9000EA06FF0C2000690CCC
:080C98002400F60CCA06FF0C53
:080CA00020006B0C2400F60C8F
:080CA800AA06FF0C20006D0CF0
:080CB0002400F60C8A06FF0C7B
:080CB80020007B0C2400F60C67
:080CC0006A06FF0C20007D0C08
:080CC8002400F60C4A06FF0CA3
:080CD00020007F0C2400F60C4B
:080CD8002A06FF0C2000810C2C
:080CE0002400F60C0A06FF0CCB
:080CE8002000000000000000E4
:080CF000060C2A00410000007F
:080CF800EA0213007A0A12005F
:080D00003E0AA60C24000002CB
:080D08002A00A40200022D00E4
:080D10001300450A9E0C2400AB
:080D180000022A00A4020002FF
:080D20002D00670C2400F60C05
:080D2800EA06FF0C2000810C1B
:080D30002400F60CCA06FF0CBA
:080D3800200000000000000093
:080D4000010C2A00130C2B002A
:080D4800EB021300A40AEA0209
:080D50001300A20A12003E0A82
:080D5800A00C240000022A0097
:080D6000A40200022D00670C43
:080D68002400F60CEA06FF0C62
:080D700020006B0C2400F60CBE
:080D7800CA06FF0C20006D0CFF
:080D80002400F60CAA06FF0C8A
:080D880020007B0C2400F60C96
:080D90008A06FF0C20007D0C17
:080D98002400F60C6A06FF0CB2
:080DA0002000810C2400F60C78
:080DA8004A06FF0C2000410087
:080DB00041000000070C2A00BD
:080DB80041000000EA021300F3
:080DC000DC0A12003E0AA20C3D
:080DC800240000022A00A4022D
:080DD00000022D00670C240055
:080DD800F60CEA06FF0C2000F6
:080DE000690C2400F60CCA06A0
:080DE800FF0C20006B0C24003D
:080DF000F60CAA06FF0C20001E
:080DF8007D0C2400F60C8A06B4
:080E0000FF0C20007F0C240010
:080E0800F60C6A06FF0C200045
:080E1000810C2400F60C4A06D7
:080E1800FF0C20004100410025
:080E20000000070C2A0041004C
:080E28000000EA021300130BA5
:080E300012003E0AA40C24008C
:080E380000022A00A4020002DE
:080E40002D00670C2400F60CE4
:080E4800EA06FF0C2000810CFA
:080E50002400F60CCA06FF0C99
:080E5800200000000000000072
:080E6000010C2A00130C2B0009
:080E6800EB021300340BEA0257
:080E70001300320B12003E0AD0
:080E7800A80C240000022A006E
:080E8000A40200022D00670C22
:080E88002400F60CEA06FF0C41
:080E90002000710C2400F60C97
:080E9800CA06FF0C2000770CD4
:080EA0002400F60CAA06FF0C69
:080EA8002000810C2400F60C6F
:080EB0008A06FF0C200000007F
:080EB800090C2A0041000000B2
:080EC000EA0213005E0B1200B0
:080EC8003E0AB00C24000002F8
:080ED0002A00A40200022D001B
:080ED800630C2400F60CEA068D
:080EE000FF0C2000650C24004A
:080EE800F60CCA06FF0C200005
:080EF000670C2400F60CAA06B1
:080EF800FF0C2000690C24002E
:080F0000F60C8A06FF0C20002C
:080F08006B0C2400F60C6A06D4
:080F1000FF0C20006D0C240011
:080F1800F60C4A06FF0C200054
:080F20006F0C2400F60C2A06F8
:080F2800FF0C2000710C2400F5
:080F3000F60C0A06FF0C20007C
:080F3800770C2400F60CED0615
:080F4000FF0C2000790C2400D5
:080F4800F60CCD06FF0C2000A1
:080F50007B0C2400F60CAD0639
:080F5800FF0C20007D0C2400B9
:080F6000F60C8D06FF0C2000C9
:080F68007F0C2400F60C6D065D
:080F7000FF0C2000810C24009D
:080F7800F60C4D06FF0C2000F1
:080F8000830C2400F60C2D0681
:080F8800FF0C2000850C240081
:080F9000F60C0D06FF0C200019
:080F980041004100410041004D
:080FA000D10B12003E0A050C02
:080FA8002B003F0C24000B029A
:080FB000E40100022A006A0CB2
:080FB80024000B02A400A400B8
:080FC0005B000A02CE014100B2
:080FC8002000440C24000B0280
:080FD000E40100022A00820C7A
:080FD80024000B02A400A40098
:080FE0005B000A02CE01410092
:080FE8002000EB02D50B4100D3
:080FF000020C2A00130C2B0077
:080FF800EB021300FC0BEA02FE
:081000001300FA0B040C2A0096
:0810080041000000EA0214009F
:06101000040A1000360B7B
:08102A00450B11023000300CEF
:081032002400A00C3200000CA8
:08103A0093004307270A970CFD
:081042003300500C2400030CE4
:08104A0032000D00980C930028
:081052004307320A010C3300D0
:08105A00500C2400010C3200CF
:081062000D00300C2400130204
:08106A002A0014022B001302FE
:081072002C0014022D00500CAB
:08107A002400070C6D01430680
:081082004B0A010C900043062B
:08108A00B70A030C90004306B5
:08109200B70A630A010C90008B
:08109A004307570A080CEA01A4
:0810A200AC020B022D00A80CAA
:0810AA002F00870A030C9000DF
:0810B2004307630A010CAA00C8
:0810BA00EC000B022D00B80C44
:0810C2002F00870A0B022D002C
:0810CA00070C6C014306720AD9
:0810D200020C90004306B70A6E
:0810DA00040C90004306B70A64
:0810E200850A020C900043078F
:0810EA007C0A080CEB01AD02C9
:0810F200B00C2F00850A040C6C
:0810FA0090004307850A010C78
:08110200AB00ED00C00C2F0052
:08110A000A022C00110000098B
:08111200000C8A004306A80A44
:08111A00880C8A004306A80AB4
:08112200900C8A004306A80AA4
:08112A00500C2400000C93009E
:081132004306B70AFF0CDC01C3
:08113A000306B70A040C900043
:081142004307B70A980C8A006C
:08114A004306A80AB70A200CB5
:08115200240018022A00300CF1
:08115A0024000C0233000D0219
:08116200340012024A070F02DB
:08116A003200C20A500C2400FF
:08117200100292004306C00ABE
:08117A0012023000320A70007D
:081182000D00500C24001002C6
:08118A0032000D00500C24009E
:08119200070C2D00000C9C006D
:08119A004306D30A010C2D00ED
:0811A200300C2400200C240095
:0811AA0018022C004D01430660
:0811B2002B0B500C2400160267
:0811BA003D0017023E00010C8C
:0811C2003300300C240016027A
:0811CA0033001702340015097F
:0811D200500C24001D02360040
:0811DA001E023700300C240056
:0811E20013023600140237006D
:0811EA00500C240018023D0026
:0811F20019023E00020C33005B
:0811FA00300C2400190233003F
:081202001A0234001509500C1A
:08120A0024001D0238001E0241
:081212003900300C2400130226
:08121A00390014023A00500CE7
:0812220024001A023D001B022A
:08122A003E00030C3300300C00
:0812320024001C0233001D0220
:08123A0034001509500C2400DA
:081242001D023A001E023B00F0
:08124A00300C240013023C00EB
:0812520014023D00500C2400C1
:08125A00000C9C004306370B59
:08126200300C2400D80C3F0001
:08126A001100DF0A200C240032
:08127200C80C2A0078063F0BAE
:08127A00D00C2A00300C240006
:081282000A023F001100DF0A1F
:08128A00500C2400010C93003C
:081292004307670B300C240038
:08129A008C065D0B10029300AD
:0812A2000306560B010C2B00A2
:0812AA00A00B130290000306E3
:0812B2005D0B030C2B00A00BE7
:0812BA00110294000306640B0D
:0812C200020C2B00A00B040C30
:0812CA002B00A00B020C9300A5
:0812D2004307870B300C2400D8
:0812DA008C067D0B110294004B
:0812E2000306760B020C2B0041
:0812EA00A00B140291000306A1
:0812F2007D0B040C2B00A00B86
:0812FA00100293000306840BAF
:08130200010C2B00A00B030CF1
:08130A002B00A00B300C2400A5
:08131200100293000306900B8A
:08131A00010C2B00A00B1302D3
:0813220090000306970B030C79
:08132A002B00A00B140291003E
:0813320003069E0B020C2B00C8
:08133A00A00B040C2B00500C69
:0813420024000B023D001D0216
:08134A002A001E02AA00020C99
:081352008A004306B00BFE0CFB
:08135A008A004307B80BBD0235
:08136200FB0CDD010307A40BE5
:08136A00010C3D00A40B1D0263
:0813720031001E0232001400DC
:08137A001609000C9000430667
:08138200B00B11023D00120244
:08138A003E00300C24001002AB
:081392002A00060CEA010A0220
:08139A0093000306FB0B0C0C91
:0813A200AA0013028A000306F1
:0813AA00FB0B11022A00060CE6
:0813B200EA010A02940003069F
:0813BA00FB0B0C0CAA0014024D
:0813C2008A000306FB0B500C2E
:0813CA002400FF0CDC01030606
:0813D200F10B200C240078004F
:0813DA00040C3D00FE000D00B3
:0813E200300C24004C0C330018
:0813EA00600C3400140C2A0011
:0613F200100091090D003E
:0814000014028E002E00080CFE
:081408008E0003061500970A8F
:0814100013022A002D00030461
:08141800F80C6A012A032A0303
:08142000600CCA012400070C56
:081428006D015C000C02CE0115
:08143000410020002A000D021A
:08143800E201250A2F0A3D0A1A
:081440004B0A590A650A730A00
:08144800810A4100410041004E
:081450000000A4020B022000C1
:0814580041002E0A0D00FE0CFC
:0814600060012003020CE4010D
:081468000A022000010C6001E2
:0814700020032003000000002E
:081478008F0AFC0C6001200347
:081480002003020CE4010A0242
:081488002000030C60012003A9
:08149000200320038F0AF80C71
:08149800600120032003200382
:0814A000020CE4010A02200025
:0814A800070C6001A0036003C2
:0814B0008F0AF00C6001A0039B
:0814B800020CE4010A0220000D
:0814C0000F0C6001A003640A97
:0814C8008F0AE00C6001A00393
:0814D0002003020CE4010A02F2
:0814D80020001F0C60016003FD
:0814E000600360038F0AC00CD9
:0814E800600160036003600372
:0814F000020CE4010A022000D5
:0814F8003F0C6001600360037A
:081500008F0A800C60016003FA
:081508006003020CE4010A0279
:0815100020007F0C6001600364
:08151800000000008F0AA4028C
:081520000B022000020CA400E4
:081528000B0220000D00050C70
:081530002A0041000000EA025C
:081538001500990A0D001F0CBB
:081540004300000C2500000C23
:081548000500000C2F00C00C8F
:081550002E0010000209010C3D
:081558002F00180C2E001000FA
:081560000209010C2F00730CBD
:081568002E0010000209030C23
:081570002F00000C2E001000FA
:0815780002090D001F0C4300E5
:08158000000C2500000C050021
:08158800020C2F00000C2E00E4
:081590000D0C2E0110000209F0
:081598000D001F0C4300000CC4
:0815A0002500000C0500020CFF
:0815A8002F00400C2E00200C66
:0815B000240012022E011000BC
:0815B8000209500C24001C0282
:0815C0002A00200C2400000C9D
:0815C8008A004306EF0A030C40
:0815D000F2013C0C920003073C
:0815D800F70A1E0C3200010CA1
:0815E000F201280C9200030740
:0815E800F70A0A0C32000D00A5
:081600000000000000000000E2
:081608000000000000000000DA
:081610007800CC00DC00EC00C6
:08161800CC00CC0078000000BA
:081620003000300070003000C2
:0816280030003000FC0000005E
:081630007800CC000C0018004A
:081638006000C000FC0000008E
:081640007800CC000C0038001A
:081648000C00CC00780000004A
:081650000C001C003C00CC0062
:08165800FE000C000C00000074
:08166000FC00C000F8000C00C2
:081668000C00CC00780000002A
:081670007800CC00C000F80076
:08167800CC00CC00780000005A
:08168000FC00CC001800300052
:081688003000300030000000CA
:081690007800CC00CC007800CA
:08169800CC00CC00780000003A
:0816A0007800CC00CC007C00B6
:0816A8000C00CC0078000000EA
:0816B00030007800CC00FC00C2
:0816B800CC00CC00CC000000C6
:0816C000F800CC00CC00F8009A
:0816C800CC00CC00F80000008A
:0816D0007800CC00C000C0004E
:0816D800C000CC007800000006
:0816E000F000D800CC00CC00A2
:0816E800CC00D800F000000066
:0816F000FC00C000C000F00086
:0816F800C000C000FC0000006E
:08170000FC00C000C000F00075
:08170800C000C000C000000099
:081710007800CC00C000DC00F1
:08171800CC00CC0078000000B9
:08172000CC00CC00CC00FC0061
:08172800CC00CC00CC00000055
:081730007800300030003000A9
:081738003000300078000000D1
:081740003C001800180018001D
:081748001800D8007000000039
:08175000CC00D800F000E0001D
:08175800F000D800CC000000F5
:08176000C000C000C000C00081
:08176800C000C000FC000000FD
:08177000C600EE00FE00FE00C1
:08177800C600C600C600000017
:08178000CC00EC00FC00FC00B1
:08178800DC00CC00CC000000E5
:081790007800CC00CC00CC0075
:08179800CC00CC007800000039
:0817A000F800CC00CC00F800B9
:0817A800C000C000C0000000F9
:0817B0007800CC00CC00CC0055
:0817B800CC0078001C000000C9
:0817C000F800CC00CC00F80099
:0817C800F000D800CC00000085
:0817D0007800CC00C000780095
:0817D8000C00CC0078000000B9
:0817E000FC0030003000300075
:0817E800300030003000000069
:0817F000CC00CC00CC00CC00C1
:0817F800CC00CC0078000000D9
:08180000CC00CC00CC00CC00B0
:08180800CC0078003000000064
:08181000C600C600C600D600A8
:08181800FE00EE00C600000016
:08182000CC00CC007800300080
:081828007800CC00CC000000A8
:08183000CC00CC00CC007800D4
:08183800300030003000000018
:08184000FC000C001800300050
:081848006000C000FC0000007C
:08185000000000000F00100071
:081858002000230024002400FD
:0818600000000000FF00000081
:081868000000FF000000000079
:0818700000000000F000080078
:081878000400C4002400240058
:0818800000000000FF00FF0062
:08188800FF00FF007E003C00A0
:081890002400240024002400C0
:081898002400240024002400B8
:0818A0003C007E00FF00FF0088
:0818A800FF00FF00000000003A
:0818B000000018003C003C00A0
:0818B8003C003C003C003C0038
:0818C0003C003C003C003C0030
:0818C8003C003C001800000088
:0818D00000000000FC00FE0016
:0818D800FE00FC00000000000E
:0818E000000000003F007F0042
:0818E8007F003F00000000003A
:0818F0003C003C003F003F00FA
:0818F8001F000F0000000000BA
:081900003C003C00FC00FC006F
:08190800F800F00000000000EF
:081910000000000000001800B7
:081918001800000000000000AF
:081920000000000018003C006B
:081928003C0018000000000063
:08193000000000000000FF00B0
:08193800FF00000000000000A8
:081940003C007600E700F9000D
:08194800FB00FF007E003C00E3
:081950003C007600E400F80001
:08195800F800FC007E003C00D9
:081960003C007600E700F900ED
:08196800FB00E7004200000053
:081970003C007600270019007D
:081978001B003F007E003C0053
:0819800000004200E700FF0037
:08198800FF00FF007E003C009F
:081990003C007E00DB00DB00DF
:08199800FF00FF00D6009200E1
:0819A0003C007E00DB00DB00CF
:0819A800FF00FF006D00480084
:0819B0003C005A009900FF0001
:0819B800D500AB00FF004A005E
:0819C00000004400AA00AA0087
:0819C8004400000000000000D3
:0819D0001000100044000000AB
:0819D800C300000054001000E0
:0819E000000011002B002200A1
:0819E8006600EE00EE00440071
:0819F0000000000000000000EF
:0819F8000000000000000000E7
:081A0000FF00FF00F600F600F4
:081A0800F600FF00FF00F600EC
:081A1000FF00FF00FF00F600DB
:081A1800FF00FF00FF00FF00CA
:081A2000F600F600FF00F600DD
:081A2800FF00F600F600FF00CC
:081A3000F600F600F600F600D6
:081A3800FF00F600F600F600C5
:081A4000F600F600F600FF00BD
:081A4800F600F600F600FF00B5
:081A5000F600FF00FF00F600A4
:081A5800FF00FF00FF00FF008A
:081A6000F600F600FF00F6009D
:081A6800FF00F600F600FF008C
:081A7000F600F600FF00F6008D
:081A7800F600F600F600FF0085
:081A8000FF00FF00F600F60074
:081A8800F600FF00FF00F6006C
:081A9000FF00FF00FF00F6005B
:081A9800FF00FF00FF00FF004A
:081AA000F600F600F600F60066
:081AA800F600F600F600F6005E
:081AB000F600F600F600F60056
:081AB800F600F600F600F6004E
:081AC0000A001A002A003A0096
:081AC8004A005A006A007A008E
:081AD0008A009A00AA00BA0086
:081AD800CA00DA00EA00EA008E
:081AE000F600F600F600F60026
:081AE800F600F600F600F6001E
:081AF000F600F600F600F60016
:081AF800F600F600F600F6000E
:081B0000080C2C00000C2D0064
:081B080010003009150229004C
:081B100041001E0C2A00130C19
:081B18002B00EB0216008D0BFF
:081B2000EA0216008B0B040C15
:081B28002A0041000000EA025E
:081B30001600950B100C2A00B1
:081B38005D0000000D024100F8
:081B40002900AD024100A40BD5
:081B4800EA029C0B15022900C2
:081B500000000000080C2A004F
:081B5800130C2B00EB02160038
:081B6000AE0BEA021600AC0B0B
:081B6800020C2A0041000000FC
:081B7000EA021600B60BEC02BC
:081B7800840B1000D90B200CB6
:081B800024001E022A00050CDE
:081B88002B00610C2400F60C97
:081B90002A024306CD0BEA0016
:081B98000C0C2000020CE4011A
:081BA000EB02C70B0000050C6D
:081BA8002A0041000000EA02DE
:081BB0001600D50B12003E0ADD
:081C0000FF00000B000B100BAC
:081C0800F80BD00B000B000BE0
:081C1000000B900B980B880BF0
:081C1800900B000BE80B680BB8
:081C2000C80BE00B780B000B70
:081C2800000BFD00000B000B96
:081C3000000B000B080B080B70
:081C3800000B000B000B000B78
:081C4000000B000B000B000B70
:081C4800000B000B080B080B58
:081C5000000B000B2601000B44
:081C5800D00BF80BE80B900B18
:081C6000000BE80BF00B580B20
:081C6800E00BF00B000B600B18
:081C7000F80BF00BF00BC80BA0
:081C7800C00B000B000B200162
:081C8000280C300C300C300C74
:081C8800300C400C300C300C54
:081C9000300C300C300C300C5C
:081C9800300C300C400C300C44
:081CA000300C300C300C380C44
:081CA8002001480C880C880C97
:081CB000880C880C480C880C1C
:081CB800880C880C880C880CD4
:081CC000880C880C880C480C0C
:081CC800880C880C880C880CC4
:081CD000480C2001480C900CA7
:081CD800700C680C880C600C14
:081CE000880C280C300C300CBC
:081CE800300C300C380C880CA4
:081CF000600C880C700C680CFC
:081CF800900C480C2001480C7F
:081D0000880C880C880C880C8B
:081D0800880C880C780C300CEB
:081D1000300C300C300C800C8B
:081D1800880C880C880C880C73
:081D2000880C880C480C20011E
:081D2800780C300C680C880CEB
:081D3000280C380C880C880C0B
:081D3800880C880C880C880C53
:081D4000880C880C280C380CFB
:081D4800880C700C300C800CBB
:081D50002001000B000B000B49
:081D5800880C480C780C380CD3
:081D6000880C280C300C300C3B
:081D6800380C880C280C800CDB
:081D7000480C880C000B000B6D
:081D7800000B2001300C300CBF
:081D8000380C880C780C300CC3
:081D8800800C880C780C300C73
:081D9000300C800C880C780C6B
:081D9800300C800C880C280CB3
:081DA000300C300C2001000B97
:081DA800000B480C880C880CAC
:081DB000880C880C000B000BED
:081DB800000B000B000B000BF7
:081DC000880C880C880C880CCB
:081DC800480C000B000B200188
:081DD000000B000B480C880C0D
:081DD800280C300C680C000B14
:081DE000280C980C980C380C3B
:081DE800000B700C300C380CEC
:081DF000880C480C000B000BED
:081E00002001300C300C800CB5
:081E0800880C600C880C880CAA
:081E1000000B480C000B000B55
:081E1800480C000B880C880C3B
:081E2000600C880C780C300CFA
:081E2800300C2001000B000B3F
:081E3000000B880C880C880CE3
:081E3800580C000B480C000BD4
:081E4000000B480C000B580CCC
:081E4800880C880C880C000BCB
:081E5000000B000B2001300C17
:081E5800300C380C880C700CF2
:081E6000300C800C000B780C23
:081E6800300C300C800C000B63
:081E7000780C300C680C880CA2
:081E7800280C300C300C200195
:081E8000000B000B480C880C5C
:081E8800880C880C880C000B8B
:081E9000000B000B000B000B1E
:081E9800000B880C880C880C7B
:081EA000880C480C000B000B3C
:081EA8002001280C300C800C15
:081EB000880C700C400C300C92
:081EB800680C880C700C680C2A
:081EC000880C700C300C400C82
:081EC800680C880C780C300C4A
:081ED000380C2001480C880CBD
:081ED800880C880C880C480CF2
:081EE000880C880C880C880CAA
:081EE800880C880C880C880CA2
:081EF000480C880C880C880CDA
:081EF800880C480C2001480C85
:081F0000880C280C380C880C39
:081F0800480C880C280C300C79
:081F1000300C300C300C380CD1
:081F1800880C480C880C280C11
:081F2000380C880C480C20016C
:081F2800480C900C780C800CB1
:081F3000880C600C880C780C91
:081F3800300C300C300C300CB1
:081F4000800C880C600C880C79
:081F4800780C800C900C480C91
:081F50002001480C880C880CEC
:081F5800880C880C880C880C31
:081F6000880C880C000B000B3B
:081F6800880C880C880C880C21
:081F7000880C880C880C880C19
:081F7800480C2001780C300C2C
:081F8000300C300C300C300C69
:081F8800300C300C300C300C61
:081F9000300C300C300C300C59
:081F9800300C300C300C300C51
:081FA000300C800CFF00000B67
:081FA800000B000B000B000B05
:081FB000000B000B000B000BFD
:081FB800000B000B000B000BF5
:081FC000000B000B000B000BED
:081FC800000B000B000BF600FA
:081FD000A80CA80CA80CA80C39
:081FD800A80C000B000B000B2C
:081FE000000B000B000B000BCD
:081FE800000B000B000B000BC5
:081FF000000B000B000B000BBD
:021FFE00B80A1F
:08200000F70FF20FF60FF50FC8
:08200800F60FFD0FF70FF00FBA
:08201000F60FF10FF60FF30FBC
:08201800FF0FFF0FFF0FFF0F88
:10202000AA0FFF0FFFFF04ABC40400B4FFFF0000C2
:00000001FF
