:0800000070007100F002020A19
:08000800F102020A0C001A00CB
:08001000000C2900000C09009E
:08001800000C2600000C06009C
:08002000000C3200000C390055
:08002800000C3A00050C350044
:08003000C00C3600F60C29009B
:080038001D0A1E0A0000000071
:08004000010C3700180C380018
:08004800F802240AF702220A63
:08005000010C37002B0A2C0AF9
:08005800F7022A0AF00C29004E
:08006000310A0000030C370017
:08006800180C3800F802360AFA
:08007000F702340A070C370007
:080078003D0A3E0AF7023C0AB2
:08008000F60C2900430A440AB2
:08008800040C3700470A480A86
:08009000F702460A15022900DF
:080098004D0A4E0A00000000B1
:0800A000010C3700180C3800B8
:0800A800F802540AF702520AA3
:0800B000090C37005B0A5C0A31
:0800B800F7025A0AF60C2900B8
:0800C000610A620A010C37001D
:0800C800180C3800F802660A6A
:0800D000F702640A020C37007C
:0800D8006D0A6E0AF7026C0AC2
:0800E000710A0000150C370045
:0800E800180C3800F802760A3A
:0800F000F702740AEA0C290072
:0800F8007D0A7E0A00000000F1
:08010000030C3700180C380055
:08010800F802840AF702820AE2
:08011000090C37008B0A8C0A70
:08011800F7028A0AF60C290027
:0801200000000000110C370083
:08012800180C3800F802960AD9
:08013000F702940AF6021A0A14
:080138001C0C3600F60C290036
:08014000A10AA20A0000000060
:08014800010C3700180C38000F
:08015000F802A80AF702A60A52
:08015800010C3700AF0AB00AE8
:08016000F702AE0AF00C2900C1
:08016800B50A0000030C37008A
:08017000180C3800F802BA0A6D
:08017800F702B80A070C37007A
:08018000C10AC20AF702C00A1D
:08018800F60C2900C70AC80AA1
:08019000040C3700CB0ACC0A75
:08019800F702CA0A1502290052
:0801A000D10AD20A00000000A0
:0801A800010C3700180C3800AF
:0801B000F802D80AF702D60A92
:0801B800090C3700DF0AE00A20
:0801C000F702DE0AF60C29002B
:0801C800E50AE60A010C37000C
:0801D000180C3800F802EA0ADD
:0801D800F702E80A020C3700EF
:0801E000F10AF20AF702F00A2D
:0801E800FF0C290000000000DB
:0801F0002A0C3700180C38003E
:0801F800F802FC0AF702FA0A02
:08020000F6029E0A040C360010
:08020800F00C2900070B0000B7
:08021000320C3700180C380015
:08021800F8020C0BF7020A0BBF
:08022000070C3700130B140B4F
:08022800F702120BF602040BB1
:08023000260C3600F60C290033
:080238001D0B1E0B000000006D
:08024000010C3700180C380016
:08024800F802240BF702220B5F
:08025000010C37002B0B2C0BF5
:08025800F7022A0BF00C29004B
:08026000310B0000030C370014
:08026800180C3800F802360BF7
:08027000F702340B070C370004
:080278003D0B3E0BF7023C0BAD
:08028000F60C2900430B440BAE
:08028800040C3700470B480B82
:08029000F702460B15022900DC
:080298004D0B4E0B00000000AD
:0802A000010C3700180C3800B6
:0802A800F802540BF702520B9F
:0802B000090C37005B0B5C0B2D
:0802B800F7025A0BF60C2900B5
:0802C000610B620B010C370019
:0802C800180C3800F802660B67
:0802D000F702640B020C370079
:0802D8006D0B6E0BF7026C0BBD
:0802E000FF0C290000000000E2
:0802E8002A0C3700180C380045
:0802F000F802780BF702760B0F
:0602F800F6021A0B180AC1
:021FFE00070AD0
:08200000FF0FFF0FFF0FFF0FA0
:08200800FF0FFF0FFF0FFF0F98
:08201000FF0FFF0FFF0FFF0F90
:08201800FF0FFF0FFF0FFF0F88
:10202000AA0FFF0FFFFF04ABC40400B4FFFF0000C2
:00000001FF
