:0800E4001A00000C2500FC0CC1
:0800EC000500000C2900000CC6
:0800F4000900000C2600000CBD
:0800FC000600000C3200000CAC
:080104003700000C38007E00FA
:08010C001D0072007300FF0CDE
:080114003E00800C38001A00C7
:08011C001F007000800C31008F
:080124001A007D001D004A0CC9
:08012C0034007500480C360098
:0801340077007A007B00300C1B
:08013C003C007D00100C3F00A7
:080144001A0014006F09400CC1
:08014C00360012000009400C0E
:080154002A001602AA000304B0
:08015C002A0303042A03030433
:080164002A03020CEA01050C5C
:08016C002B000A02EB011F0049
:0801740011022C0003040C022F
:08017C002D000304100CED013D
:080184001A006A0000000C02E1
:08018C008A000307E40A0000E9
:0801940000000A028D000307C0
:08019C00E60A00000000FF0C60
:0801A4002900D40AD50A00006D
:0801AC000000010C3000DA0A2A
:0801B400DB0AF002D90AAA02DD
:0801BC000305680C8A0003072B
:0801C400C50AF90AE50AE60A82
:0801CC000B022900E90AEA0A0E
:0801D40000000000010C3000E6
:0801DC00EF0AF00AF002EE0A3E
:0801E400AA020305680C8A0061
:0801EC000307C50AF90AFA0A2B
:0801F400FB0A010C3000FE0AB9
:0801FC00FF0AF002FD0AF60003
:08020400D30CD6010306A70A82
:08020C0012000009400C2A0059
:080214001602AA0003042A03EC
:08021C0003042A0303042A0372
:08022400020CEA01050C2B009D
:08022C000A02EB01B60C2A00E6
:08023400000C2D001E02ED017B
:08023C005D000D0241002C00E1
:08024400AD0216028C00030755
:08024C002C0B00000000D90C8E
:0802540029002F0B0B02290009
:08025C002F0BEA021E0BF60253
:08026400060B840C3500600C50
:08026C00360012000009130026
:080274000009F602370B1C0C17
:08027C00360012005709F00CD6
:08028400290014000009260CFA
:08028C00360012005709940A24
:08080000F50C2900030A040AAB
:0808080000000000010C3000AB
:08081000180C3100F1020A0A84
:08081800F002080A010C300097
:08082000110A120AF002100A8D
:08082800F00C2900170A000082
:08083000030C3000180C31002C
:08083800F1021C0AF0021A0A89
:08084000070C3000230A240A12
:08084800F002220AF50C290060
:08085000290A2A0A040C3000F9
:080858002D0A2E0AF0022C0A01
:0808600015022900330A340AD5
:0808680000000000010C30004B
:08087000180C3100F1023A0AF4
:08087800F002380A090C3000FF
:08088000410A420AF002400A9D
:08088800F50C2900470A480A9B
:08089000010C3000180C3100CE
:08089800F1024C0AF0024A0AC9
:0808A000020C3000530A540A57
:0808A800F002520A0D00F50CEC
:0808B00029005A0A5B0A00004E
:0808B8000000010C3000180CD7
:0808C0003100F102610AF002AF
:0808C8005F0A010C3000680A10
:0808D000690AF002670AF00C4E
:0808D80029006E0A0000030C68
:0808E0003000180C3100F10298
:0808E800730AF002710A070C0B
:0808F00030007A0A7B0AF002D5
:0808F800790AF50C2900800AC1
:08090000810A040C3000840A96
:08090800850AF002830A1502C2
:0809100029008A0A8B0A00008D
:080918000000010C3000180C76
:080920003100F102910AF0021E
:080928008F0A090C3000980A47
:08093000990AF002970AF50C88
:0809380029009E0A9F0A010C30
:080940003000180C3100F10237
:08094800A30AF002A10A020C4F
:080950003000AA0AAB0AF00214
:08095800A90AF50C29000000BA
:0809600000002A0C3000180C05
:080968003100F102B50AF002B2
:08097000B30AF602570A0D005C
:0809780005024701000D2500F6
:0809800025040000000005053C
:0809880000000000050400005E
:0809900000002505100C3000E9
:080998007C037B034507D20A32
:0809A0001C05D30A1C04000031
:0809A80000000505000000003D
:0809B000050400000000F00244
:0809B800CC0A05024701000D05
:0809C000000025000D001200EB
:0809C800BC091D0013022A0006
:0809D0001A000304FF0CCA0128
:0809D8000307060B5C06F90A97
:0809E0001D000304FE0CD80108
:0809E8000307F90A0305020CE4
:0809F000B8001A007C06050B9B
:0809F8001D000305FE0C980030
:080A00000306050B0304020CC0
:080A0800F8011A001C06410B65
:080A10001D00B20212022A00CF
:080A18000F0C6A010A0C8A00B0
:080A20000307200BF00C72012A
:080A280012022A00F00C6A0121
:080A30000304100CEA010F0C95
:080A380072010A0232012F0BCA
:080A40000000000000000000AE
:080A48000000000000000000A6
:080A500000000000000000009E
:080A5800000000002F0B120248
:080A60002A002A032A032A03DD
:080A68002A030F0C6A01090CBE
:080A70008A0003073F0B990CFB
:080A780032000000400B400BAE
:080A80001A003C06720B1D0078
:080A8800F20012022A000F0C1B
:080A90006A010A0C8A00030749
:080A9800520BF00C7201090C75
:080AA0003201610B00000000AF
:080AA800000000000000000046
:080AB00000000000000000003E
:080AB800000000000000000036
:080AC000610B12022A002A0357
:080AC8002A032A032A030F0C84
:080AD0006A010A0C8A00030709
:080AD800700B72000000710BAD
:060AE000710B1A000D006D
:080C00005A0C96000307130AC9
:080C080000000000600C2A004E
:080C10001602AA0003042A03E6
:080C1800020CEA01850C2F001B
:080C20000A02EF01220A0000A4
:080C28000000000000000000C4
:080C30000000000000000000BC
:080C38000000000000008A0C1E
:080C40002F00220A600C2A00BB
:080C480003051602AA001D00BD
:080C5000800C98000307390A2B
:080C580018022C000305800CBA
:080C6000AC00800C2B00030521
:080C68000C02AB00400C2D0052
:080C7000440A18022B00000CDD
:080C78002D0000000000000047
:080C8000000000000000440A1E
:080C880003042B0303040B021B
:080C9000EA01C00CCA010307D0
:080C9800500A3F0C2A00530A28
:080CA00000000000530A0304E8
:080CA8000D02EA015C00000CE2
:080CB0000304CA0141003900F0
:080CB8001A022B001B022A00A6
:080CC0000304800CEA01000CA2
:080CC800EB0103041E02EB0125
:080CD000FE0C6B017F0C8B0090
:080CD8000306DA0A0000000027
:080CE00016022A0003041902A8
:080CE800EA010F022900780A5D
:080CF0000000010C30007C0A39
:080CF8007D0AF0027B0AEA020A
:080D0000750A820A830A000053
:080D08000000040C3000180C7F
:080D10003100F102890AF00232
:080D1800870A090C3000900A63
:080D2000910AF0028F0A14028F
:080D28002A0003041602AA00D0
:080D3000FF0C29009B0A0000E2
:080D3800010C30009F0AA00A23
:080D4000F0029E0AEA02980A83
:080D4800A00C2A0003041402B0
:080D5000AA0003041402AA002A
:080D5800F80C2900AF0A0000AD
:080D6000010C3000B30AB40AD3
:080D6800F002B20AEA02AC0A33
:080D700014022A00030416021C
:080D7800AA00FF0C2900C00ACB
:080D80000000010C3000C40A60
:080D8800C50AF002C30AEA02E9
:080D9000BD0A16022A00190237
:080D9800AA000F022900D00A95
:080DA0000000010C3000D40A30
:080DA800D50AF002D30AEA02A9
:080DB000CD0A440B16022A00D3
:080DB80003041902EA010F0215
:080DC0002900E20A0000010C09
:080DC8003000E60AE70AF00220
:080DD000E50AEA02DF0AEC0A61
:080DD800ED0A00000000040C0C
:080DE0003000180C3100F10293
:080DE800F30AF002F10A090C04
:080DF0003000FA0AFB0AF002D0
:080DF800F90A14022A000304A9
:080E00001602AA00E90C29000A
:080E0800050B0000010C300095
:080E1000090B0A0BF002080BAC
:080E1800EA02020BA00C2A0003
:080E200003041402AA000304FC
:080E28001402AA00F80C2900D5
:080E3000190B0000010C300059
:080E38001D0B1E0BF0021C0B48
:080E4000EA02160B14022A005D
:080E480003041602AA00E90CE4
:080E500029002A0B0000010C2F
:080E580030002E0B2F0BF002FD
:080E60002D0BEA02270B16021C
:080E68002A001902AA000F0282
:080E700029003A0B0000010CFF
:080E780030003E0B3F0BF002BD
:080E80003D0BEA02370B440BA5
:080E88000000040C3000180CFE
:080E90003100F102490BF002F0
:080E9800470B030C3000500B66
:080EA000510BF0024F0B03049B
:080EA8001D02FB011C02FA010E
:080EB000FE0C7A01000C2B007E
:080EB8007F0C2A006B027F028F
:080EC0000304010CFF0103060D
:080EC800AB0203041F02FD014F
:080ED0000B02FC01080CFF01FC
:080ED80003048F0CF501030671
:080EE000F4000304BF0CF7014C
:080EE8000306F6001A000D00DC
:081000001200E3091D00E404E5
:0810080012022A000F0C6A011C
:081010000A02330012022A005B
:081018002A032A032A032A031C
:081020000F0C6A0103046A03CE
:081028000A022B006A036A03AF
:081030000A02EB010B02F301BF
:0810380003051302BE00FE0CCB
:081040007E0113022A000304E3
:081048006A031F00E404030425
:081050000A02F0011D00E40496
:0810580003075D0A18022A00DB
:081060001A00E404800C8A0070
:081068000307490A0305800C8F
:08107000AA0003042A03030493
:081078002A0303042A03030408
:081080002A0303042A03030400
:081088002A0303040A02FE0121
:081090005D0A800C2B00030532
:081098000A02AB0003042B0364
:0810A00003042B0303042B03DE
:0810A80003042B0303042B03D6
:0810B00003042B0303050B02EE
:0810B800BE001A00E404600A06
:0810C000CA0C3000180C3100CD
:0810C800F102640AF002620A61
:0810D000070C30006B0A6C0AEA
:0810D800F0026A0A0D001D0080
:0810E00012022E00F00C6E015B
:0810E8002E032E032E032E033C
:0810F0000F0C6E0112022F002B
:0810F8000F0C6F0103046E03ED
:081100006E036E0303046F038C
:081108006F036F031A00B40C21
:0811100035000D0C3600120041
:081118000009060C2900900AF1
:08112000910A00000000290CF7
:081128003000180C3100F10247
:08113000970AF002950A080C71
:0811380030009E0A9F0AF0023C
:081140009D0AF6028B0A050C62
:08114800360012000009060C3C
:081150002900AA0AAB0A000005
:081158000000030C3000180C2C
:081160003100F102B10AF002B6
:08116800AF0A090C3000B80ABF
:08117000B90AF002B70A5E00A3
:08117800050C2C000304160213
:08118000AC000E02EC01500C62
:08118800CC0141002B00080C12
:081190002A000B022C00800C68
:081198006C012C024306D50A8C
:0811A00000000000FF0C290013
:0811A800D80A060C2900D80A40
:0811B0006B030000EA02C90A0A
:0811B800060C2900DF0AE00A21
:0811C00000000000010C3000EA
:0811C800E50AE60AF002E40A60
:0811D0005E00050C2C00030475
:0811D8001602AC000F02EC014D
:0811E000500CCC0141002B0072
:0811E800080C2A000B022C0088
:0811F000800C6C012C02430687
:0811F800020B00000000FF0CD7
:081200002900050B060C290072
:08120800050B6B030000EA0274
:08121000F60A060C29000C0B84
:081218000000220C3000180C4C
:081220003100F102110BF00294
:081228000F0B010C3000180B44
:08123000190BF002170BF60286
:08123800A50A0E0C360012009D
:081240000009060C2900240B33
:08124800250B2A0C3000180CE4
:081250003100F102290BF0024C
:08125800270BF6021F0B0D002D
:08180000E300E400E500E6004E
:08180800E600E700E800E9003A
:08181000EA00EA00EB00EC0025
:08181800ED00EE00EE00EF0010
:08182000F000F000F100F200FD
:08182800F300F300F400F500E9
:08183000F500F600F600F700D8
:08183800F800F800F900F900C6
:08184000FA00FA00FB00FB00B6
:08184800FC00FC00FD00FD00A6
:08185000FD00FE00FE00FE0099
:08185800FE00FE00FE00FE0090
:08186000FE00FE00FE00FE0088
:08186800FE00FF00FF00FF007D
:08187000FF00FF00FF00FF0074
:08187800FF00FF00000000006A
:081880001D001C001B001A00F2
:081888001A00190018001700F6
:081890001600160015001400FB
:08189800130012001200110000
:0818A000100010000F000E0003
:0818A8000D000D000C000B0007
:0818B0000B000A000A00090008
:0818B80008000800070007000A
:0818C00006000600050005000A
:0818C80004000400030003000A
:0818D000030002000200020007
:0818D800020002000200020000
:0818E0000200020002000200F8
:0818E8000200010001000100F3
:0818F0000100010001000100EC
:0818F8000100010000000000E6
:081A00000F000E000E000D00A6
:081A08000B000A0009000800B0
:081A10000600050006000600B7
:081A18000700080009000B00A3
:081A20000C000E001000120082
:081A2800130014001600180061
:081A30001800180019001A004B
:081A38001A0018001700170046
:081A400016001500140013004C
:081A480013001200120012004D
:081A500011001100110011004A
:081A580011001200120012003F
:081A600013001400150016002C
:081A6800170017001800180018
:081A7000190019001A001A0008
:081A78001B001B001C001C00F8
:081A80001B001B001A001900F5
:081A88001900180017001700F7
:081A90001700170017001800F1
:081A9800180019001A001B00E0
:081AA0001C001C001C001C00CE
:081AA8001C001C001D001D00C4
:081AB0001D001D001E001E00B8
:081AB8001F001F0020002100A7
:081AC000220023002400240091
:081AC800240024002300220089
:081AD000210020001F001E0090
:081AD8001B00180017001600A6
:081AE0001700170018001800A0
:081AE80019001A001B001B008D
:081AF0001C001C001D00200079
:081AF80022002200230023005C
:081B000024002500240023004D
:081B08002200210020001F0053
:081B10001E001E001D001C0058
:081B18001B001A00190019005E
:081B200018001800180017005E
:081B2800160015001400140062
:081B3000130013001200110064
:081B3800110010000F000F0066
:081B4000100011001100120059
:081B480013001300130012004A
:081B5000110010000F000E004F
:081B58000E000D000D000C0051
:081B60000C000C000C000B004E
:081B68000B000B000C000C0047
:081B70000D000E000F00100033
:081B7800110013001500160016
:081B80001700180018001900FD
:081B88001B001C001D001F00E2
:081B90001E001E001D001C00D8
:081B98001B001A0019001900DE
:081BA0001800180018001700DE
:081BA8001600150014001400E2
:081BB0001300130012001100E4
:081BB800110010000F000F00E6
:081BC0001000100011001100DB
:081BC8001200130014001600C6
:081BD000180019001A001B00A7
:081BD8001B001A00190019009E
:081BE00018001800180017009E
:081BE8001600150014001400A2
:081BF0001300130012001100A4
:081BF800110010000F000F00A6
:081C0000C000E700FF00350001
:081C0800E70081000700030062
:081C10000000F800FE00550081
:081C1800FC008000E000C000A8
:081CA000FF00C300DB00C300DC
:081CA800FF0000000000000035
:081CB0003800180018001800AC
:081CB800FF0000000000000025
:081CC000FF000300FF00C0005B
:081CC800FF0000000000000015
:081CD000FF000300FF00030008
:081CD800FF0000000000000005
:081CE000C300C300FF00030074
:081CE8000300000000000000F1
:081CF000FF00C000FF0003002B
:081CF800FF00000000000000E5
:081D0000FF00C000FF00C3005A
:081D0800FF00000000000000D4
:081D1000FF00030003000300C3
:081D18000300000000000000C0
:081D2000FF00C300FF00C30037
:081D2800FF00000000000000B4
:081D3000FF00C300FF000300E7
:081D3800FF00000000000000A4
:061D40000000000000009D
:021FFE00720A65
:08200000FF0FFF0FFF0FFF0FA0
:08200800FF0FFF0FFF0FFF0F98
:08201000FF0FFF0FFF0FFF0F90
:08201800FF0FFF0FFF0FFF0F88
:10202000AA0FBF0FFFFF04ABC40400B4FFFF000002
:00000001FF
