:08000400000C25000B0C2C0080
:08000C0065044F070B0A85058E
:080014000C0A8504030C2A000C
:08001C0041000000EA0210009F
:080024000E0A6505030C2A0019
:08002C0041000000EA0210008F
:08003400160A6E036F03EC02D3
:08003C00060AA504030C2A00CA
:0800440041000000EA02100077
:08004C00220AA505030C2A009D
:0800540041000000EA02100067
:08005C002A0AA5040D00F60CB0
:08006400290041004100010CDC
:08006C002A00130C2B00EB022B
:080074001000390AEA02100035
:08007C00370A010C2A004100C3
:080084000000EA021000410A2D
:08008C00F00C29004100030CF7
:080094002A00130C2B00EB0203
:08009C0010004D0AEA021000F9
:0800A4004B0A070C2A00410081
:0800AC000000EA021000550AF1
:0800B400F60C290041000000D8
:0800BC000000040C2A004100C1
:0800C4000000EA021000610ACD
:0800CC00050C29004100410070
:0800D400010C2A00130C2B00A3
:0800DC00EB0210006E0AEA02BB
:0800E40010006C0A090C2A004F
:0800EC0041000000EA021000CF
:0800F400760AF60C2900000059
:0800FC0000000000010C2A00C5
:08010400130C2B00EB021000AC
:08010C00840AEA021000820AD5
:08011400020C2A00410000006A
:08011C00EA0210008C0A0D003C
:080124001300F90A1300990A07
:08012C00F00C2400080C38005F
:0801340039003A003B003C00D9
:08013C00500C24006E0C2A0097
:080144006000A402EA02A20A15
:08014C00C00C2400F60C200099
:0801540014002309100C240023
:08015C0078000A0C3900AA0C1E
:080164003A00000C2900000C18
:08016C000900ED0C3100130045
:080174000109100C2400F60C37
:08017C003100100C240070009A
:080184006E006F000E0C2C0050
:08018C00720041004100250C46
:080194002A00130C2B00EB0202
:08019C001000CD0AEA02100078
:0801A400CB0A020C2A00410005
:0801AC000000EA021000D50A70
:0801B400110229000C024300B6
:0801BC000F0241002D00AF020B
:0801C400D00C2400140C2B00E8
:0801CC000C0243000F02410088
:0801D400CE0141002000A4024D
:0801DC000D022000A402AF0295
:0801E400EB02E60A4100F60AF5
:0801EC0010003109100C240081
:0801F400110229001200000AAB
:0801FC00100C240014022E0077
:0802040015022F0016022B0069
:08020C0017022C00D00C2400A5
:08021400040C2A00130C2B005E
:08021C00EB0210000E0BEA02D8
:0802240010000C0B140C2B0060
:08022C00A40200022D00E40011
:08023400F60CE0060D022900A2
:08023C0060034100210B220BBD
:08024400F60CE0060D02290092
:08024C0060034100290B2A0B9D
:08025400F60CE0060D02290082
:08025C0060034100310B320B7D
:08026400F60CE0060D02290072
:08026C0060034100390B3A0B5D
:08027400F60CE0060D02290062
:08027C0060034100410B420B3D
:08028400F60CE0060D02290052
:08028C0060034100490B4A0B1D
:08029400F60CE0060D02290042
:08029C0060034100510B520BFD
:0802A400F60CE0060D02290032
:0802AC006003020CE401EB0207
:0802B400160B100C24001102CE
:0802BC002900040C2A00130CB8
:0802C4002B00EB021000630B9C
:0802CC00EA021000610B150CA1
:0802D400AF00AE02080C8E0021
:0802DC0003077F0B6E00150CF7
:0802E400EF01B202FC0C8F00D7
:0802EC0043077C0B6F000F0CAF
:0802F4002C00830B0000000048
:0802FC00830B410041000000EA
:08030400830B41004100860B50
:08030C00B002C00C90000307D1
:08031400DA0A000000004100BC
:08031C00040C2A00130C2B0055
:08032400EB021000920BEA024B
:08032C001000900B060C2A00E2
:0803340041000000EA02100084
:08033C009A0B1600B80B190C16
:080344002C0010003109110228
:08034C00290041004100290CC9
:080354002A00130C2B00EB0240
:08035C001000AD0BEA021000D5
:08036400AB0B090C2A0041005B
:08036C000000EA021000B50BCD
:08037400EC02A30BF00C2900C0
:08037C00C70C0200000C210077
:040384001100000A5A
:08040000140046091F0C430023
:08040800000C2500FC0C0500AE
:080410000502070E250025047A
:080418000000050500000504C9
:0804200000002505100C2A0064
:080428006F036E0345071A0A79
:080430000F051B0A0F04000078
:080438000505000005040000A9
:08044000EA02140A0502070E8E
:080448002500100C240018022D
:08045000E2012E0A730A760A8C
:08045800180BA10B8F066C0AC2
:08046000F00C2400080C380028
:0804680039003A003C00100CC1
:080470003B00C00C2400F60C57
:080478002000A4021A0C200070
:08048000A402370C2000A402C5
:08048800FD0C2000A402870C0A
:080490002000A402AB0C2000C7
:08049800A402CB0C2000A40219
:0804A000E80C2000A402FF0C8F
:0804A8002000500C24006E0C32
:0804B0002A006000A402EA0228
:0804B800590A100C2400010C8C
:0804C0003800F60C390073004E
:0804C800200C2400060C30009A
:0804D000010C3D007E00C70B8A
:0804D800100C2400070CD307EF
:0804E0000A0C3900C70B1300E0
:0804E8000009C70B200C2400E1
:0804F0007A00F8004307830ABB
:0804F800280C38001D02B800B9
:08050000B800010C3A00100CD8
:0805080024000F023500200C55
:08051000240012022A0013026C
:080518002B0014022C0011025B
:080520002D00500C2400000C1A
:080528002E0010009209100CD6
:08053000240015022F00200C2D
:08053800240012023500130239
:080540003600140237008F069B
:08054800AF0A1B06B00A1B05F7
:08055000B402040C940003073F
:08055800B00A7400B00A1B0494
:080560002F06B80A040C9800F4
:080568000307B80A040C380077
:0805700039024306BD0AF9003F
:08057800C70A4F06C20AF20097
:08058000040C39006F06C70AE4
:08058800B202040C3900200C42
:08059000240012022A001302EC
:080598002B0014022C001102DB
:0805A0002D00500C2400100096
:0805A80094092E024306E20A49
:0805B000200C240015023200AA
:0805B80017023400050C2E00AF
:0805C00013002009200C2400A7
:0805C8003A024306070B120280
:0805D0002A0013022B00AB020C
:0805D80014022C0011022D0099
:0805E000500C240010009409E6
:0805E8002E024306040B100C67
:0805F0002400030C3800200C6C
:0805F8002400280C3C00130C48
:080600002E0013002009070B76
:08060800200C2400B302200CB9
:08061000240012022A0013026B
:080618002B0014022C0011025A
:080620002D00500C2400010C18
:080628002E0010009209C70B1F
:08063000200C2400FC0043062D
:08063800520B2C0C2E001C02D9
:08064000AE0013002009880C34
:080648005C07220C2D006C0080
:08065000130C2B00500C2400D8
:08065800050C2A000002F00E5F
:080660004306450B00020F0EDA
:080668004306450BA402EA0061
:0806700043072E0BAC02050C40
:08067800A400050C2A000D028C
:080680002000A402EA00430778
:080688003F0B0A02E401EB0044
:0806900043072C0B2C02430769
:08069800C70B100C2400010C3B
:0806A0003800C70B6F00130CBA
:0806A8002B00500C2400050C8E
:0806B0002A00220C8000430720
:0806B8007A0BA402EA004307DB
:0806C000590BAF02550C840038
:0806C8004306710BE400050C70
:0806D000A40000022B006000F1
:0806D800050CE4010B022000F7
:0806E000620B050C2A00500C0E
:0806E80024006000A402EA02F4
:0806F000750B530B0A02E40133
:0806F800EB004307570B2F0232
:0807000043069C0B200C2400B1
:080708000F02FE010F022A009E
:0807100013006509200C240010
:080718001D022A0003046A031C
:080720006A036A036A030A027E
:080728009E0003079C0BBD02BB
:08073000010C2A0013007C09F2
:08073800100C2400010C380034
:08074000C70B100C2400C80CCB
:080748002A001302AA00AA0313
:080750000F0C6A01F70CCA014D
:080758000307B00B080C2A0096
:08076000F60CEA01C10C2400B3
:080768000A022000A402C80CE3
:0807700084000307B40B100C18
:08077800240013022A00C80C42
:080780008A004307C60B000CC0
:080788003800C70BC70B100C71
:080790002400B3024F0C8100AC
:080798000307CA0B010C2A0043
:0807A000130C2B00EB02110009
:0807A800D20BEA021100D00B94
:0807B000210C2C00100031099E
:0807B80011022900EC00000C05
:0807C0008C0043061100F90B47
:0807C80041000000290C2A0089
:0807D000130C2B00EB021100D9
:0807D800EA0BEA021100E80B34
:0807E000090C2A004100000091
:0807E800EA021100F20B1100FE
:0607F000DA0B1000BF0A45
:080800000E0234000F02350066
:080808000B0236000C02370060
:0808100012022A0003046A032E
:080818000A02E20112003E0A8F
:080820001200FF0A1200520A47
:080828001200A00A1200A00A50
:080830001200A00A1200B60A32
:080838001200B60A1200B60A14
:080840001200A00A1200A00A38
:080848001200A00A1200A00A30
:080850001200A00A1200A00A28
:080858001200A00A1200A00A20
:080860001200A00A1200A00A18
:080868001200A00A1200A00A10
:080870001200A00A12003E0A6A
:0808780012003E0A4100040CCD
:080880002A00130C2B00EB020F
:080888001200430AEA0212000B
:08089000410A050C2A00410099
:080898000000EA0212004B0A05
:0808A0001000FE0A100C2400F8
:0808A80019022B00D10C240001
:0808B000140C2A000B022000C9
:0808B800A402A402EA025B0A9B
:0808C0004100000000000000EF
:0808C800030C2A00130C2B00A5
:0808D000EB021200680AEA02C3
:0808D8001200660A1000FE0A7E
:0808E000410C2C001202EC0196
:0808E800EC01EC01EC01EC0154
:0808F000D90C2D000C022400BC
:0808F800000224002F00A403FC
:080900000F0C6401C00CE401BE
:0809080000022B000D02240087
:080910000B022000020CED01B6
:080918000F0224000F0C640122
:08092000C00CE40100022B00F1
:080928000D0224000B02200067
:08093000020CED01AC02ED0C1C
:080938008D0003077A0A0D008F
:08094000700941000000020CE7
:080948002A00130C2B00EB0246
:080950001200A70AEA021200DE
:08095800A50A040C2A0041006D
:080960000000EA021200AF0AD8
:080968001000FE0A7009100CDA
:080970002400920C2C0012027D
:08097800EC01EC01EC01EC01C3
:08098000EC01EF0C2D000C024C
:080988002400000224002F00EE
:08099000A4030F0C6401C00C6C
:08099800E40100022B000D0236
:0809A00024000B022000020CF0
:0809A800ED010F0224000F0C09
:0809B0006401C00CE401000227
:0809B8002B000D0224000B02CC
:0809C0002000020CED01AC0265
:0809C800F70C8D000307C30AC0
:0809D0004100000000000000DE
:0809D800010C2A00130C2B0096
:0809E000EB021200F00AEA022A
:0809E8001200EE0A050C2A00C2
:0809F00041000000EA021200C0
:0809F800F80A1000FE0A030CCE
:080A00002B00F70C24000B028F
:080A0800E40100022A00DC0CED
:080A100024000B02A400A40065
:080A18005B000A02CE0141005F
:080A20002000EB02010B020CA7
:080A28002B00FA0C24000B0264
:080A3000E40100022A00F20CAF
:080A380024000B02A400A4003D
:080A40005B000A02CE01410037
:080A48002000EB02150B410038
:080A500041000000030C2A0024
:080A5800130C2B00EB0212004D
:080A60002E0BEA0212002C0B20
:080A6800030C2A00410000000C
:080A7000EA021200360B10002F
:020A7800FE0A74
:080C0000500B1F0C4300000C17
:080C08002500000C0500000CA2
:080C10002F00E00C2E00100083
:080C18000209010C2F00980CE9
:080C20002E0010000209010C76
:080C28002F007B0C2E001000D0
:080C30000209010C2F00110C58
:080C38002E00100002090D005E
:080C40001F0C4300000C25000D
:080C4800000C0500020C2F0056
:080C5000800C2E0110000209C6
:080C58000D001F0C4300FF0C0E
:080C60002600FF0C06001E0C2B
:080C68004300000C06001F0C04
:080C70004300000C2700000CFA
:080C780007006E001F0C430091
:080C8000FF0C2600000C060029
:080C880066044100470A480A16
:080C900066051F0C4300FF0C78
:080C98002600FF0C06006606B1
:080CA0000D0086060D00660739
:080CA800530A0304080C2A00A2
:080CB0006606580A8607EE04EF
:080CB8008606EE052E03660717
:080CC0005F0AEA02580A6E0304
:080CC8000D00F00C2400080CE3
:080CD000F801580C980003071D
:080CD800790A080C3800080C31
:080CE000F901580C990003070B
:080CE800790A080C3900080C20
:080CF000FA01EA02670A0D0097
:080CF800F00C2400080CFB01C4
:080D0000580C9B000307880A50
:080D0800080C3B00080CFC0183
:080D1000EA027E0A0D009A06BA
:080D1800990CFA01BA06270C40
:080D2000FA017A066C0CFA01DD
:080D2800BA031302FA019A0359
:080D30000D000B02E401E401D7
:080D3800E401E401E4010402FE
:080D40002E000A022B00EA0755
:080D48000304EA0603052B0376
:080D50000B02E40103046C0333
:080D58000C022B0003046D03E3
:080D60006D036D030D02EB01B0
:080D6800F00C2D006F000A07DA
:080D7000BC0AAD03010C2F00C9
:080D78006A00800C2C005D00F4
:080D80000B0241004C01430687
:080D8800DD0AAF0C8400030634
:080D9000F80A0E0284000307BB
:080D9800F80A040CEE0104024C
:080DA0008E000307F80A040CA1
:080DA800AE00500C84000307AB
:080DB000DD0A00024D014307BA
:080DB800F80A03042C030306F2
:080DC0002C03AD03010CAF018F
:080DC8004306A402AA020A027C
:080DD000030E4307EF0A030CB8
:080DD800E401050CEE01080C1A
:080DE0008A004306AB02100C6F
:080DE8008A000307BF0A6E0038
:080DF0000D000B02E401E40117
:080DF800E401E401E4010A0238
:080E00002B00EA070304EA06D7
:080E080003052B030B02E401BA
:080E100003046C030C022B002B
:080E180003046D036D036D037B
:080E20000D02EB016D03100C43
:080E2800ED012E0243061B0B35
:080E3000FF0C2E001E0B6D00EB
:080E38000F0C2E006F000A07E9
:080E4000250BAD03AE03010C0C
:080E48002F006A00800C2C0051
:080E50005D000B0241004C01A2
:080E58004306360B500C840028
:080E60000307360B0D0220010F
:080E68000E02600103042C03DB
:080E700003062C03AD03AE03E1
:080E7800010CAF014306A402C6
:080E8000AA020A02030E430757
:080E8800470B030CE401080C08
:080E90008A004306AB02100CBE
:080E98008A000307280B0D007E
:080EA000100C240013008B0963
:080EA800070E4306520B2A005D
:080EB000EA00200C24001002EE
:080EB80031000A023000030CB6
:080EC0003200FF0C3300000CAE
:080EC8003400200C240012028A
:080ED0002A0013022B0014029A
:080ED8002C0011022D00500C4A
:080EE0002400100094092E0209
:080EE80043067C0B100C2400F2
:080EF000040C380073000D0032
:080EF8000F0C2A00B00C2400CD
:080F0000000C2000A402EA022B
:080F0800810B6A006B006C0014
:080F1000200C240010022D004A
:080F1800280C38001D02B8008E
:080F2000B80079001B05B00CBC
:080F28002400010C2E00100052
:080F30009209100C2400020CD0
:040F380038000D0070
:08100000000C25000B0C300070
:0810080065045207090A850581
:081010000A0A850441004100B9
:081018004100410065054100A3
:0810200041004100410073038F
:081028007203F002040A6504E2
:081030004100410041004100B4
:08103800A50541004100410043
:081040004100A5040D00300C75
:081048002400000C3400000C30
:0810500035000A0CF5017600E1
:08105800700C3700030C380096
:08106000010C39007B007F0048
:08106800100CE401460C3400F9
:08107000000C35000A0CF5012B
:081078007600700C3700030C38
:081080003800010C39007B006F
:081088007F000D001F0C430066
:08109000000C2500000C050016
:08109800300C24007000030C71
:0810A0003100030C3200000CCA
:0810A8003300F802EC0A11020A
:0810B0003800F902EC0A1502F8
:0810B8004300140241003C005A
:0810C00042003D00010CF401A7
:0810C8000306B5020F0C7D01C7
:0810D00043076B0A780A0D0CBE
:0810D8009D004307720A0C0C95
:0810E000F601780A0E0C9D00D8
:0810E80043079B0A0C0CB60043
:0810F0001F053F041C023E0035
:0810F800F00C7E01F00C9E00DB
:081100004307830A3F051C02AE
:081108000F0E39004307910AA4
:08111000150243001402410026
:081118003900010CF40103068B
:08112000B502F00C77013C035D
:081128003C033C033C031C02E4
:081130000F0E3701EC0A030C5D
:081138009D004307A70A030410
:081140005C033C00DC013600F9
:08114800D601F6015B0A040C5C
:081150009D004307B80A0F0CD3
:0811580077011C02070E3E00A6
:081160007E037E037E037E0383
:081168001E02F00E37015B0AC4
:08117000060C9D004307BF0AB5
:081178001C023B005B0A080C9D
:081180009D004307C60A0C0C98
:08118800F6015B0A090C9D0051
:081190004307CD0A0C0CB60068
:081198005B0A0A0C9D004307ED
:0811A000D40A1C023A005B0AAC
:0811A8000B0C9D004307E00A57
:0811B000FA004306DF0A1C02ED
:0811B800B4000307F5005B0A17
:0811C0000C0C9D004307EB0A33
:0811C80012023400130235008D
:0811D0000A0CF5015B0A5B0A41
:0811D800B002020C9000430676
:0811E000FC0A100CE401010CF3
:0811E8003000030C3100490C3A
:0811F0003200000C3300550A27
:0811F800200C3F07400DC40468
:08120000A40584053F07800DE1
:081208003300000C3200000964
:081210001F07160B17023E0038
:081218003E033E033E033E03CA
:081220001E02070E1B01330042
:08122800010C3200C405A4040E
:0812300084041F07280B1702BC
:081238003E003E033E033E03AD
:081240003E031E02070E400DE3
:081248001B013300010C320010
:08125000C404A40584051F0776
:08125800340B17020F0ED60142
:081260003300020C320000090A
:08126800C405A40484041F075F
:08127000410B17020F0ED6011D
:08127800400D3300020C3200AE
:0412800000090D0054
:081400000103000418060304B7
:0814080084003400F4003400FC
:08141000F4003400F400340084
:0814180084003400F4003400EC
:08142000F4003400F4000004A4
:0814280034008C00A400BC009C
:081430008400B400B400A40024
:081438008400A8003800AC009C
:08144000B400DC00A400D4009C
:08144800D400B400A4008000F0
:081450001000020A380D8800AB
:081458006800840064004400F8
:0814600044003400D40E380DE5
:08146800880EF400480DD40EBB
:081470003C0DB40ED400D400C1
:08147800B400A4008000100084
:08148000170B140AF000200014
:08148800030B000C0003030438
:081490003806880038008800CE
:081498003800880038008800CC
:0814A00038008400B4003400A0
:0814A800B4008400B40034001C
:0814B000B4008400B4008400C4
:0814B800B4003400D400A400CC
:0814C000D4003400D400A400A4
:0814C800D4003400D400A4009C
:0814D000D4003400D400340004
:0814D800D4008400B4003400CC
:0814E000B400020A8400B4000C
:0814E8003400B400B40034002C
:0814F000C4006400D4004400B4
:0814F800A4004400B40034001C
:08150000C4006400D4004400A3
:08150800440044003400B4006B
:081510003400B4003400D400E3
:081518003400D4008400B4008B
:081520003400B400210B8C0023
:08152800A400BC008400B40023
:08153000B400A4008400A8002F
:081538003800AC00B400DC0037
:08154000A400D400D400B400A3
:08154800A40080001000020A5B
:08155000380D880068008400DA
:0815580064004400440034006B
:08156000D40E380D880EF400D2
:08156800480DD40E3C0DB40E39
:08157000D400D400B400A40073
:0815780080001000170B0304B2
:081580000404800010000504C2
:08158800800010000604800041
:08159000100080001000F000C3
:081598002000F0002000F0002B
:0815A0002000F0002000F00023
:0815A8002000F0002000000CFF
:0615B000F0002000000C19
:081600000000000000000000E2
:081608000000000000000000DA
:081610007800CC00DC00EC00C6
:08161800CC00CC0078000000BA
:081620003000300070003000C2
:0816280030003000FC0000005E
:081630007800CC000C0018004A
:081638006000C000FC0000008E
:081640007800CC000C0038001A
:081648000C00CC00780000004A
:081650000C001C003C00CC0062
:08165800FE000C000C00000074
:08166000FC00C000F8000C00C2
:081668000C00CC00780000002A
:081670007800CC00C000F80076
:08167800CC00CC00780000005A
:08168000FC00CC001800300052
:081688003000300030000000CA
:081690007800CC00CC007800CA
:08169800CC00CC00780000003A
:0816A0007800CC00CC007C00B6
:0816A8000C00CC0078000000EA
:0816B00030007800CC00FC00C2
:0816B800CC00CC00CC000000C6
:0816C000F800CC00CC00F8009A
:0816C800CC00CC00F80000008A
:0816D0007800CC00C000C0004E
:0816D800C000CC007800000006
:0816E000F000D800CC00CC00A2
:0816E800CC00D800F000000066
:0816F000FC00C000C000F00086
:0816F800C000C000FC0000006E
:08170000FC00C000C000F00075
:08170800C000C000C000000099
:081710007800CC00C000DC00F1
:08171800CC00CC0078000000B9
:08172000CC00CC00CC00FC0061
:08172800CC00CC00CC00000055
:081730007800300030003000A9
:081738003000300078000000D1
:081740003C001800180018001D
:081748001800D8007000000039
:08175000CC00D800F000E0001D
:08175800F000D800CC000000F5
:08176000C000C000C000C00081
:08176800C000C000FC000000FD
:08177000C600EE00FE00FE00C1
:08177800C600C600C600000017
:08178000CC00EC00FC00FC00B1
:08178800DC00CC00CC000000E5
:081790007800CC00CC00CC0075
:08179800CC00CC007800000039
:0817A000F800CC00CC00F800B9
:0817A800C000C000C0000000F9
:0817B0007800CC00CC00CC0055
:0817B800CC0078001C000000C9
:0817C000F800CC00CC00F80099
:0817C800F000D800CC00000085
:0817D0007800CC00C000780095
:0817D8000C00CC0078000000B9
:0817E000FC0030003000300075
:0817E800300030003000000069
:0817F000CC00CC00CC00CC00C1
:0817F800CC00CC0078000000D9
:08180000CC00CC00CC00CC00B0
:08180800CC0078003000000064
:08181000C600C600C600D600A8
:08181800FE00EE00C600000016
:08182000CC00CC007800300080
:081828007800CC00CC000000A8
:08183000CC00CC00CC007800D4
:08183800300030003000000018
:08184000FC000C001800300050
:081848006000C000FC0000007C
:0818500000003F005F006F0083
:08185800770078007B007B00A3
:081860000000FF00FF00FF0083
:08186800FF000000FF00FF007B
:081870000000FC00F800F60086
:08187800EC001600DC00D600B4
:081880007B007B007B007B0074
:081888007B007B007B007B006C
:08189000FF00FF00FF00FF0054
:08189800FF00FF00FF00FF004C
:0818A0007B007B00780073005F
:0818A8006E005B002E00000041
:0818B000CE00DA000E00CA00B0
:0818B8007600DA007400000064
:0818C000DA00CE00DA00CE00D0
:0818C800DA00CE00DA00CE00C8
:0818D000D800CD00DB00C700C9
:0818D800CF00C000FF00FF007B
:0818E0000000FF00FF00FF0003
:0818E800FF000000FF00FF00FB
:0818F0007B00BB00DB00EB00F4
:0818F800F3000300FF00FF00F4
:08190000FF00FF000000DD0004
:081908007700DD00770000000C
:081910000000000000001800B7
:081918001800000000000000AF
:08192000FF008100BD00BD00C5
:08192800BD00BD008100FF00BD
:08193000000000000000FF00B0
:08193800FF00000000000000A8
:081940003C007E007E00FF0068
:08194800FF007E007E003C0060
:081950003E007C007000E00085
:08195800F00078007E003C0065
:081960003C007E007E00FF0048
:08196800F700E700C300420094
:081970003C007E001E000F0088
:0819780007000E003E007C0098
:081980004200C300E700F7007C
:08198800FF007E007E003C0020
:081990003C007E00DB00DB00DF
:08199800FF00FF00D6009200E1
:0819A0003C007E00DB00DB00CF
:0819A800FF00FF006D00480084
:0819B0003C005A009900FF0001
:0819B800D500AB00FF004A005E
:0819C00000004400AA00AA0087
:0819C8004400000000000000D3
:0819D0001000100044000000AB
:0819D800C300000054001000E0
:0819E000000011002B002200A1
:0819E8006600EE00EE00440071
:0819F0000000000000000000EF
:0819F8000000000000000000E7
:081A0000060060000600600012
:081A080006006000060060000A
:081A10000600C0008C0040003C
:081A18000600C0008C00400034
:081A20000C0060004C00800086
:081A28000C0060004C0080007E
:081A30000E0040004C004000D4
:081A38004E00000046004000D2
:081A40000E008000C40040000C
:081A48002E00000044006000C4
:081A50000E0020004400C0005C
:081A58008E0000006400400054
:081A60000F00000044004400E7
:081A68000F00000044004400DF
:081A7000FF00FF00F600F60084
:081A7800F600FF00FF00F6007C
:081A8000FF00FF00FF00F6006B
:081A8800FF00FF00FF00FF005A
:081A9000F600F600FF00F6006D
:081A9800FF00F600F600FF005C
:081AA000F600F600F600F60066
:081AA800FF00F600F600F60055
:081AB000F600F600F600FF004D
:081AB800F600F600F600FF0045
:081AC000F600FF00FF00F60034
:081AC800FF00FF00FF00FF001A
:081AD000F600F600FF00F6002D
:081AD800FF00F600F600FF001C
:081AE000F600F600FF00F6001D
:081AE800F600F600F600FF0015
:081AF000FF00FF00F600F60004
:081AF800F600FF00FF00F600FC
:081B0000FF00FF00FF00F600EA
:081B0800FF00FF00FF00FF00D9
:081B1000F600F600F600F600F5
:081B1800F600F600F600F600ED
:081B2000F600F600F600F600E5
:081B2800F600F600F600F600DD
:081B30000A001A002A003A0025
:081B38004A005A006A007A001D
:081B40008A009A00AA00BA0015
:081B4800CA00DA00EA00EA001D
:081B5000F600F600F600F600B5
:081B5800F600F600F600F600AD
:081B6000F600F600F600F600A5
:081B6800F600F600F600F6009D
:081B7000080C2C00380C2D00BC
:081B78001000310911022900DF
:081B800041001E0C2A00130CA9
:081B88002B00EB021600C50B57
:081B9000EA021600C30B040C6D
:081B98002A0041000000EA02EE
:081BA0001600CD0B100C2A0009
:081BA8005D0000000D02410088
:081BB0002900AD024100DC0B2D
:081BB800EA02D40B110229001E
:081BC00000000000080C2A00DF
:081BC800130C2B00EB021600C8
:081BD000E60BEA021600E40B2B
:081BD800020C2A00410000008C
:081BE000EA021600EE0BEC0214
:061BE800BC0B1000A10B74
:081C0000FF00000B000BB00B0C
:081C0800980BC00B780BE80BF0
:081C1000000B000B000B000BA0
:081C1800000B000BB00B780B70
:081C2000000C780BB00B000B67
:081C2800000BFB00000B000B98
:081C3000000B080B080B080B68
:081C3800000B000B000B000B78
:081C4000000B000B000B000B70
:081C4800000B080B080B000B58
:081C5000000B000BFF00000B6C
:081C5800D00BF80BE80B900B18
:081C6000000BE80BF00B580B20
:081C6800E00BF00B000B600B18
:081C7000F80BF00BF00BC80BA0
:081C7800C00B000B000BEB0098
:081C8000280C300C300C380C6C
:081C8800900C900C900C900CE4
:081C9000900C900C900C900CDC
:081C9800900C900C280C300C9C
:081CA000300C300C300C380C44
:081CA800EA00400C480C480C56
:081CB000600C900C900C900CEC
:081CB800900C900C900C900CB4
:081CC000900C900C900C400CFC
:081CC800480C480C480C480CC4
:081CD000600CE900400C480C17
:081CD800480C600C900C900C0C
:081CE000900C900C900C900C8C
:081CE800900C900C900C900C84
:081CF000400C480C480C480CA4
:081CF800480C600CE900400CEF
:081D0000480C480C600C900C2B
:081D0800900C900C900C900C63
:081D1000900C900C900C900C5B
:081D1800900C400C900C900CA3
:081D2000900C900C600CE9002E
:081D2800400C480C480C600C53
:081D3000900C900C900C900C3B
:081D3800900C900C900C900C33
:081D4000900C900C400C900C7B
:081D4800900C900C900C600C53
:081D5000E900400C480C480CAE
:081D5800600C900C900C900C43
:081D6000900C900C900C900C0B
:081D6800900C900C900C400C53
:081D7000900C900C900C900CFB
:081D7800600CE900400C480C6E
:081D8000480C600C900C900C63
:081D8800900C900C900C900CE3
:081D9000900C900C900C900CDB
:081D9800400C480C480C480CFB
:081DA000480C600CE900400C46
:081DA800480C480C600C900C83
:081DB000900C900C900C900CBB
:081DB800900C900C900C900CB3
:081DC000900C400C480C480C8B
:081DC800480C480C600CE90016
:081DD000400C480C480C600CAB
:081DD800900C900C900C900C93
:081DE000900C900C900C900C8B
:081DE800900C900C400C480C1B
:081DF000480C480C480C600C83
:081E0000E900400C480C480CFD
:081E0800600C900C900C900C92
:081E1000900C900C900C900C5A
:081E1800900C900C900C400CA2
:081E2000480C480C480C480C6A
:081E2800600CE900400C480CBD
:081E3000480C600C900C900CB2
:081E3800900C900C900C900C32
:081E4000900C900C900C900C2A
:081E4800400C480C480C480C4A
:081E5000480C600CE900400C95
:081E5800480C480C600C900CD2
:081E6000900C900C900C900C0A
:081E6800900C900C900C900C02
:081E7000900C400C480C480CDA
:081E7800480C480C600CE90065
:081E8000400C480C480C600CFA
:081E8800900C900C900C900CE2
:081E9000900C900C900C900CDA
:081E9800900C900C400C480C6A
:081EA000480C480C480C600CD2
:081EA800E900400C480C480C55
:081EB000600C900C900C900CEA
:081EB800900C900C900C900CB2
:081EC000900C900C900C400CFA
:081EC800480C480C480C480CC2
:081ED000600CE900400C480C15
:081ED800480C600C900C900C0A
:081EE000900C900C900C900C8A
:081EE800900C900C900C900C82
:081EF000400C480C480C480CA2
:081EF800480C600CE900400CED
:081F0000480C480C600C900C29
:081F0800900C900C900C900C61
:081F1000900C900C900C900C59
:081F1800900C400C480C480C31
:081F2000480C480C600CE900BC
:081F2800400C480C480C600C51
:081F3000900C900C900C900C39
:081F3800900C900C900C900C31
:081F4000900C900C400C480CC1
:081F4800480C480C480C600C29
:081F5000E900400C480C480CAC
:081F5800600C900C900C900C41
:081F6000900C900C900C900C09
:081F6800900C900C900C400C51
:081F7000480C480C480C480C19
:081F7800600CE800400C480C6D
:081F8000480C600C900C900C61
:081F8800900C900C900C900CE1
:081F9000900C900C900C900CD9
:081F9800400C480C480C480CF9
:081FA000480C600CE700400C46
:081FA800480C480C680C700C99
:081FB000700C700C700C700C39
:081FB800700C700C700C700C31
:081FC000700C780C480C480C71
:081FC800480C480C600CE60017
:081FD000500C800C800C800C09
:081FD800800C800C800C800CD1
:081FE000800C800C800C800CC9
:081FE800800C800C800C800CC1
:081FF000800C800C800C580CE1
:021FFE00960A41
:08200000F70FF20FF60FF50FC8
:08200800F60FFD0FF70FF40FB6
:08201000F60FF50FF70FF40FB6
:08201800F70FF20FF70FF30FB1
:10202000AA0FFF0FFFFF04ABC40400B4FFFF0000C2
:00000001FF
