:0800400070007100F002220AB9
:08004800F102220A0C001A006B
:08005000E404000C2900000C7F
:080058000900000C2600000C59
:080060000600000C3200000C48
:080068003900000C3A00050C00
:080070003500120000096C00CC
:080078006D00C00C3600F60C0F
:080080002900420A430A0000B6
:080088000000010C3700180C08
:080090003800F802490AF702EA
:08009800470A010C3700500A71
:0800A000510AF7024F0AF00CAF
:0800A8002900560A0000030CB8
:0800B0003700180C3800F802BB
:0800B8005B0AF702590A070C6C
:0800C0003700620A630AF7022F
:0800C800610AF60C2900680A28
:0800D000690A040C37006C0AF8
:0800D8006D0AF7026B0A150224
:0800E0002900720A730A0000F6
:0800E8000000010C3700180CA8
:0800F0003800F802790AF7025A
:0800F800770A090C3700800AA9
:08010000810AF7027F0AF60CE8
:080108002900860A870A010C98
:080110003700180C3800F8025A
:080118008B0AF702890A020CB0
:080120003700920A930AF7026E
:08012800910AAD02060C8D00E6
:0801300003079D0A6D000000A9
:080138009E0AF80A500C240095
:080140000C022A0003046A030B
:080148006A030A02E40100024F
:080150002B00A40200022E00A6
:0801580003046E03020CEE012A
:080160001A00E404AC029C0C3F
:080168002A000B028A00430784
:08017000E00A00000000EE0CA3
:0801780029000000020C370011
:08018000C10AC20AF702C00A1D
:08018800EC0C29000000020C40
:080190003700CA0ACB0AF7028E
:08019800C90AEA0C290000006D
:0801A000020C3700D30AD40A57
:0801A800F702D20AE80C29005D
:0801B0000000020C3700DC0A1C
:0801B800DD0AF702DB0AE50A8B
:0801C000E60C2900000000001C
:0801C80000000000010C3700EB
:0801D000E90AEA0AF702E80A55
:0801D800EA02B50AEF0A020C6D
:0801E0003700F20AF30AF702EE
:0801E800F10AF6023F0A0C0BBC
:0801F000E60C2900FB0AFC0AE1
:0801F800290C3700180C380037
:08020000F802000BF702FE0AF0
:08020800090C3700070B080B7D
:08021000F702060BF6023F0A9B
:080218001C0C3600F60C290055
:08022000110B120B000000009D
:08022800010C3700180C38002E
:08023000F802180BF702160B8F
:08023800010C37001F0B200B25
:08024000F7021E0BF00C29006F
:08024800250B0000030C370038
:08025000180C3800F8022A0B1B
:08025800F702280B070C370028
:08026000310B320BF702300BE9
:08026800F60C2900370B380BDE
:08027000040C37003B0B3C0BB2
:08027800F7023A0B1502290000
:08028000410B420B00000000DD
:08028800010C3700180C3800CE
:08029000F802480BF702460BCF
:08029800090C37004F0B500B5D
:0802A000F7024E0BF60C2900D9
:0802A800550B560B010C370049
:0802B000180C3800F8025A0B8B
:0802B800F702580B020C37009D
:0802C000610B620BF702600BF9
:0802C800FF0C290000000000FA
:0802D0002A0C3700180C38005D
:0802D800F8026C0BF7026A0B3F
:0802E000F6020E0B12001D09CD
:0802E800F00C2900770BBD0C9E
:0802F0003700180C3800F80279
:0802F8007B0BF702790B060CE9
:080300003700820B830BF702AA
:08030800810B860B870B030C2F
:080310003700180C3800F80258
:080318008B0BF702890B010CAD
:080320003700920B930BF7026A
:08032800910B260C3600F60CC7
:0803300029009A0B9B0B000051
:080338000000010C3700180C55
:080340003800F802A10BF702DE
:080348009F0B010C3700A80B0C
:08035000A90BF702A70BF00C4A
:080358002900AE0B0000030CAC
:080360003700180C3800F80208
:08036800B30BF702B10B070C07
:080370003700BA0BBB0BF702CA
:08037800B90BF60C2900C00BC3
:08038000C10B040C3700C40B93
:08038800C50BF702C30B1502BF
:080390002900CA0BCB0B000091
:080398000000010C3700180CF5
:0803A0003800F802D10BF7024E
:0803A800CF0B090C3700D80B44
:0803B000D90BF702D70BF60C84
:0803B8002900DE0BDF0B010C34
:0803C0003700180C3800F802A8
:0803C800E30BF702E10B020C4C
:0803D0003700EA0BEB0BF7020A
:0803D800E90BFF0C29000000F5
:0803E00000002A0C3700180C84
:0803E8003800F802F50BF702E2
:0803F000F30BF602970B3B0A28
:08080000500C2400200C2A001A
:080808006C000C0245097F0E93
:080810002D00100CED010D029A
:080818002000A4020C02860975
:080820002000A402000C2000DE
:08082800A402000C2000A40250
:08083000AC02EA02050A1A00FD
:08083800E404500C2400200C24
:080840002A00A40200022B00B3
:08084800A40203040B02E0010D
:08085000E400E4000306A0022D
:08085800A00C80000307370A21
:08086000000000006000A4028A
:08086800A40260003C0AA40296
:08087000A402000000003C0A94
:08087800A402000C2000A40200
:08088000EA02210A1A00E40457
:080888000D00E20129086B08D4
:08089000D608EB082C08A908AA
:0808980003082108BB08EF086A
:0808A0005F085F084C08FC082A
:0808A8001008EC08BE08D4089A
:0808B000ED0851080608450897
:0808B8004D08990825088E087F
:0808C000510865085308050802
:0808C8005C083308EC083F084E
:0808D00054081608A7082208CD
:0808D800CD08CC088F08600870
:0808E000D408F3084E084A0891
:0808E80060083D08CB08EE0892
:0808F0002F08680816087508BE
:0808F80093086D083508330870
:08090000F4080D084C08E6089C
:0809080005083908E20180082E
:0809100040082008100840080F
:08091800200810084008400807
:0809200020088008800810087F
:08092800400820084008800887
:0809300040084008800810088F
:080938001008400810088008B7
:080940004008200810082008FF
:0609480010082008400821
:021FFE00270AB0
:08200000FF0FFF0FFF0FFF0FA0
:08200800FF0FFF0FFF0FFF0F98
:08201000FF0FFF0FFF0FFF0F90
:08201800FF0FFF0FFF0FFF0F88
:10202000AA0FBF0FFFFF04ABC40400B4FFFF2104DD
:00000001FF
