:08004000E2010608160826087B
:08004800360846085608660858
:08005000760886089608A60850
:08005800B608C608D608E60848
:08006000FF0870007100F002BE
:08006800330AF102330A0C0017
:080070001A00E404000C290051
:08007800000C0900000C260039
:08008000000C0600000C320028
:08008800000C3900000C3A00E5
:08009000050C35000E0C3C00CC
:08009800200C3D0012000009DC
:0800A0006C006D00C00C36007D
:0800A8001C0220093B00FD02CF
:0800B0005F0A200C3D00FC0278
:0800B8005F0A0E0C3C00F60C7F
:0800C0002900620A630A000036
:0800C8000000010C3700180CC8
:0800D0003800F802690AF7028A
:0800D800670A010C3700700AF1
:0800E000710AF7026F0AF00C2F
:0800E8002900760A0000030C58
:0800F0003700180C3800F8027B
:0800F8007B0AF702790A070CEC
:080100003700820A830AF702AE
:08010800810AF60C2900880AA7
:08011000890A040C37008C0A77
:080118008D0AF7028B0A1502A3
:080120002900920A930A000075
:080128000000010C3700180C67
:080130003800F802990AF702F9
:08013800970A090C3700A00A28
:08014000A10AF7029F0AF60C68
:080148002900A60AA70A010C18
:080150003700180C3800F8021A
:08015800AB0AF702A90A020C30
:080160003700B20AB30AF702EE
:08016800B10AC00C2E001602C2
:08017000AE0003042E0303049A
:080178002E0303042E0303040F
:080180002E0303042E031B02F1
:080188002F000E02EF01AD0291
:08019000060C8D000307CF0AE5
:080198006D000000D00A030B0A
:0801A000500C24000C022A009F
:0801A80003046A036A030A0262
:0801B000E40100022B00A4028F
:0801B80000022E0003046E0397
:0801C000020CEE011A00E40438
:0801C800AC02A00C2A000B029E
:0801D0008A004307F00A000059
:0801D8000000FF0C2900F50AEC
:0801E0000F02290000000000DD
:0801E8000000010C3700F80AC9
:0801F000F90AF702F70AEA021E
:0801F800E70AFE0AFF0A0000FD
:08020000F6025F0A150B0F0264
:080208002900290C3700180C35
:080210003800F802090BF702A7
:08021800070B080C3700100B66
:08022000110BF7020F0BF602AF
:080228005F0A1C0C3600F60C05
:0802300029001A0B1B0B000052
:080238000000010C3700180C56
:080240003800F802210BF7025F
:080248001F0B010C3700280B0D
:08025000290BF702270BF00C4B
:0802580029002E0B0000030C2D
:080260003700180C3800F80209
:08026800330BF702310B070C08
:0802700037003A0B3B0BF702CB
:08027800390BF60C2900400BC4
:08028000410B040C3700440B94
:08028800450BF702430B1502C0
:0802900029004A0B4B0B000092
:080298000000010C3700180CF6
:0802A0003800F802510BF702CF
:0802A8004F0B090C3700580B45
:0802B000590BF702570BF60C85
:0802B80029005E0B5F0B010C35
:0802C0003700180C3800F802A9
:0802C800630BF702610B020C4D
:0802D00037006A0B6B0BF7020B
:0802D800690BFF0C2900000076
:0802E00000002A0C3700180C85
:0802E8003800F802750BF70263
:0802F000730BF602170B12005C
:0802F8001D09F00C2900800B28
:08030000BD0C3700180C380099
:08030800F802840BF702820BDE
:08031000060C37008B0B8C0B6F
:08031800F7028A0B8F0B900B1A
:08032000030C3700180C380033
:08032800F802940BF702920B9E
:08033000010C37009B0B9C0B34
:08033800F7029A0B260C3600B7
:08034000F60C2900A30BA40B2D
:0803480000000000010C370069
:08035000180C3800F802AA0B9A
:08035800F702A80B010C3700AD
:08036000B10BB20BF702B00B68
:08036800F00C2900B70B0000A6
:08037000030C3700180C3800E3
:08037800F802BC0BF702BA0BFE
:08038000070C3700C30BC40B8E
:08038800F702C20BF60C29007C
:08039000C90BCA0B040C370075
:08039800CD0BCE0BF702CC0BDC
:0803A00015022900D30BD40B58
:0803A80000000000010C370009
:0803B000180C3800F802DA0B0A
:0803B800F702D80B090C370015
:0803C000E10BE20BF702E00B78
:0803C800F60C2900E70BE80B1D
:0803D000010C3700180C380085
:0803D800F802EC0BF702EA0B3E
:0803E000020C3700F30BF40BD3
:0803E800F702F20BFF0C2900E3
:0803F000000000002A0C370098
:0803F800180C3800F802FE0B9E
:08040000F702FC0BF602A00B51
:02040800500A98
:08080000500C2400200C2A001A
:080808006C000C0245097F0E93
:080810002D00100CED010D029A
:080818002000A4020C02860975
:080820002000A402000C2000DE
:08082800A402000C2000A40250
:08083000AC02EA02050A1A00FD
:08083800E404500C2400200C24
:080840002A00A40200022B00B3
:08084800A40203040B02E0010D
:08085000E400E4000306A0022D
:08085800A00C80000307370A21
:08086000000000006000A4028A
:08086800A40260003C0AA40296
:08087000A402000000003C0A94
:08087800A402000C2000A40200
:08088000EA02210A1A00E40457
:080888000D00E20129086B08D4
:08089000D608EB082C08A908AA
:0808980003082108BB08EF086A
:0808A0005F085F084C08FC082A
:0808A8001008EC08BE08D4089A
:0808B000ED0851080608450897
:0808B8004D08990825088E087F
:0808C000510865085308050802
:0808C8005C083308EC083F084E
:0808D00054081608A7082208CD
:0808D800CD08CC088F08600870
:0808E000D408F3084E084A0891
:0808E80060083D08CB08EE0892
:0808F0002F08680816087508BE
:0808F80093086D083508330870
:08090000F4080D084C08E6089C
:0809080005083908E20180082E
:0809100040082008100840080F
:08091800200810084008400807
:0809200020088008800810087F
:08092800400820084008800887
:0809300040084008800810088F
:080938001008400810088008B7
:080940004008200810082008FF
:0609480010082008400821
:021FFE00380A9F
:08200000FF0FFF0FFF0FFF0FA0
:08200800FF0FFF0FFF0FFF0F98
:08201000FF0FFF0FFF0FFF0F90
:08201800FF0FFF0FFF0FFF0F88
:10202000AA0FBF0FFFFF04ABC40400B4FFFF000002
:00000001FF
