:0800400070007100F002220AB9
:08004800F102220A0C001A006B
:08005000E404000C2900000C7F
:080058000900000C2600000C59
:080060000600000C3200000C48
:080068003900000C3A00050C00
:08007000350040000E0C1200E7
:08007800A7093B00120000097A
:080080006C006D00C00C36009D
:08008800F60C2900470A480AA2
:0800900000000000010C370024
:08009800180C3800F8024E0AB2
:0800A000F7024C0A010C3700C5
:0800A800550A560AF702540A3A
:0800B000F00C29005B0A0000BE
:0800B800030C3700180C38009E
:0800C000F802600AF7025E0A73
:0800C800070C3700670A680A03
:0800D000F702660AF60C290094
:0800D8006D0A6E0A040C3700EA
:0800E000710A720AF702700AAE
:0800E80015022900770A780ACD
:0800F00000000000010C3700C4
:0800F800180C3800F8027E0A22
:08010000F7027C0A090C37002C
:08010800850A860AF702840A49
:08011000F60C29008B0A8C0A91
:08011800010C3700180C38003F
:08012000F802900AF7028E0AB2
:08012800020C3700970A980A47
:08013000F702960AC00C2E0034
:080138001602AE0003042E03C1
:0801400003042E0303042E0347
:0801480003042E0303042E033F
:08015000E60C2F000E02EF0186
:08015800AD02060C8D00030747
:08016000B40A6D000000B50AAD
:08016800EA0A500C24000C020D
:080170002A0003046A036A037C
:080178000A02E40100022B0061
:08018000A40200022A0003049E
:080188002A032A032A032A03BB
:08019000E60C2E000A02EE014C
:080198001A00E404AC02A00C03
:0801A0002A000B028A0043074C
:0801A800DA0A000000000E025B
:0801B0002900DF0A0F022900FB
:0801B800000000000000010C32
:0801C0003700E20AE30AF7022E
:0801C800E10AEA02D10AF60285
:0801D000440A000B0F02290094
:0801D800ED0AEE0A0000000030
:0801E000290C3700180C38004F
:0801E800F802F40AF702F20A22
:0801F000070C3700FB0AFC0AB2
:0801F800F702FA0AF602440ABC
:080200001C0C3600F60C29006D
:08020800050B060B00000000CD
:08021000010C3700180C380046
:08021800F8020C0BF7020A0BBF
:08022000010C3700130B140B55
:08022800F702120BF00C290093
:08023000190B0000030C37005C
:08023800180C3800F8021E0B3F
:08024000F7021C0B070C37004C
:08024800250B260BF702240B25
:08025000F60C29002B0B2C0B0E
:08025800040C37002F0B300BE2
:08026000F7022E0B1502290024
:08026800350B360B000000000D
:08027000010C3700180C3800E6
:08027800F8023C0BF7023A0BFF
:08028000090C3700430B440B8D
:08028800F702420BF60C2900FD
:08029000490B4A0B010C370079
:08029800180C3800F8024E0BAF
:0802A000F7024C0B020C3700C1
:0802A800550B560BF702540B35
:0802B000FF0C29000000000012
:0802B8002A0C3700180C380075
:0802C000F802600BF7025E0B6F
:0802C800F602020B12001D09F1
:0802D000F00C29006B0BBD0CC2
:0802D8003700180C3800F80291
:0802E0006F0BF7026D0B060C19
:0802E8003700760B770BF702DB
:0802F000750B7A0B7B0B030C6C
:0802F8003700180C3800F80271
:080300007F0BF7027D0B010CDD
:080308003700860B870BF7029A
:08031000850B260C3600F60CEB
:0803180029008E0B8F0B000081
:080320000000010C3700180C6D
:080328003800F802950BF70202
:08033000930B010C37009C0B3C
:080338009D0BF7029B0BF00C7A
:080340002900A20B0000030CD0
:080348003700180C3800F80220
:08035000A70BF702A50B070C37
:080358003700AE0BAF0BF702FA
:08036000AD0BF60C2900B40BF3
:08036800B50B040C3700B80BC3
:08037000B90BF702B70B1502EF
:080378002900BE0BBF0B0000C1
:080380000000010C3700180C0D
:080388003800F802C50BF70272
:08039000C30B090C3700CC0B74
:08039800CD0BF702CB0BF60CB4
:0803A0002900D20BD30B010C64
:0803A8003700180C3800F802C0
:0803B000D70BF702D50B020C7C
:0803B8003700DE0BDF0BF7023A
:0803C000DD0BFF0C2900000019
:0803C80000002A0C3700180C9C
:0803D0003800F802E90BF70206
:0803D800E70BF6028B0B400A53
:08080000500C2400200C2A001A
:080808006C000C0245097F0E93
:080810002D00100CED010D029A
:080818002000A4020C02860975
:080820002000A402000C2000DE
:08082800A402000C2000A40250
:08083000AC02EA02050A1A00FD
:08083800E404500C2400200C24
:080840002A00A40200022B00B3
:08084800A40203040B02E0010D
:08085000E400E4000306A0022D
:08085800A00C80000307370A21
:08086000000000006000A4028A
:08086800A40260003C0AA40296
:08087000A402000000003C0A94
:08087800A402000C2000A40200
:08088000EA02210A1A00E40457
:080888000D00E20129086B08D4
:08089000D608EB082C08A908AA
:0808980003082108BB08EF086A
:0808A0005F085F084C08FC082A
:0808A8001008EC08BE08D4089A
:0808B000ED0851080608450897
:0808B8004D08990825088E087F
:0808C000510865085308050802
:0808C8005C083308EC083F084E
:0808D00054081608A7082208CD
:0808D800CD08CC088F08600870
:0808E000D408F3084E084A0891
:0808E80060083D08CB08EE0892
:0808F0002F08680816087508BE
:0808F80093086D083508330870
:08090000F4080D084C08E6089C
:0809080005083908E20180082E
:0809100040082008100840080F
:08091800200810084008400807
:0809200020088008800810087F
:08092800400820084008800887
:0809300040084008800810088F
:080938001008400810088008B7
:080940004008200810082008FF
:08094800100820084008E2013C
:08095000060816082608360807
:080958004608560866087608FF
:0809600086089608A608B608F7
:08096800C608D608E608FF08E6
:021FFE00270AB0
:08200000FF0FFF0FFF0FFF0FA0
:08200800FF0FFF0FFF0FFF0F98
:08201000FF0FFF0FFF0FFF0F90
:08201800FF0FFF0FFF0FFF0F88
:10202000AA0FBF0FFFFF04ABC40400B4FFFF000002
:00000001FF
