:0800400070007100F002220AB9
:08004800F102220A0C001A006B
:08005000E404000C2900000C7F
:080058000900000C2600000C59
:080060000600000C3200000C48
:080068003900000C3A00050C00
:080070003500120000096C00CC
:080078006D00C00C3600F60C0F
:080080002900420A430A0000B6
:080088000000010C3700180C08
:080090003800F802490AF702EA
:08009800470A010C3700500A71
:0800A000510AF7024F0AF00CAF
:0800A8002900560A0000030CB8
:0800B0003700180C3800F802BB
:0800B8005B0AF702590A070C6C
:0800C0003700620A630AF7022F
:0800C800610AF60C2900680A28
:0800D000690A040C37006C0AF8
:0800D8006D0AF7026B0A150224
:0800E0002900720A730A0000F6
:0800E8000000010C3700180CA8
:0800F0003800F802790AF7025A
:0800F800770A090C3700800AA9
:08010000810AF7027F0AF60CE8
:080108002900860A870A010C98
:080110003700180C3800F8025A
:080118008B0AF702890A020CB0
:080120003700920A930AF7026E
:08012800910AC00C2E00160222
:08013000AE0003042E030304DA
:080138002E0303042E0303044F
:080140002E0303042E03E60C5C
:080148002F000E02EF01AD02D1
:08015000060C8D000307AF0A45
:080158006D000000B00AE30A8B
:08016000500C24000C022A00DF
:0801680003046A036A030A02A2
:08017000E40100022B00A402CF
:0801780000022E0003046E03D7
:08018000020CEE011A00E40478
:08018800AC02A00C2A000B02DE
:080190008A004307D00A0000B9
:080198000000FF0C2900D50A4C
:0801A0000F022900000000001D
:0801A8000000010C3700D80A29
:0801B000D90AF702D70AEA029E
:0801B800C70ADE0A0000000086
:0801C000F6023F0AF90A0F02E2
:0801C8002900E60AE70A000025
:0801D0000000290C3700180C97
:0801D8003800F802ED0AF702FD
:0801E000EB0A070C3700F40ADA
:0801E800F50AF702F30AF60222
:0801F0003F0A1C0C3600F60C5E
:0801F8002900FE0AFF0A0000C5
:080200000000010C3700180C8E
:080208003800F802050BF702B3
:08021000030B010C37000C0B7D
:080218000D0BF7020B0BF00CBB
:080220002900120B0000030C81
:080228003700180C3800F80241
:08023000170BF702150B070C78
:0802380037001E0B1F0BF7023B
:080240001D0BF60C2900240B34
:08024800250B040C3700280B04
:08025000290BF702270B150230
:0802580029002E0B2F0B000002
:080260000000010C3700180C2E
:080268003800F802350BF70223
:08027000330B090C37003C0BB5
:080278003D0BF7023B0BF60CF5
:080280002900420B430B010CA5
:080288003700180C3800F802E1
:08029000470BF702450B020CBD
:0802980037004E0B4F0BF7027B
:0802A0004D0BFF0C29000000CA
:0802A80000002A0C3700180CBD
:0802B0003800F802590BF702B7
:0802B800570BF602FB0A1200CD
:0802C0001D09F00C2900640B7C
:0802C800BD0C3700180C3800D2
:0802D000F802680BF702660B4F
:0802D800060C37006F0B700BE0
:0802E000F7026E0B730B740BA7
:0802E800030C3700180C38006C
:0802F000F802780BF702760B0F
:0802F800010C37007F0B800BA5
:08030000F7027E0B260C36000B
:08030800F60C2900870B880B9D
:0803100000000000010C3700A1
:08031800180C3800F8028E0BEE
:08032000F7028C0B010C370001
:08032800950B960BF702940BF4
:08033000F00C29009B0B0000FA
:08033800030C3700180C38001B
:08034000F802A00BF7029E0B6E
:08034800070C3700A70BA80BFE
:08035000F702A60BF60C2900D0
:08035800AD0BAE0B040C3700E5
:08036000B10BB20BF702B00B68
:0803680015022900B70BB80BC8
:0803700000000000010C370041
:08037800180C3800F802BE0B5E
:08038000F702BC0B090C370069
:08038800C50BC60BF702C40B04
:08039000F60C2900CB0BCC0B8D
:08039800010C3700180C3800BD
:0803A000F802D00BF702CE0BAE
:0803A800020C3700D70BD80B43
:0803B000F702D60BFF0C290037
:0803B800000000002A0C3700D0
:0803C000180C3800F802E20BF2
:0803C800F702E00BF602840BC2
:0203D0003B0AE6
:08080000500C2400200C2A001A
:080808006C000C0245097F0E93
:080810002D00100CED010D029A
:080818002000A4020C02860975
:080820002000A402000C2000DE
:08082800A402000C2000A40250
:08083000AC02EA02050A1A00FD
:08083800E404500C2400200C24
:080840002A00A40200022B00B3
:08084800A40203040B02E0010D
:08085000E400E4000306A0022D
:08085800A00C80000307370A21
:08086000000000006000A4028A
:08086800A40260003C0AA40296
:08087000A402000000003C0A94
:08087800A402000C2000A40200
:08088000EA02210A1A00E40457
:080888000D00E20129086B08D4
:08089000D608EB082C08A908AA
:0808980003082108BB08EF086A
:0808A0005F085F084C08FC082A
:0808A8001008EC08BE08D4089A
:0808B000ED0851080608450897
:0808B8004D08990825088E087F
:0808C000510865085308050802
:0808C8005C083308EC083F084E
:0808D00054081608A7082208CD
:0808D800CD08CC088F08600870
:0808E000D408F3084E084A0891
:0808E80060083D08CB08EE0892
:0808F0002F08680816087508BE
:0808F80093086D083508330870
:08090000F4080D084C08E6089C
:0809080005083908E20180082E
:0809100040082008100840080F
:08091800200810084008400807
:0809200020088008800810087F
:08092800400820084008800887
:0809300040084008800810088F
:080938001008400810088008B7
:080940004008200810082008FF
:0609480010082008400821
:021FFE00270AB0
:08200000FF0FFF0FFF0FFF0FA0
:08200800FF0FFF0FFF0FFF0F98
:08201000FF0FFF0FFF0FFF0F90
:08201800FF0FFF0FFF0FFF0F88
:10202000AA0FBF0FFFFF04ABC40400B4FFFF000002
:00000001FF
