:0800400070007100F002220AB9
:08004800F102220A0C001A006B
:08005000E404000C2900000C7F
:080058000900000C2600000C59
:080060000600000C3200000C48
:080068003900000C3A00050C00
:080070003500120000096C00CC
:080078006D00C00C3600F60C0F
:080080002900420A430A0000B6
:080088000000010C3700180C08
:080090003800F802490AF702EA
:08009800470A010C3700500A71
:0800A000510AF7024F0AF00CAF
:0800A8002900560A0000030CB8
:0800B0003700180C3800F802BB
:0800B8005B0AF702590A070C6C
:0800C0003700620A630AF7022F
:0800C800610AF60C2900680A28
:0800D000690A040C37006C0AF8
:0800D8006D0AF7026B0A150224
:0800E0002900720A730A0000F6
:0800E8000000010C3700180CA8
:0800F0003800F802790AF7025A
:0800F800770A090C3700800AA9
:08010000810AF7027F0AF60CE8
:080108002900860A870A010C98
:080110003700180C3800F8025A
:080118008B0AF702890A020CB0
:080120003700920A930AF7026E
:08012800910AAD02060C8D00E6
:0801300003079D0A6D000000A9
:080138009E0AD60A500C2400B7
:080140000C022A0003046A030B
:080148006A030A02E40100024F
:080150002B00A40200022E00A6
:0801580003046E03020CEE012A
:080160001A00E404AC02A00C3B
:080168002A000B028A00430784
:08017000BE0A00000000FF0CB4
:080178002900C30AE60C29006E
:08018000000000000000000077
:08018800010C3700C70AC80A88
:08019000F702C60AEA02B50AF3
:08019800CD0A020C3700D00A69
:0801A000D10AF702CF0AF602B2
:0801A8003F0AEA0AE60C2900F7
:0801B000D90ADA0A290C370014
:0801B800180C3800F802DE0A01
:0801C000F702DC0A090C37000C
:0801C800E50AE60AF702E40A69
:0801D000F6023F0A1C0C360088
:0801D800F60C2900EF0AF00A01
:0801E00000000000010C3700D3
:0801E800180C3800F802F60AB9
:0801F000F702F40A010C3700CC
:0801F800FD0AFE0AF702FC0AF1
:08020000F00C2900030B0000C3
:08020800030C3700180C38004C
:08021000F802080BF702060BCF
:08021800070C37000F0B100B5F
:08022000F7020E0BF60C290099
:08022800150B160B040C370046
:08023000190B1A0BF702180B61
:08023800150229001F0B200B29
:0802400000000000010C370072
:08024800180C3800F802260B27
:08025000F702240B090C370032
:080258002D0B2E0BF7022C0BFD
:08026000F60C2900330B340BEE
:08026800010C3700180C3800EE
:08027000F802380BF702360B0F
:08027800020C37003F0B400BA4
:08028000F7023E0BFF0C290000
:08028800000000002A0C370001
:08029000180C3800F8024A0BBB
:08029800F702480BF602EC0A24
:0802A00012001D09F00C2900F9
:0802A800550BBD0C3700180CCA
:0802B0003800F802590BF702B7
:0802B800570B060C3700600B28
:0802C000610BF7025F0B640BF8
:0802C800650B030C3700180C54
:0802D0003800F802690BF70287
:0802D800670B010C3700700BED
:0802E000710BF7026F0B260CF5
:0802E8003600F60C2900780B2A
:0802F000790B00000000010C75
:0802F8003700180C3800F80271
:080300007F0BF7027D0B010CDD
:080308003700860B870BF7029A
:08031000850BF00C29008C0B99
:080318000000030C3700180C73
:080320003800F802910BF7020E
:080328008F0B070C3700980B46
:08033000990BF702970BF60C84
:0803380029009E0B9F0B040C31
:080340003700A20BA30BF7022A
:08034800A10B15022900A80B0E
:08035000A90B00000000010CE4
:080358003700180C3800F80210
:08036000AF0BF702AD0B090C15
:080368003700B60BB70BF702DA
:08037000B50BF60C2900BC0BD3
:08037800BD0B010C3700180C4D
:080380003800F802C10BF7027E
:08038800BF0B020C3700C80B8B
:08039000C90BF702C70BFF0CBB
:080398002900000000002A0CFE
:0803A0003700180C3800F802C8
:0803A800D30BF702D10BF602A2
:0403B000750B3B0A84
:08080000500C2400200C2A001A
:080808006C000C0245097F0E93
:080810002D00100CED010D029A
:080818002000A4020C02860975
:080820002000A402000C2000DE
:08082800A402000C2000A40250
:08083000AC02EA02050A1A00FD
:08083800E404500C2400200C24
:080840002A00A40200022B00B3
:08084800A40203040B02E0010D
:08085000E400E4000306A0022D
:08085800A00C80000307370A21
:08086000000000006000A4028A
:08086800A40260003C0AA40296
:08087000A402000000003C0A94
:08087800A402000C2000A40200
:08088000EA02210A1A00E40457
:080888000D00E20129086B08D4
:08089000D608EB082C08A908AA
:0808980003082108BB08EF086A
:0808A0005F085F084C08FC082A
:0808A8001008EC08BE08D4089A
:0808B000ED0851080608450897
:0808B8004D08990825088E087F
:0808C000510865085308050802
:0808C8005C083308EC083F084E
:0808D00054081608A7082208CD
:0808D800CD08CC088F08600870
:0808E000D408F3084E084A0891
:0808E80060083D08CB08EE0892
:0808F0002F08680816087508BE
:0808F80093086D083508330870
:08090000F4080D084C08E6089C
:0809080005083908E20180082E
:0809100040082008100840080F
:08091800200810084008400807
:0809200020088008800810087F
:08092800400820084008800887
:0809300040084008800810088F
:080938001008400810088008B7
:080940004008200810082008FF
:0609480010082008400821
:021FFE00270AB0
:08200000FF0FFF0FFF0FFF0FA0
:08200800FF0FFF0FFF0FFF0F98
:08201000FF0FFF0FFF0FFF0F90
:08201800FF0FFF0FFF0FFF0F88
:10202000AA0FBF0FFFFF04ABC40400B4FFFF2104DD
:00000001FF
